:020000040800F2
:1000000000000320BD050008D1240008D324000807
:10001000D5240008D7240008D924000800000000D7
:10002000000000000000000000000000D182000875
:10003000DB24000800000000618300088D7B0008BD
:100040000D0600080D0600080D0600080D06000844
:100050000D0600080D0600080D0600080D06000834
:100060000D0600080D0600080D0600080D06000824
:100070000D0600080D0600080D0600080D06000814
:100080000D0600080D0600080D0600080D06000804
:100090000D0600080D0600080D0600080D060008F4
:1000A0000D0600080D0600080D0600080D060008E4
:1000B0000D0600080D0600080D0600080D060008D4
:1000C0000D0600080D0600080D0600080D060008C4
:1000D0000D0600080D0600080D0600080D060008B4
:1000E0000D0600080D0600080D0600080D060008A4
:1000F0000D0600080D0600080D0600080D06000894
:100100000D0600080D0600080D0600080D06000883
:100110000D0600080D060008DD2400080D06000885
:100120000D0600080D0600080D0600080D06000863
:100130000D0600080D0600080D0600080D06000853
:100140000D0600080D0600080D0600080D06000843
:100150000D0600080D0600080D0600080D06000833
:100160000D0600080D0600080D0600080D06000823
:100170000D0600080D0600080D060008000000002E
:100180000D0600080D0600080D0600080D06000803
:100190000D0600080D0600080D0600080D060008F3
:0C01A000E92400080D060008F524000802
:1001B00010B5054C237833B9044B13B10448AFF3A1
:1001C00000800123237010BD800300200000000088
:1001D000B051020808B5034B1BB103490348AFF304
:1001E000008008BD0000000084030020B051020818
:1001F00001F0FF01102A2BDB10F0070F08D010F8D8
:10020000013B013A8B422DD010F0070F42B3F6D1DB
:10021000F0B441EA012141EA014122F007047FF0F4
:1002200000070023F0E80256083C85EA010586EA4B
:10023000010685FA47F5A3FA87F586FA47F6A5FA87
:1002400087F68EB9EED1F0BC01F0FF0102F0070293
:1002500032B110F8013B013A83EA010313B1F8D13E
:100260000020704701387047002D06BF354603381F
:10027000073815F0010F07D1013015F4807F02BF58
:10028000013015F4C03F0130F0BC0138704700BFA9
:1002900053B94AB9002908BF00281CBF4FF0FF31ED
:1002A0004FF0FF3000F088B9ADF1080C6DE904CED5
:1002B00000F006F8DDF804E0DDE9022304B0704741
:1002C0002DE9F047089D8E4604468846002B4AD10A
:1002D0008A42174662D9B2FA82F64EB1C6F12003BD
:1002E00001FA06F820FA03F3B74043EA0808B440DD
:1002F0004FEA174E1FFA87FCB8FBFEF1230C0EFBEA
:10030000118843EA084301FB0CF29A4209D9FB1811
:1003100001F1FF3080F0EA809A4240F2E780023932
:100320003B449A1AA3B2B2FBFEF00EFB102243EA42
:10033000024300FB0CFC9C4509D9FB1800F1FF327D
:1003400080F0D6809C4540F2D3803B44023840EA9E
:100350000140A3EB0C0300211DB1F3400022C5E9CD
:100360000032BDE8F0878B4205D90DB1C5E9000127
:1003700000210846F5E7B3FA83F1002946D1734519
:1003800002D3824200F20581841A6EEB030201203F
:100390009046002DE5D0C5E90048E2E7002A00F0CC
:1003A0009080B2FA82F6002E40F0A4808A1A030CE4
:1003B0004FEA174E80B2BCB20121B2FBFEFC0EFB2D
:1003C0001C2243EA024304FB0CF29A4207D9FB18B1
:1003D0000CF1FF3802D29A4200F2E080C4469B1A28
:1003E000B3FBFEF20EFB123340EA034302FB04F4BC
:1003F0009C4207D9FB1802F1FF3002D29C4200F266
:10040000CA8002461B1B42EA0C40A5E7C1F1200648
:100410008B4022FA06F71F430EFA01F420FA06F386
:100420002EFA06FE4FEA1749234300FA01F81FFA95
:1004300087FCBEFBF9F01C0C09FB10EE44EA0E44ED
:1004400000FB0CFEA64502FA01F209D93C1900F1A5
:10045000FF3A80F09C80A64540F2998002383C44E7
:10046000A4EB0E041FFA83FEB4FBF9F309FB13445B
:100470004EEA044403FB0CFCA44508D93C1903F1E3
:10048000FF3E80F08280A4457FD9023B3C4443EA92
:100490000040A4EB0C04A0FB02EC64457346E1466B
:1004A00062D35FD05DB1B8EB030264EB090404FAD8
:1004B00006F622FA01F31E43CC40C5E90064002190
:1004C0004FE7B1FBF2FC010C41EA0E4180B240EA79
:1004D00001423B4638463C46B846BE462026B1FB64
:1004E000F7F1A2EB080241EA0C4166E7014618E782
:1004F00010462CE7C6F120022EFA02F3B740B140B5
:1005000020FA02F24FEA174E0A43B3FBFEF8BCB2E0
:100510000EFB1833110C41EA034108FB04F9B0400B
:1005200089454FEA104380B23ED9791808F1FF3C63
:1005300001D289451FD8A1EB0901B1FBFEF909FBE6
:1005400004F80EFB191192B242EA0142424529D247
:10055000BA1809F1FF31C4D24245C2D2A9F1020151
:100560003A44BEE7F0459DD2BEEB02036CEB070CAC
:100570000138E14696E7A7EB09094944A8F1020CC6
:10058000B1FBFEF909FB04F8DBE773467FE7504651
:1005900066E70846FDE63B44023A33E7ACF1020C5D
:1005A0003B441CE749469CE7A1EB0901C446B1FB6B
:1005B000FEF909FB04F8C4E7704700BFDFF834D048
:1005C000002103E00C4B5B58435004310B480C4BAB
:1005D00042189A42F6D30B4A02E0002342F8043B49
:1005E000094B9A42F9D304F0F9FD24F027F801F001
:1005F00001F9704700000320E4970C080000002078
:100600007001002080030020AC440120FEE7704709
:1006100008B500F0CBFDBDE8084000F04FBD00F08C
:10062000C7BD704710B50421044622F00CFE2046D9
:1006300010BD000038B50C4B0C4C18800C4B8220C0
:1006400019806368984740F6110398420AD1094D12
:1006500023682C60822098472B688220DB689847AB
:10066000002038BD0120FCE7A60300205C0000202C
:10067000A4030020A80300204FF4A071F020FFF78E
:10068000D9BF0000F7B5394D2B6804461B6982209D
:100690009847208000284ED02B680DF106025B6938
:1006A00001A982209847324B1B78002B4BD0BDF814
:1006B000062040F674639A423FD9ADF80630BDF883
:1006C00006209B1A9BB20A2B42D90B22B3FBF2F3F2
:1006D000284A1288934201D9013A93B2BDF8042006
:1006E000254840F6B8318A4234D8C2F571620E32DC
:1006F000016892B20F25B2FBF5F2204D2D88AA4277
:1007000084BF05F1FF35AAB28A4215468EB22AD9B6
:10071000921B91B21A4E3768BB42BAB28CBF9A1A7A
:10072000D21A92B211440529C4BF05603360036830
:1007300063803368A38003B0F0BDB32A9CBFB422AA
:10074000ADF80620BBE7BDF80630A3F5B473B9E7F2
:100750000023C3E7C2F56D62083292B20E2A016827
:10076000C8D800252A46891A89B2D3E7A8030020F1
:10077000F0200020A4030020A0030020A6030020F6
:100780009C03002037B568460D461446FFF77AFFF4
:10079000BDF8000030B1BDF802302B60BDF8043068
:1007A0002360012003B030BD032821D8DFE800F02A
:1007B000020B12190F4B1A68B2FA82F25209042185
:1007C0000D4805F0D1B90B4B5A68B2FA82F25209C2
:1007D0000821F5E7074B9A68B2FA82F25209102114
:1007E000EEE7044BDA68B2FA82F252092021E7E719
:1007F000704700BFAC03002000100240032821D83E
:10080000DFE800F0020B12190F4B1A68003A18BF0C
:10081000012204210D4805F0A7B90B4B5A68003A94
:1008200018BF01220821F5E7074B9A68003A18BF64
:1008300001221021EEE7044BDA68003A18BF0122CA
:100840002021E7E7704700BFAC0300200010024002
:1008500003280DD8DFE800F00206080A0421054845
:1008600005F087B90821FAE71021F8E72021F6E71B
:10087000704700BF0010024008B5032811D8DFE818
:1008800000F0020A0C0E0421074805F067F9431E28
:100890005842584108BD0821F6E71021F4E720210D
:1008A000F2E70020F3E700BF0010024070B5084DEA
:1008B00000240126E0B2FFF7DFFF18B12B68012BFF
:1008C00018BF2E600134052C05F10405F2D170BD6E
:1008D000AC030020012380F87C1080F87D30704745
:1008E0007047002070470000034B8164003918BF37
:1008F00001211970704700BF673701207047002041
:100900007047C36B0BB10846184770474FF6FF702E
:100910007047406803689B69184770477047704785
:100920007047704710B5044600F05AFD236803492C
:10093000D3F890302046BDE810401847000000D0A2
:1009400008B503680446D3F88430984723682046E6
:10095000DB6F984700F008F9236820465B6F9847E3
:10096000292001F06DFA00F0FFF8236820465B6F44
:100970009847F8E710B504460AF0BCFB2368204608
:10098000D3F8BC30BDE81040184700F00DBD00F0B2
:1009900011BD00F043BD00F0E3BC00F053BD00F01A
:1009A0005BBD00F0E7BC09F098BD10B58821044696
:1009B00022F049FC204610BD10B590F8381090F890
:1009C0007C400C4B8C421A7809D03AB90A4A0B4940
:1009D0001488088810800C8001221A7010BD002A2B
:1009E000FCD0054A05491488088810800C80002234
:1009F000F3E700BF66370120703701206E37012012
:100A000008B5094B1B888B4203D8084B1B889342BF
:100A100005D9074B074A0848A52123F033FB074BAC
:100A20001980074B1A8008BD703701206E370120EE
:100A30002052020883520208C65202086C37012075
:100A40006A3701202DE9F0410D460446194635B9B3
:100A5000154B164A164840F2013123F013FBC0E94A
:100A600010520368134ED3F89030003A18BF012299
:100A700032709847E569A5B12B681F68337873B168
:100A8000236820465B6B9847236C834207D1616CD7
:100A9000094B28461A883B46BDE8F0411847216CAF
:100AA000F6E7BDE8F08100BF0B530208435302088C
:100AB000C6520208683701206C370120034690F8BF
:100AC0007E0018B1586803681B681847704700001B
:100AD000012108B50022084607F0FAF80A4B186011
:100AE00028B90A4B0A4A28210A4823F0CBFA0022E7
:100AF0000421012007F094F9074B186018B9074B3F
:100B0000034A2C21F0E708BDC003002091530208DE
:100B1000DA53020809540208BC030020705402088A
:100B2000024B4FF0FF31186807F01CB9C0030020DA
:100B3000014B186807F042B9C0030020024B0021A6
:100B4000186807F00FB900BFC0030020FFF7F0BF1F
:100B500003480449006800231A4607F09CB900BF07
:100B6000BC0300200400002013B5084C00231A46E3
:100B700001A9206807F0C0F920684FF0FF33002278
:100B800001A907F0B9F902B010BD00BFBC030020F5
:100B900003685B6C18470120704703689B6A18471D
:100BA000FEE740F2EF307047054B0360054B4FF016
:100BB0008062C3F88820BFF34F8FBFF36F8F7047F9
:100BC000E460020800E100E010B504464FF45A6109
:100BD000FFF7EAFF204622F036FB204610BD00005A
:100BE00082B0002301930E4B1A6B42F400021A6389
:100BF0001A6B02F400020192019A1A6942F400028F
:100C00001A611A6922F400021A61064B064A5A61F7
:100C1000064A1A61064B4FF080629A6002B0704734
:100C200000380240A8220020A10B00086D0E000829
:100C300000E100E008B50A2809D8DFE800F0061056
:100C40000E080808081010101000022008BD054BFF
:100C5000054A0648912123F015FA0020F6E7012005
:100C6000F4E700BFB2540208CD5402081855020838
:100C700038B50C46887FFFF7DDFFA58AE28A114B65
:100C80002169586342EA05425A64628BD963521B58
:100C90001A642568082D0ED19A611A615862207F66
:100CA000094A42EA0062DA61E2681A62074A596157
:100CB000D9601A6038BD0022D8611A61E2689A636F
:100CC000034AF6E700B002400900010001230200D8
:100CD0000123030008B50B280BD8DFE800F006124B
:100CE000100A0A0A0A0808080808022008BD052098
:100CF000FCE7054B054A0648702123F0C3F90020A4
:100D0000F4E70120F2E700BFB25402087D55020863
:100D1000185502082DE9F04191F81D800C46404617
:100D2000FFF7D8FFA77F05463846FFF7D3FF0646F3
:100D30003846FFF77FFFA18A628B444B521A1A6430
:100D40009A61228B521A1A61E28A586342EA01427E
:100D50005A6421696268D963DA602068802828D0E3
:100D6000227F0FD8202867D0402865D004281AD0C9
:100D7000364B45EA026545F40035B845DD6161D082
:100D8000334A44E0B0F5807F04D0B0F5007FEFD166
:100D9000304800E0304840EA0262DA61E2681A62F4
:100DA0005E62596132E045EA026242F40032DA6181
:100DB000F6E7A068021DDA62227F45EA026545F483
:100DC0000035DD615E625961017841B1012921D0B0
:100DD000224B234A234840F21B1123F053F9DA69CE
:100DE000418822F47F42013922F0100242EA0122B6
:100DF000DA610121154BDA6942F02002DA61DA6921
:100E00009206FCD410229A600029B9D0164A1A60C2
:100E1000BDE8F081B2F1FF01DA69408822F47F4237
:100E200000F1FF3022F0100242EA002242F01002EC
:100E300018BF0121DA61DDE745EA0262034B42F4A3
:100E40000032B4E742F20132E1E700BF00B00240F5
:100E500001230100090002000A000200C755020830
:100E6000E15502081855020801230200024B1B68D5
:100E7000586803685B6918477437012070B50446E9
:100E800025460A4B0C30002660602672667245F8D3
:100E9000203B602229460AF097FA04F55A63EE6077
:100EA00024359D42FBD1204670BD00BFE46002089E
:100EB000034B1A68D207FCD423229A60704700BF04
:100EC00000B002407047000030B50F4C2568ED07B8
:100ED000FCD423250904A56041F001010225FF2B64
:100EE00065636164E0630AD00849656241EA0363AF
:100EF000E361074B22626061E060236030BDE56121
:100F0000039BA363034BF8E700B002400900010014
:100F1000010002000100030030B50E4C2568ED070A
:100F2000FCD423251204A56042F001020225FF2B08
:100F300065636264E063E16008D01B0643F002135E
:100F4000E361054B65626061236030BD034BE36183
:100F50000123F9E700B0024001000200020002FF95
:100F600030B50B4C2568ED07FCD4232512041B0675
:100F7000A56043F40033022542F001026563626418
:100F8000E063E160E361034B65626061236030BD53
:100F900000B002400100020001207047402070476D
:100FA00000EB81100830704700EB8110083070476B
:100FB0000120704740F6A430704740F6A43303FB8D
:100FC00001000830704740F6A43303FB01000830ED
:100FD0007047012070471020704700EB0110083067
:100FE000704700EB011008307047084601F0EEBC76
:100FF00010B5034B0360044608F0C1FF204610BD46
:101000009C61020810B50446FFF7F2FF2046482114
:1010100022F019F9204610BD10B5034B03600446B9
:1010200008F0ADFF204610BD6861020810B5044607
:10103000FFF7F2FF204640F6AC3122F004F92046DB
:1010400010BD000010B5034B0360044608F097FF85
:10105000204610BD3461020810B50446FFF7F2FFC8
:101060002046182122F0EFF8204610BD10B5084B9D
:101070000360044600F6D830FFF7BAFF04F12C00F5
:10108000FFF7CAFF04F11400FFF7DCFF204610BD94
:10109000D061020808B50248FFF7E8FF08BD00BFAD
:1010A000A012002010B50446FFF7E0FF20464FF4E1
:1010B000586122F0C8F8204610BD00002DE9F34128
:1010C00001F08CFA054601F08DFA00240146234612
:1010D00028462246009413F053F8274B274A1A60FB
:1010E000204602F0E9FB264D264B274A27489A6006
:1010F00012F0ACFF2B68BFF35B8FDB0735D42846BB
:1011000022F0A3F888B3224C224B236004F6244635
:1011100004F1140004F12C0804F6D8376060C4F818
:101120000880E760266108F02BFF1B4B6361404697
:1011300008F026FF194BE362384608F021FF184BF0
:10114000C4F8D83B04F5426003F016F9224604F5D2
:101150004261304602F02AFC304601F037FC11486B
:1011600022F0AEFF284622F07CF80F4802B0BDE81E
:10117000F041FFF7D7BB00BFD03701204C0400205F
:101180009C1200206C040020500400200800002065
:10119000A0120020D06102083461020868610208D0
:1011A0009C61020895100008C403002070470000ED
:1011B0000148FFF7C5BB00BFC403002070B5274E30
:1011C000274C284D284B23603046FFF757FE284612
:1011D00018F05AFA254810F053FD254B2548DC60DD
:1011E00000224FF48071C3E9131223491A63C3E943
:1011F0001B1222499A86C3E91F012149C3F88410B2
:101200002049214883F85C20C3E90422C3E906226F
:10121000C3E90822C3E90A22C3E90F22C3E9112264
:10122000C3E91522C3E918229A6683F874209A67E5
:10123000C3E901650B60F021018014480180144866
:101240004FF4A07101801348018013490A700122F4
:1012500083F83820114A1A6070BD00BFF8040020DE
:10126000981200206C040020105202085004002044
:10127000C40300200000010101000001000450002F
:101280001A00140074370120703701206C370120D8
:101290006E3701206A37012066370120F85F0208A7
:1012A0000148FFF781BC00BFF80400200020704710
:1012B00081807047C18070470181704741817047CC
:1012C0007047704770477047704710B4C488036810
:1012D000121B84885B6D091B12B25DF8044B09B2C6
:1012E00018474FF6FF7383814FF0FF330362136893
:1012F000C36110607047002070478B888380012095
:101300007047704780F82610704790F826007047A5
:1013100010B50022B1F90840B1F90A1002804280EC
:101320008480C18010BD0022028042808280C28001
:1013300070470177704780ED080A704780F82410E5
:10134000704780F82510704701207047983070472B
:101350008C3070478430704770477047704700008A
:10136000034B902283F85A2383F85823704700BF19
:1013700000E100E0094A0A49D3680A48C3F30A03B6
:10138000013B9BB20B801169C1F30A010139018055
:101390001364536B43F001035363704700680140CB
:1013A0002220002020200020014BD3F8AC00704701
:1013B00000680140024B0122C3F8AC105A6270472A
:1013C0000068014010B52C21044621F03CFF204666
:1013D00010BD10B5BC21044621F035FF204610BDDC
:1013E00070B5044609F0CFF823689D6E0FF0DEF962
:1013F00001462046A8472368054AD3F88C5020466A
:10140000AC460023BDE87040A2F51631604700BF2E
:1014100000B004D009F09EB809F0A8B809F063B88C
:1014200009F0CFB990F8252012B103685B6918471D
:10143000704790F825201AB190F8242002B1186066
:1014400070470000034B4FF080629A604FF080724B
:101450009A60704700E100E0084B4FF08062C3F8EB
:101460008820BFF34F8FBFF36F8F4FF08072C3F8A8
:101470008820BFF34F8FBFF36F8F704700E100E00C
:1014800070B50023124E8380124B0360336893F8CB
:101490005C2005460AB1186D00B9986803681B6B9B
:1014A00098473368B0FA80F4186D640930B1036866
:1014B0001B6B9847002808BF44F001042CB9064B69
:1014C000064A07482C2122F0DDFD284670BD00BFEA
:1014D00074370120E46102081F5602087D56020895
:1014E000B656020870B5254E3568BFF35B8F15F010
:1014F000010540D1304621F0A8FE00283BD0204C09
:10150000204B256104F13400C4E90035C4E90255DB
:10151000E584A562A58510F09AFE04F158000BF051
:1015200011FC194BA3652046184B40F8843BFFF78C
:10153000A7FF174BC4F884302433C4F88C304FF421
:10154000C803C4E928350023C4F8AC30C4F8B0306F
:10155000C4F8B430C4F8B8300E480F4BC4F89050FB
:10156000C4F89C50C4F8A850C4F8983022F0A8FDE4
:10157000304621F076FE024870BD00BF24200020D6
:1015800028200020D86A0208046202087C6202084F
:101590008C6A02085D1300086C6A020838B5184CA2
:1015A00023685BB3174B184A1B6C11888B4216D10A
:1015B000164B198805F0C2F8236893F86E200025B1
:1015C000013283F86E2083F88050FFF7C1FA20685B
:1015D00009F090FD2846BDE83840FFF7E5B805F072
:1015E000ADF82468236820461B6A9847012384F8D5
:1015F00080300020BDE83840FFF700B938BD00BF9B
:1016000074370120006801402220002020200020A3
:1016100007B5064BADF806001B68054801220DF121
:10162000060105F077FE03B05DF804FB0C00002016
:101630004421002070B50A4C10260025204603F0F6
:10164000C1FE0A21204603F056FF204603F0A6FF04
:101650000544204603F034FF013EEFD1280970BD58
:101660003823002070B50A4C10260025204603F0D0
:10167000A9FE0A21204603F03EFF204603F08EFF1C
:101680000544204603F01CFF013EEFD1280970BD40
:10169000F02200202DE9F341294E2A4FDFF8B480D3
:1016A000FFF7C8FF0546FFF7DDFF356002463860EB
:1016B00004462946404622F0A9FE072D22481AD9A1
:1016C00052238DF80730006800231A460DF10701F8
:1016D00006F0E1FB072C1AD91C4855238DF807307A
:1016E000006800231A460DF1070106F0D4FB6420C0
:1016F00006F0E2FAD4E7032D94BF4C234E238DF875
:101700000730002300681A460DF10701E0E7042CBA
:101710000F4C08D844238DF80730002320681A4660
:101720000DF10701E1E74E2308488DF8073000234B
:101730001A460DF10701006806F0ADFBEDE700BFAA
:10174000E8200020E420002004210020FC200020CC
:10175000F82000201857020830B595B0102200215B
:101760000AA822F0A8FE0021142203A822F0A3FE5A
:1017700000241E4B01941A6C42F080521A641B6CB8
:1017800003F080530193019B194B02941A6842F4B1
:1017900040421A601B6803F440430293029B0122FB
:1017A0004FF48033CDE9082302254FF480034FF432
:1017B000B472CDE90E5308A80823CDE91032CDE963
:1017C000125305F013F804F0D7FF0F23CDE90335CA
:1017D0004FF4A0514FF48053CDE9061303A805211F
:1017E000059405F0DFF915B030BD00BF00380240A8
:1017F000007000402DE980489BB003F0FDFCFFF72E
:10180000ABFF142200210DA822F055FE0024C94B85
:1018100000941A6BC84842F010021A631A6B02F067
:1018200010020092009A01941A6B42F020021A638F
:101830001A6B02F020020192019A02941A6B42F094
:1018400080021A631A6B02F080020292029A0394D9
:101850001A6B42F004021A631A6B02F0040203923C
:10186000039A04941A6B42F001021A631A6B02F095
:1018700001020492049A05941A6B42F002021A6360
:101880001A6B02F002020592059A06941A6B42F056
:1018900040021A631A6B02F040020692069A0794FD
:1018A0001A6B42F008021A631B6B03F0080322460E
:1018B00007933C21079B04F057F9A048012202211D
:1018C00004F052F922469D48042104F04DF92246C5
:1018D0009B484FF4405104F047F9224699484FF491
:1018E000005104F041F901263C23032592480F944E
:1018F0000DA90227CDE90D36109504F04BF88F485D
:101900000DA9CDE90D764FF00408CDE90F4404F0A0
:1019100041F88A480DA9CDE90D86CDE90F4704F0BD
:1019200039F84FF4405386480DA9CDE90D36CDE97D
:101930000F4704F02FF882480F940DA9CDE90D85CB
:1019400004F028F84FF400537E480DA9CDE90D3678
:10195000CDE90F4404F01EF80DA906237A480F9430
:10196000CDE90D3504F016F87848794B794D0360D0
:1019700003F006FFDFF8FCC1774B2C62C5E900C31A
:1019800028464FF48043C5E90434C5E90244C5E95B
:10199000064404F0F7FA1021284604F03BFD2146E6
:1019A000284604F056FD6D4DDFF8CCE1AC624FF4F3
:1019B0008273C5E900E34FF400781823C5E9068374
:1019C00028460A23C5E90244C5E90444C5E9084498
:1019D000EB6205F043FC8F232246394657488DF8C9
:1019E00024308DF8344004F0BFF832464FF47A7357
:1019F00009A9284605F08EFC4FF47A7332460DA9EA
:101A0000284605F033FE324639464C4804F0ACF81F
:101A10009DF83430D32B04BF514B1E70514E524BA6
:101A20000125C6E900354FF0100940230024C6E91E
:101A300004934FF4C073C6E906344FF40063C6E95B
:101A400008344FF400534FF002084FF0040A4FF0EF
:101A5000030BB3620DA9072330460827CDE90FA376
:101A6000CDE90D83C6E9024ACDE911B8CDF84C8025
:101A700005F0D8FA4FF6FF7209A93046CDE90A758C
:101A8000089409950C9405F0EDFA284603F0E0FB64
:101A90004FF6FF7209A93046CDE90987CDE90B540D
:101AA00005F0E0FA4FF6FF7209A93046CDE909B713
:101AB000CDE90BA405F0D6FA4FF40C730893089BFC
:101AC0000C934FF6FF7209A93046CDE909A70B9593
:101AD00005F0C8FA40F26A51304605F0E1FA3422C6
:101AE00021460DEB020022F0E6FC204E204B346133
:101AF000C6E900340923C6E905351D23C6E9073BBD
:101B000040F20D1240F24313C6E9092340F21711C7
:101B100040F247133046C6E90B13C6E90244B486C7
:101B200086F8364004F028FDFF21F022CDE912149A
:101B300024E000BF003802400010024000080240CC
:101B4000000C02400018024000000240E822002081
:101B50000030024054220020A086010044210020D1
:101B6000F020002010210020400100A0AC21002026
:101B700000680140005C0040005001404FF480606C
:101B800005214FF4A073CDE91401CDE90E240DA970
:101B9000CDE9164230462246524E1893CDE9103810
:101BA0000D94ADF864408DF8664004F099FD4E4BFD
:101BB00033601B68DFF894A1984733684B4EDB68AD
:101BC00098474B4B3046C6E90034C6E90284C6E963
:101BD0000A48C6E90C4403F0E3FD2946304603F009
:101BE00095FE444E4A4621460DA822F064FC424B25
:101BF000B4604FF4803B3046C6E9003B3461347634
:101C000086F82040F462C6F828A0F460F56186F8F2
:101C10003040756103F030FB0DA93046CDE90D551C
:101C2000364E0F9403F0BEFC4A4621460DA822F022
:101C300042FC334BB4603046C6E9003BC6E90AA417
:101C40003461347686F82040F460F56186F83040DF
:101C5000756103F011FB0DA93046CDE90D850F9498
:101C600003F0A0FC2748284B036005F08FF9FEF72E
:101C7000CFFCFEF7CCFC05F097FF244A29463846F6
:101C800006F0CEF8224B234A18602946384606F063
:101C9000C7F8214B214A18602946384606F0C0F89B
:101CA0001F4B204A18602946384606F0B9F81E4BEB
:101CB0001E4A18602946384606F0B2F81C4B1D4AE9
:101CC000186021461C4805F09BFF1C4B1C4A1860FD
:101CD00021461C4805F094FF1B4B186005F076FF69
:101CE000FEE700BFEC20002024000020A8220020F6
:101CF00000B002403823002000200140F0220020E4
:101D0000002101409C2100200008065020630208A9
:101D1000042100200863020800210020F06202086C
:101D2000FC200020D8620208F8200020C0620208CF
:101D3000F42000205C630208951600080C210020A6
:101D4000386302081F060008082100200100000F68
:101D5000704770477FB5094B8DF817201B680293B9
:101D60000DF117020123009201930A46014604482F
:101D700004F0B0F907B05DF804FB00BF10000020CC
:101D8000542200207FB500238DF81730084B1B68C4
:101D900002930A4601230DF11701009101930146B8
:101DA000044804F027FA9DF8170007B05DF804FB1B
:101DB00010000020542200201FB5084C2468009217
:101DC000CDE901340A4601230146054804F012FA20
:101DD000003818BF012004B010BD00BF1000002063
:101DE0005422002003F034BA10B5064C00222046DD
:101DF000042103F0B9FE20460122BDE81040042171
:101E000003F0B2BE0008024038B50B4D0446012273
:101E10000A484FF4005103F0A7FE0022042128468F
:101E200003F0A2FE2046FFF7F3FB28460122BDE89F
:101E30003840042103F098BE00080240000C024024
:101E400038B50B4D044600220A484FF4005103F008
:101E50008BFE00220421284603F086FE2046FFF771
:101E6000D7FB28460122BDE83840042103F07CBEA0
:101E700000080240000C0240F7B5144E144F05460E
:101E80000C4630460022042103F06EFE00224FF47F
:101E90000051384603F068FE2846FFF7B9FB0D4BAA
:101EA0000D481B68224601A905F0E0FB38460122D7
:101EB0004FF40051019C03F057FE304601220421EB
:101EC00003F052FE204603B0F0BD00BF0008024000
:101ED000000C02400C0000204421002003F0B8B99F
:101EE0000268034B9A4201D103F0A0B9704700BFCA
:101EF000001000407047000082B00E4B002200929C
:101F0000596C41F480415964596C01F4804100914D
:101F100000990192196C41F0805119641B6C03F017
:101F200080530193019B0F216FF0010002B003F079
:101F3000E7BB00BF0038024010B514228AB0044647
:101F400000210DEB020022F0B6FA23681E4A9342EC
:101F50001FD11E4B002101915A6C42F480725A64C9
:101F60005A6C02F480720192019A02911A6B42F04B
:101F700001021A631B6B03F001030293029B02230D
:101F800005931348032305A9069303F003FD0AB044
:101F900010BD104A9342FAD10C4B002103915A6CA8
:101FA00042F400725A645A6C02F400720392039A6B
:101FB00004911A6B42F001021A631B6B03F00103D8
:101FC0000493049B0423DBE7002001400038024017
:101FD00000000240002101400268094B9A4282B091
:101FE0000BD100230193074B1A6B42F480521A6302
:101FF0001B6B03F480530193019B02B0704700BF39
:10200000003002400038024007B50F4B02689A4288
:1020100016D10022A3F5F0430192196B41F400019F
:1020200019631B6B03F40003019305215A20019BE4
:1020300003F066FB5A2003B05DF804EB03F092BB9B
:1020400003B05DF804FB00BF00B002402DE9F0438F
:10205000044689B01422002103A822F02CFA226839
:10206000244B9A4243D1244C244800250095236BED
:1020700043F004032363236B03F004030093009BEA
:102080000195236B43F001032363236B03F00103EA
:102090000193019B4FF012094FF400734FF00108B8
:1020A0000327042603A9CDE90339CDE9058707965F
:1020B00003F070FC4FF480731148079603A9CDE933
:1020C0000339CDE9058703F065FC0295236C43F4E1
:1020D00000032364236C03F400030293029B236A2E
:1020E00043F400032362236A23F40003236209B04C
:1020F000BDE8F083005C0040003802400008024068
:1021000000000240F0B599B004461422002107A84F
:1021100022F0D1F930220DEB0200002122F0CBF9A0
:1021200022685E4B9A4240F0B78008230C93C0238C
:102130001093042312930CA84FF40033159304F06A
:10214000F9FD08B1FFF7D6FE554B56480024009420
:102150005A6C42F080625A645A6C02F080620092BB
:10216000009A01941A6B42F020021A631A6B02F073
:1021700020020192019A02941A6B42F001021A6342
:102180001A6B02F001020292029A03941A6B42F057
:1021900002021A631A6B02F002020392039A049479
:1021A0001A6B42F040021A631A6B02F0400204926A
:1021B000049A05941A6B42F004021A631A6B02F037
:1021C00004020592059A06941A6B42F008021A63FB
:1021D0001B6B03F00803069302250E26069B0B9645
:1021E0004FF4806307A9CDE90735CDE9094503F030
:1021F000D1FB41F658032C480B9607A9CDE90735CA
:102200000927CDE9094503F0C5FB032327480B97B0
:1022100007A9CDE90735CDE9094503F0BBFB4FF42C
:10222000706322480B9607A9CDE90735CDE909452A
:1022300003F0B0FB4FF40C631D480B9607A9CDE9E2
:102240000735CDE9094503F0A5FBC02319480B96D6
:1022500007A9CDE90735CDE9094503F09BFB082324
:1022600015480B9607A9CDE90735CDE9094503F0D7
:1022700091FB4FF4A0530E480B9707A9CDE9073502
:10228000CDE9094503F086FB58202246052103F0DD
:1022900037FA582003F066FA19B0F0BD0068014023
:1022A00000380240001402400000024000040240D6
:1022B0000018024000080240000C02400268094B6E
:1022C0009A4282B00BD100230193074B5A6B42F024
:1022D00040025A635B6B03F040030193019B02B021
:1022E000704700BF000806500038024010B5044691
:1022F00088B01422002103A822F0DDF82268144BD4
:102300009A4223D103F56843002101915A6C114888
:1023100042F480125A645A6C02F480120192019ABB
:1023200002911A6B42F020021A631B6B03F0200328
:102330000293029B4FF4607202230321CDE9032331
:102340000523CDE9061303A903F024FB08B010BD53
:1023500000500140001402402DE9F04186B00023F6
:1023600003932B4B1C68002C4FD14FF00108C3F88E
:102370000080284B00949A6B274842EA08029A632F
:102380009B6B03EA08030093022703260C25009B9E
:1023900001A94FF63F03CDE90137CDE9046503F00C
:1023A000F9FA1E48059501A9CDE90187CDE9034653
:1023B00003F0F0FA48F233131948059501A9CDE965
:1023C0000137CDE9034603F0E5FA4FF6837315486C
:1023D000059501A9CDE90137CDE9034603F0DAFA05
:1023E0004CF203731048059501A9CDE90137CDE9F9
:1023F000034603F0CFFA60230C48059501A9CDE907
:102400000137CDE9034603F0C5FA06B0BDE8F08117
:1024100080230020003802400014024000080240DF
:102420000018024000100240000C0240000402406C
:1024300070B588B000230293204B1A6C42F0100252
:102440001A641B6C03F010030293054601A903A84C
:10245000029B04F051FC069B4BBB04F03DFC184E64
:10246000184B336040F2E733F360174BB0FBF3F3E4
:10247000013B7360304600233361B360B36105F004
:10248000BFFA044680B9304605F094F9044658B9BD
:10249000362003F067F90F2D0DD822462946362045
:1024A00003F02EF9094B1D60204608B070BD04F002
:1024B00013FC4000D3E70124F6E700BF00380240D8
:1024C000842300200010004040420F008C000020B8
:1024D0007047FEE7FEE7FEE7FEE77047014805F0BC
:1024E000A7B900BF84230020014804F09CB800BFB6
:1024F000AC210020014803F07FB900BFA8220020D2
:102500000120704708B522F093F8162303604FF0BE
:10251000FF3008BD08B522F08BF816230360FEE7F4
:1025200070B50D4614460E46731B9C4201DC2046D6
:1025300070BDAFF3008006F8010BF5E770B50D46EE
:1025400014460E46731B9C4201DC204670BD16F8F3
:10255000010BAFF30080F5E74FF0FF3070474FF409
:1025600000534B60002070470120704700207047E7
:102570000A4A116808B5034609B90949116010688B
:10258000694603448B4206D922F052F80C230360BB
:102590004FF0FF3008BD1360FCE700BFCC230020E4
:1025A000B0440120704710B50421044620F04BFED2
:1025B000204610BD012908B506D0022908D059B916
:1025C00001F0C6F9006808BD01F0C2F94068FAE7F9
:1025D00001F0BEF98068F6E70020F4E70048704794
:1025E000946302081420704713B5002451B10368A6
:1025F00001948DF8034001AA9C680DF10303A047E4
:1026000002B010BD0846FBE7C0897047008A7047DA
:10261000C088704780887047807A00F07F007047DC
:10262000807AC00970470020704700009FED010AC2
:10263000704700BF00000000806A7047704710B507
:102640000821044620F0FFFD204610BD704770476A
:1026500000F598730868496803C37047704770476E
:102660004160704770477047064BC0F84C310023FB
:10267000C0F8503100F5A273C0F84801C0F84031ED
:10268000704700BF0128000801230372704770479C
:10269000704710B4C26841685410034601EB6200F1
:1026A000D20748BF0A599B685DF8044B48BFD3580E
:1026B00018470346406830B19A681AB9D86800F0E4
:1026C000010070470120704710B50C21044620F02E
:1026D000BAFD204610BD10B51021044620F0B3FD10
:1026E000204610BD10B54FF4AE71044620F0ABFD8E
:1026F000204610BD10B54021044620F0A4FD204620
:1027000010BD10B50EF052F80368BDE81040DB6B49
:1027100018470000054B1B7801462BB1406818B1E3
:1027200003680C315B6E1847704700BF67370120A4
:10273000037A70B50546BBB940680368DB69984702
:1027400004463CB96868036805F10C011B6EBDE8DE
:1027500070401847A1886B8FC91A236820461B6BED
:1027600009B29847A469ECE770BD10B50446D0F8EB
:10277000400158B10368DB68984738B1D4F840018C
:1027800003689B6898470023C4F8403110BD70B5BA
:10279000044690F8390094F838300130C0B29842BD
:1027A00084F8390005D901232372002384F83930D5
:1027B00070BDB4F93A20002110F09BF9C30706D58B
:1027C00000284FF6FF73C8BF0123184400B2238AC4
:1027D000C01AA08760680368DB69984705462DB971
:1027E00060680368BDE870405B691847A988A38FDB
:1027F00019442B6828461B6B09B29847AD69EEE770
:102800002DE9F14FD0E9556A0746B06803681B6AA5
:102810009847B0F58E7F05D2444B454AA3214548E1
:1028200021F030FC706803681B6A98470F2803D8B2
:10283000414B3F4AA421F2E7F06803681B6A9847BE
:102840000B2803D83D4B3A4AA521E8E70DF0AEFF2F
:10285000DFF8F09004300DF0E9FFD9F8000010B176
:102860000368DB689847D9F8000010B103681B685B
:102870009847DFF8D480D8F8000010B103685B698E
:102880009847D7F83C0110B103685B689847D8F8BF
:10289000000010B103681B689847D7F83C0110B1DD
:1028A00003689B689847F068036800215B6A984753
:1028B0004FF0000B224BC0F804B0044680F808B07B
:1028C0000360B068036859465B6A9847054601F0A3
:1028D00047FD7068036859465B6A98472946064673
:1028E00001F01CFD331DC7F83C61C9F80040C8F871
:1028F0000050CAF800302B68C6F808A02846DB68EC
:10290000EE639847336830461B689847214628464F
:1029100010F0E9F8236820461B69984723685B6933
:10292000204601B0BDE8F04F184700BF6A570208C3
:10293000F8570208D058020817590208BA59020875
:10294000A8650208BC370120C0370120044B1B6872
:1029500093F85C200AB1186D00B99868704700BF01
:1029600074370120F8B5174604460E460EF030F8CD
:10297000124B1C60124B2360124B0025C4E95135E9
:10298000114BC4E953551868036801219B68C4E9D9
:102990004F55C4E955769847284600F08DFFFFF75C
:1029A000D5FF18F020FDFFF7D1FF18F097FDFFF7D6
:1029B000CDFF18F09FFD2046F8BD00BFC4370120B1
:1029C000546502083C65020874370120064BC0F8C4
:1029D0004C310023C0F8503100F5A273C0F8480113
:1029E000C0F84031704700BF01280008064BC0F80E
:1029F0004C310023C0F8503100F5A273C0F84801F3
:102A0000C0F84031704700BFDD2B0008064BC0F80E
:102A10004C310023C0F8503100F5A273C0F84801D2
:102A2000C0F84031704700BFA12A00082DE9F041ED
:102A300005460026164B4660067245F80C3B0446D8
:102A400028460F460AF018FA124B84F838701B78A3
:102A500084F83960A68723B9012323722046BDE894
:102A6000F0810D4B0D4FB3F90080E368B7F900100A
:102A70009B6B266128469847E3684146DB6B2846F6
:102A8000984728460AF074F93B885B426387E5E77C
:102A9000CC650208673701206E37012070370120AE
:102AA0002DE9F047D0E9556A0746B06803681B6A0C
:102AB000984740F6A333984205D8414B414AA32199
:102AC000414821F0DFFA706803681B6A98470F28B5
:102AD00003D83E4B3B4AA421F2E7F06803681B6A27
:102AE00098473F2803D83A4B364AA521E8E70DF02E
:102AF0005DFEDFF8E09004300DF098FED9F800009C
:102B000010B10368DB689847D9F8000010B103687A
:102B10001B689847DFF8C080D8F8000010B1036840
:102B20005B699847D7F83C0110B103685B68984728
:102B3000D8F8000010B103681B689847D7F83C012B
:102B400010B103689B689847F068036800215B6ACE
:102B5000984714210446FFF769FFB0680368002115
:102B60005B6A9847054600F0A5FF7068036800217E
:102B70005B6A98472946064600F030FF331DC7F8C8
:102B80003C61C9F80040C8F80050CAF800302B6812
:102B9000C6F808A02846DB68EE63984733683046DD
:102BA0001B689847214628460FF09DFF2368204662
:102BB0001B699847236820465B69BDE8F0471847C2
:102BC0006A5702085D5A0208D058020817590208CD
:102BD000BA590208BC370120C03701202DE9F0475F
:102BE000D0E9556A0746B06803681B6A9847B0F594
:102BF0008E7F05D2414B424AA321424821F042FA3E
:102C0000706803681B6A98470F2803D83E4B3C4AFC
:102C1000A421F2E7F06803681B6A98473F2803D8AD
:102C20003A4B374AA521E8E70DF0C0FDDFF8E09008
:102C300004300DF0FBFDD9F8000010B10368DB682B
:102C40009847D9F8000010B103681B689847DFF86F
:102C5000C480D8F8000010B103685B699847D7F8C2
:102C60003C0110B103685B689847D8F8000010B1C8
:102C700003681B689847D7F83C0110B103689B684C
:102C80009847F068036800215B6A9847142104465E
:102C9000FFF7CCFEB068036800215B6A98470546E1
:102CA00001F05EFB7068036800215B6A9847294663
:102CB000064601F033FB331DC7F83C61C9F80040FC
:102CC000C8F80050CAF800302B68C6F808A028469B
:102CD000DB68EE639847336830461B6898472146A7
:102CE00028460FF000FF236820461B699847236899
:102CF00020465B69BDE8F047184700BF6A570208E5
:102D0000485B0208D058020817590208BA5902084D
:102D1000BC370120C03701207047704770477047AB
:102D2000704730B5036885B06D460181D3F88430B3
:102D3000014604462846984795E807003C3484E855
:102D4000070005B030BD30B5036885B06D464181E0
:102D5000D3F88430014604462846984795E8070092
:102D60003C3484E8070005B030BD00220280428078
:102D70008280C280704780F83610704770B5036853
:102D800004461B6B154698472368294620465B6E10
:102D9000BDE87040184700207047806C704770474E
:102DA00070477047704730B4C26844685510034696
:102DB00004EB6200D20748BF62599B6830BC48BF31
:102DC000D35818470346406830B19A681AB9D86892
:102DD00000F0010070470120704710B54C210446F7
:102DE00020F031FA204610BD10B51021044620F025
:102DF0002AFA204610BD10B54FF44B71044620F05E
:102E000022FA204610BD08B5FEF70CFB08BD0000F5
:102E1000036870B55E6B124B1B6804468DB22BB90C
:102E2000104B114A6C21114821F02CF91049828D68
:102E30000988914203D80F4B0B4A6D21F3E713F831
:102E400012200D4B1B6853F8220003681B6B984738
:102E5000291A3346204609B2BDE87040184700BF22
:102E6000D4370120335C0208755C0208B05C0208AC
:102E7000C8370120F75C0208CC370120C4308842F3
:102E800008B505D10DF092FCBDE80840FFF7AEBDD6
:102E900008BD00224FF0FF31C0E900218260704779
:102EA00070B5036804461B6B15469847236829468E
:102EB00020465B6BBDE87040184770B504461D4660
:102EC000BDF91060FFF7ECFF2368294620469B6B95
:102ED0009847236831462046DB6BBDE870401847B1
:102EE0000022C0E90122C0E90322C0E90522C0E9AD
:102EF00007224FF480728284014A0260704700BF4B
:102F0000F065020838B5262204460D46002121F05E
:102F1000D2FA2046FFF7E4FF064B23602B88E384B8
:102F2000FF23204684F8283029460AF0DEFD20469B
:102F300038BD00BF806D0208F8B5194B018F1B88A2
:102F40008B4206462AD9174B1B682BB9164B174ADA
:102F500017486C2121F096F813F81120154B1B68C7
:102F600053F82250144B186800F0E2FC2B68074617
:102F70009B6B284698472B6804469B6C394628462D
:102F800098472B6814FB00F45B6A3946284698473B
:102F9000A4B223181BB2A6F84630F8BD0023FAE706
:102FA000C8370120D4370120335C0208755C020861
:102FB000B05C0208CC370120D037012010B52622A2
:102FC0000446002121F077FA2046FFF789FF0A4BDB
:102FD00023600A4BA3624FF6FF73A3854FF47F0271
:102FE0000023C4E90C3223874FF0FF32C4E91023D9
:102FF000E363204610BD00BF886C02082C65020800
:103000002DE9F04F044695B0A04600250FF0D0FB07
:10301000A54BE56348F8403B26222946404621F06F
:103020004AFA4046FFF75CFFA04B2364FF2384F875
:10303000663004F16C034FF6FF7604F1980A1846E7
:1030400012A9A56604F1C4090893ADF84860FFF71A
:1030500059FF12A95046ADF84860FFF753FF4846A4
:103060000AF0D0FE04F58673184603930AF0CAFEF0
:1030700004F5AA7312A918460993ADF84860FFF742
:1030800041FF04F5C07312A918460A93ADF84860D1
:10309000FFF738FF04F5D67312A918460B93ADF865
:1030A0004860FFF72FFF04F5EC731846804F069336
:1030B000FFF784FF04F50973C4F8D8711846C4F803
:1030C00020520793FFF77AFF04F51C73C4F82472AB
:1030D0001846C4F86C520493FFF770FF04F52E7382
:1030E00012A918460593ADF84860FFF70BFF714B26
:1030F000C4F8B832704BC4F8E452C4E9C7346F4B1B
:1031000084F8F0524FF0010B4FF0FF37C4E9C93596
:103110004FF4A0732A464046C4E9BA7B294600937F
:10312000F023261DFFF7C9FE4FF07F43A3664146FB
:10313000304606F038FF2A4608982946FFF7B0FEC9
:103140004FF002030898ADF8483012A90AF0CDFC00
:103150000899304606F027FF2A4650462946FFF7D1
:103160009FFE504612A9ADF848500AF0BEFC5146E9
:10317000304684F8BD5006F016FF4846BD22232194
:10318000FFF78EFE4FF0050A12AA4FF0040811A9AE
:103190004846ADF848A0ADF844800AF07EFB4846AA
:1031A000A4F8FCA0FFF7C8FE04F54773C4F8EC30A0
:1031B00049463046C4E9407706F0F5FE0398BD2243
:1031C0002321FFF76DFE12AA11A90398ADF848A0BC
:1031D000ADF844800AF061FB0398A4F844B1FFF70E
:1031E000ABFE03993046C4E9527706F0DCFE5A463E
:1031F0000998CC21FFF754FE4FF00F090998ADF85C
:10320000489012A90AF071FC0999304606F0CBFEED
:103210005A460A98A921FFF743FE0A98ADF848904C
:1032200012A90AF062FC0A99304606F0BCFE5A4622
:103230000B988621FFF734FE0B98ADF8489012A941
:103240000AF053FC0B99304606F0ADFE1D234246B2
:103250000698009307216023FFF72FFED4F8D8319A
:103260000699D3F88430C4F808720DF13009484645
:10327000A4F80C52984799E8070004F5057383E811
:1032800007000F4B1B6804F53D7A2BB90D4B0E4A16
:1032900060210E4820F0F6FE0D4B1B88022B1BD838
:1032A0000C4B094A6121F4E700670208186D020817
:1032B000586602080C6C0208E86602087D2E0008B9
:1032C000D4370120335C0208355D0208B05C020887
:1032D000C8370120F75C0208414B0221186800F052
:1032E00027FB404A03460A21504610F0A2FE0698EA
:1032F000C4F820A212A9DFF8F0A0ADF84C80CDF8F8
:1033000048A04FF022080AF06BFA0699304606F002
:103310004AFE0798CDF8008073222946F023FFF774
:10332000CCFDD4F824320799D3F88430C4F8547211
:103330004846A4F85852984799E8070004F51873CE
:1033400083E8070004F542730798C4F86C3212A9A9
:103350000323A4F80853ADF84C30CDF848A00AF088
:103360003FFA0799304606F01EFE0498CDF800801B
:10337000F02373222946FFF7A0FD0499C4F8A07238
:103380004846A4F8A45209F057FF99E8070004F54D
:103390002B7383E807000498CDF848A012A9ADF874
:1033A0004C500AF01DFA0499304606F0FCFD0598D1
:1033B0005A46D021FFF774FD0C2205980B2109F025
:1033C0003EFE0598594609F04CFE3046059984F8B2
:1033D000E05206F0E8FD204615B0BDE8F08F00BFD2
:1033E000D0370120805D02082C650208406A7047D2
:1033F000806A704770478A880B8810B5D20A4C885B
:10340000C1699BB251F8220043EA0443184410BD3D
:1034100010B50446BAB1107B68B1537BD27A1B0257
:1034200003F4E0631A43236A03EB82031A888A4297
:1034300002D193F9020010BD05D8013880B20433DF
:103440000028F3D1F7E70020F5E710B52C2104465A
:103450001FF0F9FE204610BD30B58BB00446BDF814
:1034600060500895BDF85C5007959DF85050069542
:103470009DF84C5005959DF8485004959DF8445092
:1034800003959DF8405002959DF83C500195BDF87C
:10349000385000950EF098FF064B2360159BE361B2
:1034A000169B2362199B63621A9BA36220460BB092
:1034B00030BD00BF3467020870477047704730B4B2
:1034C000C26844685510034604EB6200D20748BF47
:1034D00062599B6830BC48BFD358184703464068C0
:1034E00030B19A681AB9D86800F00100704701201D
:1034F000704710B5102104461FF0A5FE204610BDF0
:1035000010B54FF48E7104461FF09DFE204610BD8D
:10351000C430884208B505D10DF048F9BDE808402F
:10352000FFF774BA08BD00002DE9F34704460FF019
:103530003FF9484B2360484B0025C4E910354FF450
:10354000807304F16C09A4F86430FF2384F86630BA
:1035500004F198084FF6FF7601A9C4E91255C4E9B1
:103560001455C4E91655E5632566A5664846ADF8C9
:103570000460FFF7C7FC01A9ADF80460404604F100
:10358000C406FFF7BFFC30460AF03CFC334BC4E9ED
:103590004334334B04F1400A2A46C4E945352946F1
:1035A0005046FFF77DFC5046F021FDF785FE504662
:1035B0004FF4A071FDF782FE271D4FF07F43A366F5
:1035C0005146384606F0EFFC2A4629464846FFF7A2
:1035D00067FC012301A94846ADF804300AF085FADA
:1035E0004946384606F0DFFC1B2240461421FFF70F
:1035F00057FC132301A94046ADF804300AF075FAD0
:103600004146384606F0CFFC3046BB222321FFF767
:1036100047FC042301AA6946ADF800303046052373
:10362000ADF804300AF039F90623A4F8FC3030462E
:10363000FFF782FC4FF0FF33C4E9403304F5867393
:103640003846C4F8EC30314606F0ADFC204602B0F6
:10365000BDE8F087B4670208186D02089C6702088D
:10366000113500087047000030B5164D2C6814F075
:1036700001048FB0BFF35B8F20D128461FF0E5FD1A
:10368000E0B13F230993104B0893104B10491148A8
:103690000A940122CDE906430423CDE903320A232B
:1036A0000093CDE90B44CDE901440594FFF7D4FE26
:1036B000094820F005FD28461FF0D3FD05480FB04E
:1036C00030BD00BFD02300201C8602084C860208B3
:1036D00080840208D423002065360008704700006B
:1036E00030B5164D2C6814F001048FB0BFF35B8F1A
:1036F00021D128461FF0A9FDE8B13F230993104BC3
:103700000893104B104911480A94CDE90643012251
:103710000423CDE90332182300931B22CDE90B4487
:10372000CDE901440594FFF797FE094820F0C8FC55
:1037300028461FF096FD05480FB030BD002400203C
:103740002086020850860208908402080424002083
:10375000DD3600087047000030B5164D2C6814F0B7
:1037600001048FB0BFF35B8F20D128461FF06DFDA1
:10377000E0B13F230993104B0893104B10491148B7
:103780000A940122CDE906430423CDE9033228231C
:103790000093CDE90B44CDE901440594FFF75CFEAD
:1037A000094820F08DFC28461FF05BFD05480FB04E
:1037B00030BD00BF3024002048860208548602082D
:1037C0000C8602083424002055370008002070477A
:1037D000002070470EB403B503AB002153F8042B4F
:1037E00001930EF075F802B05DF804EB03B070477A
:1037F0000CB407B504AB53F8042B01930EF068F832
:1038000003B05DF804EB02B070470000436C10B5E4
:10381000044673B3038F2BB9184B194AC5211948B5
:1038200020F030FCC38E00EB43035B8C0BB30FF036
:103830009DFE238F012B03D8134B144ACB21EEE7B7
:10384000E28E531C9BB2092B194688BFA3F10A01D3
:1038500004EB410140F63F10498C814209D10A2B0B
:1038600004EB420228BF002304EB4303508C58842E
:1038700051842046BDE810400FF07BBD835D0208F7
:103880008C5D0208375E0208815E02088F5E0208C6
:103890000FF037BD10B586B002AC84E806001A46BA
:1038A0000AAB05930193099B00932146089B0CF0FA
:1038B000F2FA06B010BD000038B518BB124B134821
:1038C0001C681349B4B12268224402606268224431
:1038D0000A60A26814440F4B00221A8000F038F8E6
:1038E000054600F033F80C4B1C600C4B1D600C4B74
:1038F000188007E00B4B03600B4B0B600B4B1C68F5
:10390000002CE8D138BD00BF6C24002064240020C6
:103910006024002068240020D4370120CC37012007
:10392000C83701207486020858860208E06702083A
:10393000044B1B6853F82100034B1B6803EB40004A
:10394000704700BF602400206424002007207047D7
:10395000004870477024002010B5FFF7C1FE044CEA
:103960002060FFF7F9FE6060FFF77EFEA06010BDEB
:103970007024002010B5002404600C6014601C60EA
:1039800010BD704710B54FF4AE7104461FF05BFCDC
:10399000204610BD10B50446D0F8580100F0EFFCE9
:1039A0002046BDE810400CF0A3BF000010B504464F
:1039B000FEF7D8FF014B2360204610BDEC670208DC
:1039C000704704387047704710B5102104461FF047
:1039D0003AFC204610BDA0F10400F5E70022826009
:1039E000024A026018324260C160704740680208B3
:1039F00010B50D4C206818B104F046F9002323607F
:103A00000A4B01221A600A4A00231370094A1370F4
:103A1000094A1370094A1370094A93800323938556
:103A2000084BD36010BD00BF802400201C00002084
:103A30008D24002086240020852400207C24002062
:103A4000402900206400C800134B70B50446036091
:103A500040F64C3540F69416B54217D140F2DC766C
:103A6000635960191B682C3D9847B542F8D140F264
:103A7000CC75635960191B683C3D9847B5F5477F85
:103A8000F7D12046FFF78DF9204670BD63596019C4
:103A90001B6898472C3DDFE76868020810B50446AC
:103AA000FFF7D2FF204640F6A4311FF0CCFB2046A2
:103AB00010BD00002DE9F04F05468DB0FFF7A0FACC
:103AC00005F54B7A744B2B604FF6FF7769465046ED
:103AD000ADF80070FFF716FA05F55679DFF8C0B1BA
:103AE00005F608084C46002620466946ADF80070E9
:103AF000FFF708FA0123C4F800B0E662278667865C
:103B000084F8343084F8356084F8366084F837609F
:103B100084F838603C344445E6D105F51C6B2646F4
:103B20004FF6FF77304669462C36ADF80070FFF748
:103B3000E9F95E45F6D1D84605F678374FF6FF76B7
:103B40004046694608F12C08ADF80060FFF7DAF945
:103B5000B845F5D169464046ADF800604F4EFFF7D5
:103B6000D1F9684600F002FDBDF80430B380BDF91C
:103B70001C30039AB383089BF2603362049A099B5A
:103B800032617362059A0A9B72612F1D069AB362B5
:103B90006846BDF82C30B385B26100F0F9FC3846B8
:103BA00005F1C40106F076FA384605F5097106F00C
:103BB00071FA384605F5867106F06CFA384605F557
:103BC0001C7106F067FA002269464046ADF80020F5
:103BD00009F08BFF002211464046FFF761F90022F1
:103BE00085F89D2B3846414606F0DDF911236946DC
:103BF0005046ADF8003009F078FFB6F90E20B6F95E
:103C00000C105046FFF74CF93846514606F0CBF9F8
:103C1000072704F5DC762122304640F24111FFF7F8
:103C20003FF9D4F8B83130461B6EADF800706946E4
:103C300098472046212240F24111FFF731F92368CD
:103C400003261B6EADF80060204669462C34984769
:103C50005C45DED10024B4FBF6F303EB4303E31A27
:103C6000012B13D0022B14D00A220921484609F057
:103C7000E6F901344846142109F0F3F9142C09F14E
:103C80003C09E8D128460DB0BDE8F08F0C220B218D
:103C9000ECE70E220D21E9E76868020840290020C0
:103CA0000C6C02082DE9F041051D00F5EC78044686
:103CB0004146284604F5D67706F0ECF941462846F9
:103CC00006F071F93946284604F5C07606F0E2F9A7
:103CD0003946284606F067F93146284606F0DAF9F3
:103CE00004F5AA743146284606F05DF921462846B7
:103CF00006F0D0F92146284606F055F940460DF069
:103D00000FFF38460DF00CFF30460DF009FF20463E
:103D1000BDE8F0410DF004BF2DE9F04FC84E8DB065
:103D20000446306804F018F90546002D40F004827E
:103D30009DF80A70012F2BD1DFF8188398F8003016
:103D4000002B4AD1251D04F1C4063146284606F051
:103D50002AF9BC4BBC4A9B880A2104F5097904F571
:103D6000427010F066F94946284606F01CF93046C4
:103D70000DF0D6FE48460DF0D3FE28460DF0D0FEDD
:103D8000B24B88F800701F70B14B186803F07CFFCD
:103D90009DF80A30022B20D1AE4F3B78EBB9251DA0
:103DA00004F586763146284604F51C7806F0FBF8C3
:103DB0004146284606F0F7F830460DF0B1FE404681
:103DC0000DF0AEFE28460DF0ABFEA04A01231370A5
:103DD0003B709F4B186803F057FF9F4E00233068DD
:103DE0008DF80B3004F0B8F8054610B300233068A6
:103DF0001A460DF10B0104F07FF8013DF6D104F5F0
:103E00004B7630460DF08CFE9DF80B308D48522BD2
:103E100040F09B81B0F92810083000F039FC1223E3
:103E200003A93046ADF80C3009F05FFE30460DF0C6
:103E300077FE8A4DDFF80C822868894E04F08CF8F2
:103E4000A8B14FF0FF33286800220DF10B0104F0F8
:103E500053F89DF80B30552B40F08A8108F108008B
:103E6000B8F9281000F016FC306804F077F83068D4
:103E700004F072F8B0B14FF0FF33306800220DF15A
:103E80000B0104F039F89DF80B30442B40F0798198
:103E9000D8F828107348494209B200F0FBFB2868A3
:103EA00004F05CF8B8F90E20B8F90C106E4D04F56A
:103EB0004B70FDF70AFA04F6080904F5DC77A24610
:103EC0004E4604F1040BB5F91030022B00F061816D
:103ED000042B00F07581012B08D1DAF80838B5F908
:103EE00006209B6DB5F90410304698470AF12C0A5C
:103EF000BA4505F11C0506F12C06E4D15B4D04F52D
:103F00001C66A24604F1040BB5F91030022B00F038
:103F10006281042B00F07681012B08D1DAF8C039D8
:103F2000B5F906209B6DB5F90410304698470AF1A3
:103F30002C0ABA4505F11C0506F12C06E4D104F55E
:103F40009663CDE9004304F5567A494F554604F18E
:103F5000040BB7F91030022B00F05F81042B00F046
:103F60007F81012B09D1009BB7F90620D3F8583384
:103F7000B7F904109B6D28469847009B3C3300938B
:103F8000DDE900239A4207F1200705F13C05E0D165
:103F9000384AB8F92C3011788B4220D0DBB213703C
:103FA000502284F87C2184F8A82184F8D42153B1CC
:103FB000FF22012B84F87C2105D0022B84F8A82154
:103FC00018BF84F8D42104F5D6700DF0A9FD04F5CE
:103FD000C0700DF0A5FD04F5AA700DF0A1FDB8F8B4
:103FE0000430194A0A2104F53D7004F5EC7710F00D
:103FF00020F838460DF094FD94F83831002B00F08D
:104000009880134E306818B103F03EFE00233360F1
:10401000194B02221A60194A00231370184A1370B0
:104020000A4A13700B4A1370012384F89D3B04F66F
:1040300078300DF075FD642003F03EFE204621E04F
:10404000F420002040290020615F02088524002020
:10405000802400207C24002004210020FC2000205B
:10406000F8200020482900202828002010270020C0
:1040700090240020140000201C0000208D2400202B
:1040800086240020FFF70EFE00F056FD251D514648
:1040900028460AF13C0A05F0FDFFCA45F7D104F5B0
:1040A0001C684946284605F0F5FF09F5DC712846ED
:1040B00009F12C0905F0EEFFC145F2D104F586792E
:1040C00004F51C784946284605F0E4FF4146284699
:1040D00005F0E0FF48460DF023FD40460DF020FDC1
:1040E00028460DF01DFD04F5D6700DF019FD04F500
:1040F000C0700DF015FD04F5AA700DF011FD3846E5
:104100000DF00EFD00245F4B8DF80A402022214661
:1041100004A81C6020F0CFF95B4B03934FF480425E
:104120001823CDE90823594803AA214603F068FD66
:1041300030600DB0BDE8F08F002330681A460DF1F5
:104140000A0103F0D9FE013DEFE54E2B05D12946CA
:10415000083000F09DFA112362E64C2B7FF466AE26
:10416000816A494209B2083000F092FA102357E6FA
:104170004E2B7FF47CAE002108F1080000F08AFA93
:1041800075E64E2B7FF48EAE4148002100F082FA96
:1041900088E6DAF80838B5F906209B6DB5F9041001
:1041A000304698473146584605F0FDFEDAF80838A3
:1041B00030465B6998470121284600F0ADF995E645
:1041C000DAF8083830465B6998473146584605F0BA
:1041D00061FF0321F0E7DAF8C039B5F906209B6DDD
:1041E000B5F90410304698473146584605F0DBFED5
:1041F000DAF8C03930465B6998470121284600F05B
:104200008BF994E6DAF8C03930465B699847314655
:10421000584605F03FFF0321F0E7009BB7F9062061
:10422000D3F85833B7F904109B6D28469847009B84
:10423000D3F858335B6E1E4601231A4600212846E8
:10424000B0472946584605F0AEFE009BD3F85833D8
:1042500028465B6998470121384600F05DF98CE6F5
:10426000009BD3F8583328469B6E9847009BD3F8A1
:10427000583328465B6998472946584605F00AFF97
:104280000321E9E720000020645F02086948000874
:104290004829002010B5134C8AB0FEF783FD206832
:1042A00003F0F2FC104B186803F058FE20220021A6
:1042B00002A820F000F90D4B01934FF4804218231F
:1042C000CDE90623002101AA094803F099FC094A17
:1042D000206000231370084A1370084A13700AB054
:1042E00010BD00BF80240020F4200020645F02087D
:1042F0006948000886240020852400207C240020B2
:10430000704704387047704710B5102104461EF0FE
:104310009AFF204610BDA0F10400F5E7002282605C
:10432000024A026018324260C16070479C6802080D
:104330007047000010B5034B03600446FFF7BDF85B
:10434000204610BDC468020810B50446FFF7F2FF0E
:1043500020464FF48E711EF076FF204610BD0000FF
:1043600010B50446FFF7E0F8014B2360204610BD6E
:10437000C4680208FFF7A2B80022026070477047C5
:1043800010B5034B0360044600F0B1F8204610BDA1
:10439000F868020810B50446FFF7F2FF20461C211A
:1043A0001EF051FF204610BD10B5044600F0AAF8DB
:1043B000064B23604FF4C873A3614FF0181100231C
:1043C000C4E90213024B2361204610BDF8680208BD
:1043D00003009001B0F9083010B5B0F904405B4219
:1043E0009C420BDBF02C09DCB0F90A30B0F9062056
:1043F0005B429A4202DBB2F5A07F05DD0423038213
:1044000083694382002010BD438A591A09B20029EA
:104410004182F7DC83891C44C38984801A44836900
:10442000C28043820120EEE710B5034B03600446CF
:1044300000F05DF8204610BD0C69020810B5044676
:10444000FFF7F2FF204620211EF0FDFE204610BDA2
:1044500010B5044600F056F8084B23604FF416726E
:1044600046F2A813C4E906234FF020110022C4E944
:104470000212034A2261A382204610BD0C69020881
:1044800003005802B0F90830B0F904205B429A42A8
:1044900010B508DBF02A06DCB0F90A30B0F90640A6
:1044A0005B429C4207DA04230382C36983828369E7
:1044B0004382002010BD438A591A09B20029418263
:1044C000F7DC83891A44C38982801C448369C480D1
:1044D00043820120EEE7838A591A09B20029D8BF26
:1044E000C3698182DABF8382012000207047704750
:1044F0000020704710B5182104461EF0A4FE204687
:1045000010BD0000034A0260032202824FF0201215
:104510008260704720690208018270478180C280F2
:1045200070478181C2817047B0F90420B0F908302A
:1045300010B5B1F904401344A34215DDB1F90830B8
:1045400023449A4210DAB0F90630B0F90A20B1F9E2
:1045500006401A44A24207DDB1F90A2022449342E0
:10456000ACBF0020012010BD0020FCE710B5054BBA
:104570000360002304468380083000F033F82046AF
:1045800010BD00BF346902088388194481807047D8
:1045900010B5044B044640F8083B00F00FF82046E5
:1045A00010BD00BF3469020810B50446FFF7F0FFE4
:1045B000204630211EF047FE204610BD10B5034BAB
:1045C00003600446FFF793FF204610BD44690208CC
:1045D00010B50446FFF7F2FF204628211EF033FEF7
:1045E000204610BD10B50446FFF78CFF03210A4892
:1045F0000A4B2162A1844FF01C11C4E9010142F26F
:104600001072236000214FF4C873C4E90632E160E0
:10461000A2826382204610BD68000401446902083A
:10462000438A591A09B2002941821FDC8288838992
:10463000C1891A44C38812B20B441BB281698280BB
:10464000002AC380418207DA00228280002B07DA29
:104650000023C38001207047D02AF7DDD022F4E781
:10466000B3F5907FF6DD4FF49073F2E700207047CA
:10467000838A591A09B20029D8BFC3698182DABF77
:104680008382012000207047838C5B1A83847047EB
:1046900081817047C18170472DE9F347DFF8A4A0FD
:1046A000274CDAF80030DFF8A0901B1A0546CAF84C
:1046B000003014264FF00008B4F91030032B0AD054
:1046C00029462046FFF7DEFE013E04F12004F3D127
:1046D00002B0BDE8F087DAF80030002BF4DC01A965
:1046E0004846CDF8048002F069FC08B1CDF804809A
:1046F000019B03F0030203F48073002B02F1FF33EC
:104700004FF6E0714FF6FF770CBFF0210127022B27
:104710009DBF013202EB8202D2002A222046FFF71F
:10472000FDFE002239462046FFF7FBFE022120460F
:10473000FFF7F2FE42F21073CAF80030C4E700BF80
:1047400090240020200000209C2100202DE9F84327
:10475000014606461348144CDFF85080DFF85090AD
:10476000FFF786FF04F58C770546B4F91030032B6C
:1047700008D031462046FFF72DFE1C34BC42F4D150
:10478000BDE8F88365B1B8F80020B9F80010103A18
:10479000204692B2FFF7C2FE02212046FFF7BCFE80
:1047A0000025EAE748290020282800208824002046
:1047B0008A2400202DE9F843274B284E1A68284BFD
:1047C0001B68022B08BF01320C2AA8BF0C22074627
:1047D0004FF000094FF01C0895B2B6F91030012BCC
:1047E00010D139463046FFF776FE58B11D4A0023F6
:1047F0001446B2F9101003291BD001330A2B02F121
:104800001C02F6D109F10109B9F1140F06F12006D5
:10481000E3D1144C0A25B4F91030012B03D13946E9
:104820002046FFF7D7FD013D04F11C04F3D1BDE89C
:10483000F883F288B18808FB03441032204692B214
:10484000FFF76CFE20462A460021FFF76AFE022190
:104850002046FFF761FED5E71800002090240020D5
:104860001C000020102700202DE9F04FA24CDFF89B
:10487000BC92002585B0257089F800509F4B4FF6FB
:10488000CE72EF1811463846FFF748FE9C4B4FF6A4
:10489000CE72EE1811463046FFF740FE4FF6FB721F
:1048A00000213846FFF73DFE052200213046FFF784
:1048B00038FE03213846FFF72FFE1C350321304612
:1048C000FFF72AFEB5F58C7FD8D1DFF86482002689
:1048D00045464FF6CE7211462846FFF71FFE0136B9
:1048E00028460321FFF718FE142E05F12005F0D10C
:1048F000844D002784484FF4005101F02FF901281E
:1049000007F1010708D1814A13680B2B04DC01333E
:10491000C820136003F0D0F923784BB199F8003028
:10492000002BE7D07A4B01221A7005B0BDE8F08F5A
:10493000012FD4BF18461F46764BAA89764E1A809F
:10494000764BEA891A80C8BF01203070FFF7A4FEB9
:1049500031787348FFF764FE3078FFF7F7FE307860
:10496000FFF728FF6E4946464FF0140AB6F910B01B
:10497000BBF1010F7ED13046FFF7D6FD6849002814
:1049800078D067485946FFF77FFE04213046FFF78D
:10499000C3FD63484FF482726821FFF7BFFD4646AE
:1049A0004FF0140AB6F91030012B2AD1DFF84CB1C0
:1049B0000A22BBF910300093012B62D159463046D0
:1049C0000192FFF7B1FD019A00285AD00421304628
:1049D000FFF7A2FD04215846FFF79EFD052128465A
:1049E000FFF7D2FD009A48484FF4005101F0BCF89F
:1049F000322003F061F9444800224FF4005101F0E5
:104A0000B3F8BAF1010A06F12006CBD13C4E444975
:104A10004FF00A0AB6F910B0BBF1010F36D130469B
:104A2000FFF782FD3E4988B33D485946FFF72CFE0B
:104A300004213046FFF770FD39484FF48272682137
:104A4000FFF76CFDB5F92C30002B25DC0125257016
:104A5000344C99F80030002B7FF464AF20688DF857
:104A60000F501A460DF10F0103F015FA322003F032
:104A700023F9EEE7BAF1010A06F120067FF476AFDA
:104A80008DE7013A0BF11C0B93D1BAE7BAF1010A99
:104A900006F11C06BED1D5E7224B234E18683368B9
:104AA000012B1ED1AA881D2A1BD9DFF888A02370EC
:104AB0008AF8003002238DF80F3000231A460DF1DA
:104AC0000F0103F0E8F9237813B19AF8003023B905
:104AD00002233360002323700CE70A2003F0ECF874
:104AE000F1E730238DF80F3000231A460DF10F0146
:104AF00003F0D1F9FEE600BF86240020282800201C
:104B00001027002040290020001802401800002033
:104B10008C2400208A240020842400208824002063
:104B200048290020F42000201C00002085240020BB
:104B3000902400208D24002070B5214C00254FF6D4
:104B4000CE7211462046FFF7E9FC013520460321CD
:104B5000FFF7E2FC142D04F12004F0D1194E0024DB
:104B6000A5194FF6CE7211462846FFF7D7FC284606
:104B7000154D0321FFF7D0FC25444FF6CE721146A8
:104B80002846FFF7CBFC1C3403212846FFF7C4FC62
:104B9000B4F58C7FE4D10D4C0D4BE360002104F1A2
:104BA0000800FFF775FD002104F10800FFF772FD12
:104BB000084A00231360084A1370084A137070BD36
:104BC00090240020282800201027002040290020C1
:104BD0006400C800200000208624002085240020D6
:104BE00038B50F480F4DFFF7C1FC002428191C34BD
:104BF000FFF7DAFBB4F58C7FF8D10B4D00242819B0
:104C00001C34FFF7D1FBB4F58C7FF8D1074D00249D
:104C100028192034FFF71CFCB4F5207FF8D138BDEB
:104C20004029002028280020102700209024002060
:104C3000164838B51524013CA0F1200512D11448BE
:104C40000B24013CA0F11C0514D112480B24013C9B
:104C5000A0F11C0515D0D0F8FC30FC305B689847FB
:104C60002846F4E7D5F8803200F518705B6898475D
:104C70002846E0E7D5F81831FC305B6898472846AD
:104C8000DFE7BDE838400448FFF782BC90240020ED
:104C9000102700202828002040290020F0207047FD
:104CA0004FF4A07070472920FDF7CAB82820FDF7FF
:104CB000C7B808B5FDF798F8CA20FDF7C1F8C320BA
:104CC000FDF7A2F80820FDF79FF85020FDF79CF8AB
:104CD000CF20FDF7B5F80020FDF796F8C120FDF7CD
:104CE00093F83020FDF790F8ED20FDF7A9F8642047
:104CF000FDF78AF80320FDF787F81220FDF784F806
:104D00008120FDF781F8E820FDF79AF88520FDF76E
:104D10007BF80020FDF778F87820FDF775F8CB20B8
:104D2000FDF78EF83920FDF76FF82C20FDF76CF8B1
:104D30000020FDF769F83420FDF766F80220FDF742
:104D400063F8F720FDF77CF82020FDF75DF8EA20F6
:104D5000FDF776F80020FDF757F80020FDF754F82E
:104D6000B120FDF76DF80020FDF74EF81B20FDF790
:104D70004BF8B620FDF764F80A20FDF745F8A220AD
:104D8000FDF742F8C020FDF75BF81020FDF73CF876
:104D9000C120FDF755F81020FDF736F8C520FDF7C6
:104DA0004FF84520FDF730F81520FDF72DF8C72006
:104DB000FDF746F89020FDF727F83620FDF740F87C
:104DC000C820FDF721F8F220FDF73AF80020FDF7A2
:104DD0001BF8B020FDF734F8C220FDF715F8B62017
:104DE000FDF72EF80A20FDF70FF8A720FDF70CF8C5
:104DF0002720FDF709F80420FDF706F82A20FDF723
:104E00001FF80020FDF700F80020FCF7FDFF002050
:104E1000FCF7FAFFEF20FCF7F7FF2B20FDF710F867
:104E20000020FCF7F1FF0020FCF7EEFF0120FCF76B
:104E3000EBFF3F20FCF7E8FFF620FDF701F801202B
:104E4000FCF7E2FF0020FCF7DFFF0620FCF7DCFFA9
:104E50002C20FCF7F5FFC820FDF740F82620FCF7D2
:104E6000EFFF0120FCF7D0FFE020FCF7E9FF0F2067
:104E7000FCF7CAFF2920FCF7C7FF2420FCF7C4FF7A
:104E80000C20FCF7C1FF0E20FCF7BEFF0920FCF749
:104E9000BBFF4E20FCF7B8FF7820FCF7B5FF3C20A5
:104EA000FCF7B2FF0920FCF7AFFF1320FCF7ACFFC3
:104EB0000520FCF7A9FF1720FCF7A6FF1120FCF73F
:104EC000A3FF0020FCF7A0FFE120FCF7B9FF0020C2
:104ED000FCF79AFF1620FCF797FF1B20FCF794FFC6
:104EE0000420FCF791FF1120FCF78EFF0720FCF750
:104EF0008BFF3120FCF788FF3320FCF785FF422031
:104F0000FCF782FF0520FCF77FFF0C20FCF77CFFFD
:104F10000A20FCF779FF2820FCF776FF2F20FCF70A
:104F200073FF0F20FCF770FF1120FCF789FFC820EA
:104F3000FCF7D4FF2920FCF783FFBDE808402C20B4
:104F4000FCF77EBF08B5FCF74FFF0321D320FCF729
:104F500093FF80B208BD10B5C4B2022203212046DF
:104F6000FCF7F8FE0A20FCF73DFF20460022032153
:104F7000FCF7F0FEBDE810400220FCF733BF38B567
:104F80000446E4B2FCF7E4FE00212046FCF7FAFEFA
:104F9000012105462046FCF7F5FE40EA052080B2D7
:104FA00038BD10B5C4B240212046FCF7EBFE030625
:104FB00007D54C212046FCF7E5FE003818BF01203C
:104FC00010BD01224B212046FCF7C4FE20460022E2
:104FD0004B21FCF7BFFE0020F2E773B50423C4B2F7
:104FE0000E461546D7210DEB03022046FCF7E4FEE2
:104FF000019B1BBA1A0DC3F30B23328020462B8072
:1050000001224B21FCF7A6FE00224B212046FCF793
:10501000A1FE02B070BD000010B50A4A1378984294
:1050200004460DD0517888420AD00BB141B9012312
:10503000D454FCF78DFE2046BDE81040FFF78BBF2F
:1050400010BD00BF7029002010B5C4B20921204650
:10505000FCF798FE40F00102D2B220460921BDE8DB
:105060001040FCF777BE10B5C4B209212046FCF70A
:1050700089FE092100F0FE022046BDE81040FCF741
:1050800069BE38B5C4B20D4620460A21FCF77AFE47
:1050900040EA0502D2B220460A21BDE83840FCF7BA
:1050A00059BE10B50446FCF754FE20461F21FFF7F9
:1050B000E8FF2046BDE81040FFF7C6BF38B5C4B2D0
:1050C0000D4620460A21FCF75DFE20EA0502D2B219
:1050D00020460A21BDE83840FCF73CBE10B5044626
:1050E000FFF7C1FF20461F21BDE81040FFF7E6BFD4
:1050F00010B5C0B20C460B21FCF744FE204010BD99
:105100001F21FFF7F5BF0A46C0B20B21FCF722BEF4
:105110001F21FFF7F8BF38B5C4B20D46204617214E
:10512000FCF730FE20EA0502D2B220461721BDE886
:105130003840FCF70FBE70B5C4B2064604212046C5
:10514000FCF720FE042100F0FB0205462046FCF798
:1051500001FE3046F021FFF7DEFF05F0F8022046A1
:105160000421FCF7F7FD492220212046FCF7F2FD3F
:105170000220FCF737FE204601222121FCF7EAFD40
:1051800020469A224121FCF7E5FD204601224A21D2
:10519000FCF7E0FD204601224B21FCF7DBFD204619
:1051A00000224B21FCF7D6FD204601225621FCF7B8
:1051B000D1FD204601225821FCF7CCFD20460122DA
:1051C0004021FCF7C7FD2046FF220B21FCF7C2FD62
:1051D000BDE870400220FCF705BE0000054BD3F887
:1051E000882042F47002C3F888204FF000629A6071
:1051F000704700BF00ED00E008B50B4B1A6842F4A1
:1052000000721A601A6842F480621A601A6842F4E6
:1052100080721A60032000F061FA0020FDF708F99F
:10522000FCF76AFE002008BD003C0240034A044B24
:1052300011681B780B441360704700BF742900206D
:1052400088000020014B1868704700BF74290020B7
:1052500038B50446FFF7F6FF631C1CBF054B1B78EF
:10526000054618BFE418FFF7EDFF431BA342FAD32E
:1052700038BD00BF8800002038B50446002800F083
:105280009B80056C25B9FCF757FE656484F83C509B
:10529000236CDB0600F18E80236C23F4885323F00B
:1052A000020343F002032364444B5A6822F4403261
:1052B0005A605A6861680A435A60236821695A68CB
:1052C00022F480725A605A6842EA01225A605A688F
:1052D000A16822F040725A605A680A435A609A687C
:1052E000E16822F400629A609A680A439A6034493D
:1052F000A26A8A4252D0996821F0706199609968D7
:105300000A439A609A68E16A22F040529A609A6869
:105310000A439A609A6822F002029A609A68217E93
:1053200042EA41029A6094F82020002A3ED05A684E
:10533000616A42F400625A605A6822F460425A601C
:105340005A68013942EA41325A60DA6AE16922F464
:105350007002DA62DA6A013942EA0152DA629A6864
:1053600022F400729A609A6894F8301042EA41225E
:105370009A609A68616922F480629A609A68002053
:1053800042EA81229A606064236C23F0030343F0B5
:1053900001032364002384F83C3038BD9A6822F06E
:1053A00070629A609A6822F04052B2E75A6822F41A
:1053B0000062C9E70120EDE70120EEE7002301408C
:1053C0000100000F82B00023019390F83C30012BC4
:1053D00069D0012380F83C3003689A68D2070BD566
:1053E0009A68D1071AD4036C43F010030364436C2A
:1053F00043F0010343644CE09A682C4942F00102F7
:105400009A602B4A1268B2FBF1F202EB420201925F
:10541000019A002AE4D0019A013AF8E7026C22F4DA
:10542000E06222F0010242F4807202645A6852057E
:1054300041BF026C22F4405242F480520264026C7A
:1054400012F480521CBF426C22F006024264002219
:1054500080F83C206FF022021A60164A516811F061
:105460001F0F15491CD18B4207D001F580718B426B
:105470000CD1526812F01F0F0BD19A6812F0405FE6
:1054800007D19A6842F080429A6002E00B498B4251
:1054900002D0002002B07047526812F0100FEBE704
:1054A0008B42F6D1E9E70220F4E700BF40420F004B
:1054B0008400002000230140002001400022014020
:1054C00090F83C30012B14D003689A6822F0010256
:1054D0009A609B68DB0707D4036C23F4885323F09E
:1054E000010343F001030364002380F83C301846B5
:1054F00070470220704703689A68520570B50446E9
:105500000D460BD59B68DE0508D5036C43F02003E0
:105510000364002380F83C30012070BDFFF792FE49
:10552000064623681A6891070CD56FF012021A60BC
:10553000226C42F4007222649A6812F0405F17D025
:105540000020EAE7681CEDD065B923681B6813F0FA
:105550000203E6D1226C84F83C3042F0040222645B
:105560000320DAE7FFF76EFE801BA842EDD8D8E7EC
:10557000227E002AE4D1DA6A12F4700F02D09B680E
:105580005A05DDD4236C23F480732364236CDB047D
:10559000D6D4236C43F001032364D1E70368D86CAD
:1055A00070470000F7B50023019390F83C30012BC1
:1055B000054600F08680012380F83C3008682B689F
:1055C0008E68092884B233D904EB4402DF681E3A9E
:1055D0004FF0070C0CFA02FC27EA0C07DF60DF68CB
:1055E00006FA02F23A43DA604968062901EB8102C1
:1055F0002DD8596B053A1F26964021EA06015963BA
:10560000596B04FA02F20A435A632F4A93420AD1B1
:10561000122837D12D4B5A6822F400025A605A687A
:1056200042F480025A60002085F83C0003B0F0BDCF
:105630001A6900EB400C072707FA0CF722EA070269
:105640001A611A6906FA0CF616431E61CCE70C299A
:105650004FF01F010BD81E6B233A914026EA01013F
:105660001963196B04FA02F20A431A63CDE7DE6A82
:10567000413A914026EA0101D962D96A94400C432B
:10568000DC62C2E7124B984201D01128CBD10F4BFC
:105690005A6822F480025A605A6842F400025A6042
:1056A0000B4B9842BFD10B4B0B4A1B68B3FBF2F379
:1056B0000A2253430193019B002BB4D0019B013B71
:1056C000F8E70220B2E700BF0020014000230140BC
:1056D000120000108400002040420F000749CA68F1
:1056E00022F4E0620302120403F4E063120C134399
:1056F00043F0BF6343F40033CB60704700ED00E03C
:10570000164B30B5DC68C4F30224C4F10703251D31
:10571000042B28BF0423062D4FF0FF358CBF033C1C
:10572000002405FA03F321EA0303A54022EA050257
:10573000A340002843EA0203ACBF00F16040084ADE
:105740004FEA0313B8BF00F00F00DBB2AABF00F5A9
:105750006140135480F8003330BD00BF00ED00E01D
:1057600014ED00E0002807DB044A4109012300F0A2
:105770001F00834042F82130704700BF00E100E085
:1057800010B5044650B1437903F0FF0213B902711A
:10579000FCF722FC01236371002010BD0120FCE70F
:1057A00010B5044620B390F8393003F0FF021BB95E
:1057B00080F83820FCF728FC022384F8393023686D
:1057C00061681A6822F440320A431A605A6BA16871
:1057D00022F007020A435A631A6CE1686FF30D0264
:1057E0000A431A6400200123E06384F8393010BDB5
:1057F0000120FCE770477047036870B55E681D685C
:10580000F207044614D5E90512D51A6822F480720D
:105810001A60C26B42F00102C26301229A60042343
:1058200080F83930002380F83830436903B1984755
:10583000B20616D5AB0414D523681A6822F40052B8
:105840001A6020229A60E36B43F00203E3630423AF
:1058500084F83930002384F8383063690BB120466E
:105860009847300716D5290514D523681A6822F4FD
:1058700000621A6008229A60E36B43F00403E3635A
:10588000042384F83930002384F8383063690BB17D
:105890002046984772070BD56B0509D523681A680F
:1058A00022F480621A6004229A602046FFF7A2FF69
:1058B000B00714D5A90512D523681A6822F400721E
:1058C0001A6002229A60E36BE363012384F83930A3
:1058D000002384F8383023690BB120469847F2063C
:1058E00013D5EB0411D523681A6822F480521A608C
:1058F00010229A60E36BE363012384F839300023BC
:1059000084F838302046FFF776FF70BDF0B590F888
:105910003820012A03464FF002002BD0012283F8E1
:10592000382083F8390003EB0112D2E90740556AA9
:10593000174F44EA0040093C012C9CBF05F07F4210
:1059400010434FEA01161A6888BF40EA056091B912
:10595000516A394001435162012C9969916103D820
:10596000596A21F07F4191620122002083F8392099
:1059700083F83800F0BDD16939400143D1619919EC
:10598000012C896911619CBF25F07F451562EBE709
:10599000F0FFFC002DE9F74FDFF8BC916C4A0023C3
:1059A0000D6801249C4004EA0506AC4340F0B78032
:1059B0004D68032705F003044FEA430807FA08FC83
:1059C000671E012F6FEA0C0C34D8876807EA0C0EAB
:1059D000CF6807FA08F747EA0E078760476827EAA3
:1059E000060EC5F300179F4047EA0E074760C768D9
:1059F00007EA0C0E8F6807FA08F747EA0E07022C31
:105A0000C76019D14FEAD30A00EB8A0A03F0070BEB
:105A1000DAF820704FEA8B0B4FF00F0E0EFA0BFEE8
:105A200027EA0E0E0F6907FA0BF747EA0E07CAF8C6
:105A3000207001E0032CDAD1076804FA08F407EAC1
:105A40000C073C4315F4403F046068D000240194E7
:105A5000D9F8444044F48044C9F84440D9F844405B
:105A600023F0030707F1804704F4804407F59C37CF
:105A7000019403F0030C019CD7F808E04FEA8C0C6A
:105A80000F2404FA0CF42EEA040E324CA0424DD03E
:105A900004F58064A0424BD004F58064A04249D054
:105AA00004F58064A04247D004F58064A04245D04C
:105AB00004F58064A04243D004F58064A04241D044
:105AC00004F58064A0423FD004F58064A0423DD03C
:105AD00004F58064A04214BF0A24092404FA0CF4DB
