:020000040800F2
:1000000000000320E90C0008F52B0008F72B00087E
:10001000F92B0008FB2B0008FD2B00080000000056
:10002000000000000000000000000000D18A00086D
:10003000FF2B000800000000618B00088983000886
:10004000390D0008390D0008390D0008390D000878
:10005000390D0008390D0008390D0008390D000868
:10006000390D0008390D0008390D0008390D000858
:10007000390D0008390D0008390D0008390D000848
:10008000390D0008390D0008390D0008390D000838
:10009000390D0008390D0008390D0008390D000828
:1000A000390D0008390D0008390D0008390D000818
:1000B000390D0008390D0008390D0008390D000808
:1000C000390D0008390D0008390D0008390D0008F8
:1000D000390D0008390D0008390D0008390D0008E8
:1000E000390D0008390D0008390D0008390D0008D8
:1000F000390D0008390D0008390D0008390D0008C8
:10010000390D0008390D0008390D0008390D0008B7
:10011000390D0008390D0008012C0008390D0008C0
:10012000390D0008390D0008390D0008390D000897
:10013000390D0008390D0008390D0008390D000887
:10014000390D0008390D0008390D0008390D000877
:10015000390D0008390D0008390D0008390D000867
:10016000390D0008390D0008390D0008390D000857
:10017000390D0008390D0008390D00080000000095
:10018000390D0008390D0008390D0008390D000837
:10019000390D0008390D0008390D0008390D000827
:0C01A0000D2C0008390D0008192C000877
:1001B00010B5054C237833B9044B13B10448AFF3A1
:1001C00000800123237010BD800300200000000088
:1001D000E069020808B5034B1BB103490348AFF3BC
:1001E000008008BD0000000084030020E0690208D0
:1001F00001F0FF01102A2BDB10F0070F08D010F8D8
:10020000013B013A8B422DD010F0070F42B3F6D1DB
:10021000F0B441EA012141EA014122F007047FF0F4
:1002200000070023F0E80256083C85EA010586EA4B
:10023000010685FA47F5A3FA87F586FA47F6A5FA87
:1002400087F68EB9EED1F0BC01F0FF0102F0070293
:1002500032B110F8013B013A83EA010313B1F8D13E
:100260000020704701387047002D06BF354603381F
:10027000073815F0010F07D1013015F4807F02BF58
:10028000013015F4C03F0130F0BC0138704700BFA9
:1002900070B54FF0FF0C4CF4E06C1CEA11541DBF1C
:1002A0001CEA135594EA0C0F95EA0C0F00F0DEF8E7
:1002B0002C4481EA030621EA4C5123EA4C5350EACC
:1002C000013518BF52EA033541F4801143F480131D
:1002D00038D0A0FB02CE4FF00005E1FB02E506F0AE
:1002E0000042E0FB03E54FF00006E1FB03569CF003
:1002F000000F18BF4EF0010EA4F1FF04B6F5007F09
:1003000064F5407404D25FEA4E0E6D4146EB06067A
:1003100042EAC62141EA55514FEAC52040EA5E5003
:100320004FEACE2EB4F1FD0C88BFBCF5E06F1ED8AD
:10033000BEF1004F08BF5FEA500E50F1000041EBE4
:10034000045170BD06F0004646EA010140EA020091
:1003500081EA0301B4EB5C04C2BFD4EB0C0541EAB3
:10036000045170BD41F480114FF0000E013C00F3C8
:10037000AB8014F1360FDEBF002001F0004170BDEC
:10038000C4F10004203C35DA0C341BDC04F1140405
:10039000C4F1200500FA05F320FA04F001FA05F291
:1003A00040EA020001F0004221F0004110EBD3705E
:1003B00021FA04F642EB06015EEA430E08BF20EA8A
:1003C000D37070BDC4F10C04C4F1200500FA04F32D
:1003D00020FA05F001FA04F240EA020001F00041BF
:1003E00010EBD37041F100015EEA430E08BF20EA32
:1003F000D37070BDC4F1200500FA05F24EEA020E7A
:1004000020FA04F301FA05F243EA020321FA04F0A8
:1004100001F0004121FA04F220EA020000EBD3705F
:100420005EEA430E08BF20EAD37070BD94F0000F5F
:100430000FD101F00046400041EB010111F4801F93
:1004400008BF013CF7D041EA060195F0000F18BF44
:10045000704703F00046520043EB030313F4801F80
:1004600008BF013DF7D043EA0603704794EA0C0F3A
:100470000CEA135518BF95EA0C0F0CD050EA410650
:1004800018BF52EA4306D1D181EA030101F00041CD
:100490004FF0000070BD50EA410606BF10461946F5
:1004A00052EA430619D094EA0C0F02D150EA013601
:1004B00013D195EA0C0F05D152EA03361CBF104642
:1004C00019460AD181EA030101F0004141F0FE41E1
:1004D00041F470014FF0000070BD41F0FE4141F465
:1004E000780170BD81F0004102E000BF83F000435D
:1004F00030B54FEA41044FEA430594EA050F08BFBF
:1005000090EA020F1FBF54EA000C55EA020C7FEA82
:10051000645C7FEA655C00F0E2804FEA5454D4EBFF
:100520005555B8BF6D420CDD2C4480EA020281EAC9
:10053000030382EA000083EA010180EA020281EA01
:100540000303362D88BF30BD11F0004F4FEA013153
:100550004FF4801C4CEA113102D0404261EB410162
:1005600013F0004F4FEA03334CEA133302D05242E8
:1005700063EB430394EA050F00F0A780A4F10104A4
:10058000D5F1200E0DDB02FA0EFC22FA05F28018DE
:1005900041F1000103FA0EF2801843FA05F35941C4
:1005A0000EE0A5F120050EF1200E012A03FA0EFC43
:1005B00028BF4CF0020C43FA05F3C01851EBE3716D
:1005C00001F0004507D54FF0000EDCF1000C7EEB8A
:1005D00000006EEB0101B1F5801F1BD3B1F5001FC8
:1005E0000CD349085FEA30004FEA3C0C04F10104E7
:1005F0004FEA445212F5800F80F09A80BCF1004F10
:1006000008BF5FEA500C50F1000041EB045141EA91
:10061000050130BD5FEA4C0C404141EB0101013C5A
:1006200028BFB1F5801FE9D291F0000F04BF014649
:100630000020B1FA81F308BF2033A3F10B03B3F11B
:1006400020020CDA0C3208DD02F1140CC2F10C02AB
:1006500001FA0CF021FA02F10CE002F11402D8BF09
:10066000C2F1200C01FA02F120FA0CFCDCBF41EAD5
:100670000C019040E41AA2BF01EB0451294330BDA4
:100680006FEA04041F3C1CDA0C340EDC04F1140481
:10069000C4F1200220FA04F001FA02F340EA030058
:1006A00021FA04F345EA030130BDC4F10C04C4F19E
:1006B000200220FA02F001FA04F340EA030029467E
:1006C00030BD21FA04F0294630BD94F0000F83F4C8
:1006D000801306BF81F480110134013D4EE77FEAAB
:1006E000645C18BF7FEA655C29D094EA050F08BFF7
:1006F00090EA020F05D054EA000C04BF19461046D8
:1007000030BD91EA030F1EBF0021002030BD5FEA1B
:10071000545C05D14000494128BF41F0004130BD43
:1007200014F580043CBF01F5801130BD01F0004597
:1007300045F0FE4141F470014FF0000030BD7FEA0A
:10074000645C1ABF194610467FEA655C1CBF0B4605
:10075000024650EA013406BF52EA033591EA030F1C
:1007600041F4002130BD00BF90F0000F04BF002114
:10077000704730B54FF4806404F132044FF0000547
:100780004FF0000150E700BF90F0000F04BF0021C0
:10079000704730B54FF4806404F1320410F0004526
:1007A00048BF40424FF000013EE700BF42004FEA21
:1007B000E2014FEA31014FEA02701FBF12F07F439E
:1007C00093F07F4F81F06051704732F07F4208BF55
:1007D000704793F07F4F04BF41F40021704730B55C
:1007E0004FF4607401F0004521F000411CE700BFA8
:1007F00050EA010208BF704730B54FF000050AE02B
:1008000050EA010208BF704730B511F0004502D52B
:10081000404261EB41014FF4806404F132045FEA2D
:10082000915C3FF4D8AE4FF003025FEADC0C18BFD6
:1008300003325FEADC0C18BF033202EBDC02C2F1C8
:10084000200300FA03FC20FA02F001FA03FE40EA5A
:100850000E0021FA02F11444BDE600BF4FF0FF3C48
:1008600006E000BF4FF0010C02E000BF4FF0010CAA
:100870004DF804CD4FEA410C7FEA6C5C4FEA430C23
:1008800018BF7FEA6C5C1BD001B050EA410C0CBF72
:1008900052EA430C91EA030F02BF90EA020F0020D4
:1008A000704710F1000F91EA030F58BF994208BF3B
:1008B00090422CBFD8176FEAE37040F001007047F8
:1008C0004FEA410C7FEA6C5C02D150EA013C07D14F
:1008D0004FEA430C7FEA6C5CD6D152EA033CD3D09A
:1008E0005DF8040B704700BF8446104662468C4694
:1008F0001946634600E000BF01B5FFF7B7FF0028C7
:1009000048BF10F1000F01BD4DF808EDFFF7F4FFEF
:100910000CBF012000205DF808FB00BF4DF808ED7A
:10092000FFF7EAFF34BF012000205DF808FB00BF9D
:100930004DF808EDFFF7E0FF94BF012000205DF8BF
:1009400008FB00BF4DF808EDFFF7CEFF94BF012074
:1009500000205DF808FB00BF4DF808EDFFF7C4FF6D
:1009600034BF012000205DF808FB00BF4FEA4102C0
:1009700012F5001215D211D56FF47873B3EB6252F1
:1009800012D94FEAC12343F0004343EA505311F018
:10099000004F23FA02F018BF404270474FF00000AA
:1009A000704750EA013005D111F0004008BF6FF0E8
:1009B000004070474FF00000704700BF53B94AB97C
:1009C000002908BF00281CBF4FF0FF314FF0FF3057
:1009D00000F088B9ADF1080C6DE904CE00F006F81E
:1009E000DDF804E0DDE9022304B070472DE9F047AB
:1009F000089D8E4604468846002B4AD18A421746F7
:100A000062D9B2FA82F64EB1C6F1200301FA06F8B5
:100A100020FA03F3B74043EA0808B4404FEA174E00
:100A20001FFA87FCB8FBFEF1230C0EFB118843EA8A
:100A3000084301FB0CF29A4209D9FB1801F1FF307F
:100A400080F0EA809A4240F2E78002393B449A1AE9
:100A5000A3B2B2FBFEF00EFB102243EA024300FBFE
:100A60000CFC9C4509D9FB1800F1FF3280F0D680C0
:100A70009C4540F2D3803B44023840EA0140A3EB5E
:100A80000C0300211DB1F3400022C5E90032BDE88E
:100A9000F0878B4205D90DB1C5E900010021084658
:100AA000F5E7B3FA83F1002946D1734502D38242B8
:100AB00000F20581841A6EEB030201209046002D9E
:100AC000E5D0C5E90048E2E7002A00F09080B2FADC
:100AD00082F6002E40F0A4808A1A030C4FEA174ECB
:100AE00080B2BCB20121B2FBFEFC0EFB1C2243EA29
:100AF000024304FB0CF29A4207D9FB180CF1FF38B1
:100B000002D29A4200F2E080C4469B1AB3FBFEF286
:100B10000EFB123340EA034302FB04F49C4207D964
:100B2000FB1802F1FF3002D29C4200F2CA8002465A
:100B30001B1B42EA0C40A5E7C1F120068B4022FABC
:100B400006F71F430EFA01F420FA06F32EFA06FE0A
:100B50004FEA1749234300FA01F81FFA87FCBEFB4E
:100B6000F9F01C0C09FB10EE44EA0E4400FB0CFEED
:100B7000A64502FA01F209D93C1900F1FF3A80F0CA
:100B80009C80A64540F2998002383C44A4EB0E04B8
:100B90001FFA83FEB4FBF9F309FB13444EEA044445
:100BA00003FB0CFCA44508D93C1903F1FF3E80F07F
:100BB0008280A4457FD9023B3C4443EA0040A4EB39
:100BC0000C04A0FB02EC64457346E14662D35FD09F
:100BD0005DB1B8EB030264EB090404FA06F622FAED
:100BE00001F31E43CC40C5E9006400214FE7B1FB8F
:100BF000F2FC010C41EA0E4180B240EA01423B4660
:100C000038463C46B846BE462026B1FBF7F1A2EB7B
:100C1000080241EA0C4166E7014618E710462CE756
:100C2000C6F120022EFA02F3B740B14020FA02F2D8
:100C30004FEA174E0A43B3FBFEF8BCB20EFB183363
:100C4000110C41EA034108FB04F9B04089454FEA21
:100C5000104380B23ED9791808F1FF3C01D2894592
:100C60001FD8A1EB0901B1FBFEF909FB04F80EFB4B
:100C7000191192B242EA0142424529D2BA1809F149
:100C8000FF31C4D24245C2D2A9F102013A44BEE7C3
:100C9000F0459DD2BEEB02036CEB070C0138E14638
:100CA00096E7A7EB09094944A8F1020CB1FBFEF94C
:100CB00009FB04F8DBE773467FE7504666E7084622
:100CC000FDE63B44023A33E7ACF1020C3B441CE73F
:100CD00049469CE7A1EB0901C446B1FBFEF909FBBB
:100CE00004F8C4E7704700BFDFF834D0002103E008
:100CF0000C4B5B58435004310B480C4B42189A4242
:100D0000F6D30B4A02E0002342F8043B094B9A4217
:100D1000F9D304F061FE25F0A9F801F0F7F8704767
:100D20000000032040920A0800000020700100200B
:100D300080030020C8440120FEE7704708B500F09A
:100D4000D9FDBDE8084000F05DBD00F0D5BD70479D
:100D500010B50421044622F076FE204610BD0000A6
:100D600038B50C4B0C4C18800C4B822019806368F2
:100D7000984740F6110398420AD1094D23682C6028
:100D8000822098472B688220DB689847002038BD76
:100D90000120FCE7A60300205C000020A403002043
:100DA000A80300204FF4A071F020FFF7D9BF000086
:100DB000F7B5394D2B6804461B698220984720807F
:100DC00000284ED02B680DF106025B6901A9822034
:100DD0009847324B1B78002B4BD0BDF8062040F6CD
:100DE00074639A423FD9ADF80630BDF806209B1ACD
:100DF0009BB20A2B42D90B22B3FBF2F3284A12888A
:100E0000934201D9013A93B2BDF80420254840F637
:100E1000B8318A4234D8C2F571620E32016892B29A
:100E20000F25B2FBF5F2204D2D88AA4284BF05F1B3
:100E3000FF35AAB28A4215468EB22AD9921B91B2C8
:100E40001A4E3768BB42BAB28CBF9A1AD21A92B203
:100E500011440529C4BF05603360036863803368AB
:100E6000A38003B0F0BDB32A9CBFB422ADF8062026
:100E7000BBE7BDF80630A3F5B473B9E70023C3E7B9
:100E8000C2F56D62083292B20E2A0168C8D80025F8
:100E90002A46891A89B2D3E7A8030020BC20002083
:100EA000A4030020A0030020A60300209C03002030
:100EB00037B568460D461446FFF77AFFBDF80000C7
:100EC00030B1BDF802302B60BDF804302360012042
:100ED00003B030BD032821D8DFE800F0020B12195F
:100EE0000F4B1A68B2FA82F2520904210D4805F03C
:100EF00039BA0B4B5A68B2FA82F252090821F5E767
:100F0000074B9A68B2FA82F252091021EEE7044BBD
:100F1000DA68B2FA82F252092021E7E7704700BF8F
:100F2000AC03002000100240032821D8DFE800F0C5
:100F3000020B12190F4B1A68003A18BF0122042144
:100F40000D4805F00FBA0B4B5A68003A18BF012242
:100F50000821F5E7074B9A68003A18BF01221021D3
:100F6000EEE7044BDA68003A18BF01222021E7E7D8
:100F7000704700BFAC0300200010024003280DD8CA
:100F8000DFE800F00206080A0421054805F0EFB981
:100F90000821FAE71021F8E72021F6E7704700BFA3
:100FA0000010024008B5032811D8DFE800F0020A5B
:100FB0000C0E0421074805F0CFF9431E5842584152
:100FC00008BD0821F6E71021F4E72021F2E7002010
:100FD000F3E700BF0010024070B5084D0024012661
:100FE000E0B2FFF7DFFF18B12B68012B18BF2E60AE
:100FF0000134052C05F10405F2D170BDAC030020CD
:10100000012380F87C1080F87D3070477047000025
:10101000034B8164003918BF01211970704700BF6C
:1010200083370120704700207047C36B0BB108461F
:10103000184770474FF6FF707047406803689B6918
:1010400018477047704770477047704710B504469F
:1010500000F06AFD23680349D3F890302046BDE8CC
:1010600010401847000000D008B503680446D3F8C4
:101070008430984723682046DB6F984700F018F9C2
:10108000236820465B6F9847292001F06BFA00F037
:101090000FF9236820465B6F9847F8E710B50446C0
:1010A0000AF028FC23682046D3F8BC30BDE8104085
:1010B000184700F01DBD00F021BD00F053BD00F049
:1010C000F3BC00F063BD00F06BBD00F0F7BC0000A6
:1010D00010B505480C46012105F03EF901280CBF6A
:1010E0002070002010BD00BF0000024009F0F5BDD7
:1010F00010B58821044622F0A6FC204610BD000051
:1011000010B590F8381090F87C400C4B8C421A784F
:1011100009D03AB90A4A0B491488088810800C8013
:1011200001221A7010BD002AFCD0054A0549148816
:10113000088810800C800022F3E700BF823701206E
:101140008C3701208A37012008B5094B1B888B4258
:1011500003D8084B1B88934205D9074B074A084818
:10116000A52124F0B9FB074B1980074B1A8008BD55
:101170008C3701208A370120506A0208B36A0208BE
:10118000F66A020888370120863701202DE9F041F0
:101190000D460446194635B9154B164A164840F215
:1011A000013124F099FBC0E910520368134ED3F8C3
:1011B0009030003A18BF012232709847E569A5B116
:1011C0002B681F68337873B1236820465B6B9847A0
:1011D000236C834207D1616C094B28461A883B4631
:1011E000BDE8F0411847216CF6E7BDE8F08100BF8B
:1011F0003B6B0208736B0208F66A02088437012011
:1012000088370120034690F87E0018B158680368BB
:101210001B68184770470000012108B500220846E6
:1012200007F054F90A4B186028B90A4B0A4A2821DA
:101230000A4824F051FB00220421012007F0EEF9B6
:10124000074B186018B9074B034A2C21F0E708BD7B
:10125000C0030020C16B02080A6C0208396C020846
:10126000BC030020A16C0208024B4FF0FF3118684C
:1012700007F076B9C0030020014B186807F09CB94D
:10128000C0030020024B0021186807F069B900BFB5
:10129000C0030020FFF7F0BF0348044900680023A3
:1012A0001A4607F0F6B900BFBC0300200400002076
:1012B00013B5084C00231A4601A9206807F01AFA52
:1012C00020684FF0FF33002201A907F013FA02B0A3
:1012D00010BD00BFBC03002003685B6C18470120F1
:1012E000704703689B6A1847FEE740F2EF3070478B
:1012F000054B0360054B4FF08062C3F88820BFF3B5
:101300004F8FBFF36F8F7047FC78020800E100E059
:1013100010B504464FF45A61FFF7EAFF204622F069
:1013200092FB204610BD000082B0002301930E4BBB
:101330001A6B42F400021A631A6B02F40002019263
:10134000019A1A6942F400021A611A6922F4000231
:101350001A61064B064A5A61064A1A61064B4FF05B
:1013600080629A6002B07047003802407422002008
:10137000E9120008B515000800E100E008B50A28E8
:1013800009D8DFE800F006100E0808080810101051
:101390001000022008BD054B054A0648912124F0A3
:1013A0009BFA0020F6E70120F4E700BFE36C020897
:1013B000FE6C0208496D020838B50C46887FFFF7BD
:1013C000DDFFA58AE28A114B2169586342EA054292
:1013D0005A64628BD963521B1A642568082D0ED19A
:1013E0009A611A615862207F094A42EA0062DA6112
:1013F000E2681A62074A5961D9601A6038BD002252
:10140000D8611A61E2689A63034AF6E700B00240C5
:1014100009000100012302000123030008B50B2885
:101420000BD8DFE800F00612100A0A0A0A080808BA
:101430000808022008BD0520FCE7054B054A0648C0
:10144000702124F049FA0020F4E70120F2E700BF00
:10145000E36C0208AF6D0208496D02082DE9F04106
:1014600091F81D800C464046FFF7D8FFA77F054640
:101470003846FFF7D3FF06463846FFF77FFFA18ABD
:10148000628B444B521A1A649A61228B521A1A6167
:10149000E28A586342EA01425A6421696268D96368
:1014A000DA602068802828D0227F0FD8202867D0D3
:1014B000402865D004281AD0364B45EA026545F429
:1014C0000035B845DD6161D0334A44E0B0F5807F36
:1014D00004D0B0F5007FEFD1304800E0304840EA5A
:1014E0000262DA61E2681A625E62596132E045EADC
:1014F000026242F40032DA61F6E7A068021DDA62A5
:10150000227F45EA026545F40035DD615E6259617E
:10151000017841B1012921D0224B234A234840F2CE
:101520001B1124F0D9F9DA69418822F47F4201398C
:1015300022F0100242EA0122DA610121154BDA6938
:1015400042F02002DA61DA699206FCD410229A6035
:101550000029B9D0164A1A60BDE8F081B2F1FF0146
:10156000DA69408822F47F4200F1FF3022F0100255
:1015700042EA002242F0100218BF0121DA61DDE7E1
:1015800045EA0262034B42F40032B4E742F2013210
:10159000E1E700BF00B002400123010009000200A2
:1015A0000A000200F96D0208136E0208496D020874
:1015B00001230200024B1B68586803685B691847E7
:1015C0009037012070B5044625460A4B0C300026A2
:1015D00060602672667245F8203B602229460AF058
:1015E000F3FA04F55A63EE6024359D42FBD12046A0
:1015F00070BD00BFFC780208034B1A68D207FCD408
:1016000023229A60704700BF00B00240704700007C
:1016100030B50F4C2568ED07FCD423250904A560DF
:1016200041F001010225FF2B65636164E0630AD08C
:101630000849656241EA0363E361074B2262606126
:10164000E060236030BDE561039BA363034BF8E7D3
:1016500000B0024009000100010002000100030087
:1016600030B50E4C2568ED07FCD423251204A56087
:1016700042F001020225FF2B65636264E063E160D2
:1016800008D01B0643F00213E361054B65626061FD
:10169000236030BD034BE3610123F9E700B0024052
:1016A00001000200020002FF30B50B4C2568ED0777
:1016B000FCD4232512041B06A56043F40033022545
:1016C00042F0010265636264E063E160E361034B41
:1016D00065626061236030BD00B00240010002001D
:1016E000012070474020704700EB811008307047A0
:1016F00000EB8110083070470120704740F67830C9
:10170000704740F6783303FB01000830704740F61D
:10171000783303FB01000830704701207047102028
:10172000704700EB01100830704700EB01100830E3
:101730007047084601F0DCBC10B5034B036004465B
:1017400009F01DF8204610BDB479020810B5044612
:10175000FFF7F2FF2046482122F075F9204610BD20
:1017600010B5034B0360044609F009F8204610BD8C
:101770008079020810B50446FFF7F2FF20464FF4C7
:10178000386122F060F9204610BD000010B5034B0F
:101790000360044608F0F3FF204610BD4C790208B0
:1017A00010B50446FFF7F2FF2046182122F04BF94E
:1017B000204610BD10B5084B0360044600F6AC305F
:1017C000FFF7BAFF04F12C00FFF7CAFF04F1140081
:1017D000FFF7DCFF204610BDE879020808B5024893
:1017E000FFF7E8FF08BD00BFA012002010B50446B7
:1017F000FFF7E0FF204640F6545122F024F920463E
:1018000010BD00002DE9F34101F07AFA054601F020
:101810007BFA00240146234628462246009413F012
:10182000AFF8274B274A1A60204602F0C1FB264D2D
:10183000264B274A27489A6013F008F82B68BFF315
:101840005B8FDB0735D4284622F0FFF888B3224CA3
:10185000224B236004F6F83604F1140004F12C083E
:1018600004F6AC376060C4F80880E760266108F0D1
:1018700087FF1B4B6361404608F082FF194BE36210
:10188000384608F07DFF184BC4F8AC3B04F6F43042
:1018900003F03EF9224604F6F431304602F002FC31
:1018A000304601F025FC114824F034F8284622F097
:1018B000D8F80F4802B0BDE8F041FFF7C7BB00BF42
:1018C000EC3701204C0400209C1200206C04002006
:1018D0005004002008000020A0120020E87902082F
:1018E0004C79020880790208B4790208DD170008F3
:1018F000C4030020704700000148FFF7B5BB00BFDC
:10190000C403002070B5274E274C284D284B236078
:101910003046FFF757FE284618F0B6FA254810F073
:10192000AFFD254B2548DC6000224FF48071C3E9F0
:10193000131223491A63C3E91B1222499A86C3E989
:101940001F012149C3F884102049214883F85C20F5
:10195000C3E90422C3E90622C3E90822C3E90A2233
:10196000C3E90F22C3E91122C3E91522C3E91822F2
:101970009A6683F874209A67C3E901650B60F021C9
:1019800001801448018014484FF4A071018013486D
:10199000018013490A70012283F83820114A1A6025
:1019A00070BD00BFF8040020981200206C040020D5
:1019B000406A020850040020C40300200000010116
:1019C00001000001000450001A00140090370120AB
:1019D0008C370120883701208A3701208637012083
:1019E00082370120107802080148FFF781BC00BF50
:1019F000F80400200020704781807047C180704744
:101A00000181704741817047704770477047704748
:101A1000704710B4C4880368121B84885B6D091B6F
:101A200012B25DF8044B09B218474FF6FF73838179
:101A30004FF0FF3303621368C361106070470020EA
:101A400070478B88838001207047704780F826108C
:101A5000704790F82600704710B50022B1F9084091
:101A6000B1F90A10028042808480C18010BD00223A
:101A7000028042808280C28070470177704780ED8B
:101A8000080A704780F82410704780F825107047C6
:101A900001207047983070478C3070478430704711
:101AA0007047704770470000034B902283F85A2319
:101AB00083F85823704700BF00E100E0094A0A4953
:101AC000D3680A48C3F30A03013B9BB20B80116938
:101AD000C1F30A01013901801364536B43F0010320
:101AE0005363704700680140F61F0020F41F002078
:101AF000014BD3F8AC00704700680140024B012253
:101B0000C3F8AC105A6270470068014010B52C2130
:101B1000044621F098FF204610BD10B5BC210446B4
:101B200021F091FF204610BD70B5044609F02BF955
:101B300023689D6E0FF03AFA01462046A8472368B5
:101B4000054AD3F88C502046AC460023BDE87040CF
:101B5000A2F51631604700BF00B004D009F0FAB812
:101B600009F004B909F0BFB809F02BBA90F82520A4
:101B700012B103685B691847704790F825201AB1C5
:101B800090F8242002B1186070470000034B4FF01A
:101B900080629A604FF080729A60704700E100E0C6
:101BA000084B4FF08062C3F88820BFF34F8FBFF31C
:101BB0006F8F4FF08072C3F88820BFF34F8FBFF351
:101BC0006F8F704700E100E070B50023124E8380F4
:101BD000124B0360336893F85C2005460AB1186D18
:101BE00000B9986803681B6B98473368B0FA80F4B3
:101BF000186D640930B103681B6B9847002808BF53
:101C000044F001042CB9064B064A07482C2123F066
:101C100063FE284670BD00BF90370120FC790208A2
:101C2000516E0208AF6E0208E86E020870B5254ECC
:101C30003568BFF35B8F15F0010540D1304621F0C8
:101C400004FF00283BD0204C204B256104F13400D8
:101C5000C4E90035C4E90255E584A562A58510F004
:101C6000F6FE04F158000BF06DFC194BA3652046FD
:101C7000184B40F8843BFFF7A7FF174BC4F884309C
:101C80002433C4F88C304FF4C803C4E9283500234A
:101C9000C4F8AC30C4F8B030C4F8B430C4F8B830CC
:101CA0000E480F4BC4F89050C4F89C50C4F8A8508C
:101CB000C4F8983023F02EFE304621F0D2FE0248C0
:101CC00070BD00BFF81F0020FC1F0020DC8202084E
:101CD0001C7A0208947A020890820208A51A000869
:101CE0007082020838B5184C23685BB3174B184A4A
:101CF0001B6C11888B4216D1164B198805F01CF904
:101D0000236893F86E200025013283F86E2083F853
:101D10008050FFF7C1FA206809F0ECFD2846BDE8C5
:101D20003840FFF7D7B805F007F924682368204644
:101D30001B6A9847012384F880300020BDE83840B2
:101D4000FFF7F2B838BD00BF9037012000680140AE
:101D5000F61F0020F41F002007B5064BADF8060063
:101D60001B68054801220DF1060105F0D1FE03B004
:101D70005DF804FB0C0000201021002038B5084C51
:101D8000204603F01DFF0A21204603F0B2FF204643
:101D900004F002F80546204603F090FF284638BDBF
:101DA0000423002038B5084C204603F009FF0A211F
:101DB000204603F09EFF204603F0EEFF0546204636
:101DC00003F07CFF284638BDBC2200202DE9F341FA
:101DD000244E254FDFF89480FFF7D0FF0546FFF72C
:101DE000E1FF062D04461AD952238DF807303068DA
:101DF00000231A460DF1070106F04BFC062C1AD9F8
:101E000055238DF80730D8F8000000231A460DF14D
:101E1000070106F03EFC642006F04CFBDCE7022DD7
:101E200094BF4C234E238DF80730002330681A46A8
:101E30000DF10701E0E7032C08D844238DF80730A3
:101E4000002338681A460DF10701E2E74E238DF8AA
:101E500007300023D8F800001A460DF1070106F0FC
:101E600018FCEDE7D0200020C4200020C82000206E
:101E700030B595B0102200210AA823F034FF0021CC
:101E8000142203A823F02FFF00241E4B01941A6C88
:101E900042F080521A641B6C03F080530193019B43
:101EA000194B02941A6842F440421A601B6803F40A
:101EB00040430293029B01224FF48033CDE9082373
:101EC00002254FF480034FF4B472CDE90E5308A8F5
:101ED0000823CDE91032CDE9125305F085F805F05D
:101EE00049F80F23CDE903354FF4A0514FF4805347
:101EF000CDE9061303A80521059405F051FA15B0A4
:101F000030BD00BF00380240007000402DE980481D
:101F10009BB003F06FFDFFF7ABFF142200210DA86B
:101F200023F0E1FE0024C84B00941A6BC74842F02E
:101F300010021A631A6B02F010020092009A0194C8
:101F40001A6B42F020021A631A6B02F0200201920F
:101F5000019A02941A6B42F080021A631A6B02F023
:101F600080020292029A03941A6B42F004021A63EE
:101F70001A6B02F004020392039A04941A6B42F063
:101F800001021A631A6B02F001020492049A05948A
:101F90001A6B42F002021A631A6B02F002020592F7
:101FA000059A06941A6B42F040021A631A6B02F00B
:101FB00040020692069A07941A6B42F008021A63CE
:101FC0001B6B03F00803224607933C21079B04F098
:101FD000C9F99F480122022104F0C4F922469C4815
:101FE000042104F0BFF922469A484FF4405104F00E
:101FF000B9F9224698484FF4005104F0B3F901268C
:102000003C23032591480F940DA90227CDE90D36F5
:10201000109504F0BDF88E480DA9CDE90D764FF06E
:102020000408CDE90F4404F0B3F889480DA9CDE9BF
:102030000D86CDE90F4704F0ABF84FF440538548C7
:102040000DA9CDE90D36CDE90F4704F0A1F881487F
:102050000F940DA9CDE90D8504F09AF84FF40053C3
:102060007D480DA9CDE90D36CDE90F4404F090F877
:102070007A480F940DA9CDE90D6404F089F80DA9F3
:10208000062376480F94CDE90D3504F081F87448A5
:10209000744B754D036003F071FFDFF8ECC1734BB7
:1020A0002C62C5E900C328464FF48043C5E90434D7
:1020B000C5E90244C5E9064404F062FB1021284644
:1020C00004F0A6FD2146284604F0C1FD684DDFF866
:1020D000BCE1AC624FF48273C5E900E34FF40078D1
:1020E0001823C5E9068328460A23C5E90244C5E941
:1020F0000444C5E90844EB6205F0AEFC8F23224698
:10210000394653488DF824308DF8344004F02AF9CC
:1021100032464FF47A7309A9284605F0F9FC4FF4CA
:102120007A7332460DA9284605F09EFE324639469E
:10213000474804F017F99DF83430D32B04BF4D4BBA
:102140001E704D4E4D4B0125C6E900354FF010096C
:1021500040230024C6E904934FF4C073C6E9063453
:102160004FF40063C6E908344FF400534FF00208FF
:102170004FF0040A4FF0030BB3620DA9072330465A
:102180000827CDE90FA3CDE90D83C6E9024ACDE9C1
:1021900011B8CDF84C8005F043FB4FF6FF7209A94A
:1021A0003046CDE90A75089409950C9405F058FB62
:1021B000284603F04BFC4FF6FF7209A93046CDE9E3
:1021C0000987CDE90B5405F04BFB4FF6FF7209A9C7
:1021D0003046CDE909B7CDE90BA405F041FB4FF43A
:1021E0000C730893089B0C934FF6FF7209A93046B5
:1021F000CDE909A70B9505F033FB40F26A51304653
:1022000005F04CFB342221460DEB020023F06BFD60
:102210001B4E1C4B3461C6E900340923C6E9053561
:102220001D23C6E9073B40F20D1240F24313C6E9F5
:10223000092340F2171140F247133046C6E90B1349
:10224000C6E9024424E000BF00380240001002400A
:1022500000080240000C024000180240000002404A
:10226000B42200200030024020220020A08601007D
:1022700010210020BC200020DC200020400100A014
:102280007821002000680140005C004000500140BF
:10229000B48686F8364004F06DFDFF21F022CDE9CA
:1022A00012144FF4806005214FF4A073CDE914019E
:1022B000CDE90E240DA9CDE9164230462246524EF4
:1022C0001893CDE910380D94ADF864408DF8664050
:1022D00004F004FE4D4B33601B68DFF894A198476F
:1022E00033684B4EDB6898474A4B3046C6E90034AA
:1022F000C6E90284C6E90A48C6E90C4403F04EFE6A
:102300002946304603F000FF434E4A4621460DA8B9
:1023100023F0E9FC414BB4604FF4803B3046C6E902
:10232000003B3461347686F82040F462C6F828A079
:10233000F460F56186F83040756103F09BFB0DA9F0
:102340003046CDE90D55364E0F9403F029FD4A462F
:1023500021460DA823F0C7FC324BB4603046C6E9D5
:10236000003BC6E90AA43461347686F82040F46064
:10237000F56186F83040756103F07CFB0DA93046AD
:10238000CDE90D850F9403F00BFD2748274B036023
:1023900005F0FAF9FEF7D2FCFEF7CFFC06F002F8E2
:1023A000234A2946384606F039F9224B224A18605A
:1023B0002946384606F032F9204B214A1860294652
:1023C000384606F02BF91F4B1F4A1860294638463D
:1023D00006F024F91D4B1E4A18602946384606F0BF
:1023E0001DF91C4B1C4A186021461C4806F006F8D3
:1023F0001B4B1C4A186021461B4805F0FFFF1B4B76
:10240000186005F0E1FFFEE7B8200020240000205E
:102410007422002000B0024004230020002001406C
:10242000BC22002000210140682100200008065045
:10243000387B0208D0200020207B0208CC2000201E
:10244000087B0208C8200020F07A0208C42000207F
:10245000D87A0208C0200020747B0208CD1D000835
:10246000D8200020507B02084B0D0008D42000200B
:102470000100000F704770477FB5094B8DF817209A
:102480001B6802930DF117020123009201930A4683
:102490000146044804F01CFA07B05DF804FB00BFD5
:1024A00010000020202200207FB500238DF8173077
:1024B000084B1B6802930A4601230DF11701009196
:1024C00001930146044804F093FA9DF8170007B001
:1024D0005DF804FB10000020202200201FB5084CEE
:1024E00024680092CDE901340A46012301460548DB
:1024F00004F07EFA003818BF012004B010BD00BF00
:10250000100000202022002003F0A0BA10B5064CD5
:1025100000222046042103F025FF20460122BDE8C9
:102520001040042103F01EBF0008024038B50B4DD7
:10253000044601220A484FF4005103F013FF002221
:102540000421284603F00EFF2046FFF705FC28462D
:102550000122BDE83840042103F004BF0008024016
:10256000000C024038B50B4D044600220A484FF4D7
:10257000005103F0F7FE00220421284603F0F2FE8A
:102580002046FFF7E9FB28460122BDE83840042138
:1025900003F0E8BE00080240000C0240F7B5144EFC
:1025A000144F05460C4630460022042103F0DAFEA3
:1025B00000224FF40051384603F0D4FE2846FFF7BE
:1025C000CBFB0D4B0D481B68224601A905F04CFCC6
:1025D000384601224FF40051019C03F0C3FE3046FF
:1025E0000122042103F0BEFE204603B0F0BD00BF6F
:1025F00000080240000C02400C00002010210020C6
:1026000003F024BA0268034B9A4201D103F00CBADA
:10261000704700BF001000407047000082B00E4BB2
:1026200000220092596C41F480415964596C01F4C4
:102630008041009100990192196C41F08051196418
:102640001B6C03F080530193019B0F216FF001007D
:1026500002B003F053BC00BF0038024010B5142292
:102660008AB0044600210DEB020023F03CFB2368F6
:102670001E4A93421FD11E4B002101915A6C42F415
:1026800080725A645A6C02F480720192019A02912B
:102690001A6B42F001021A631B6B03F001030293F1
:1026A000029B022305931348032305A9069303F015
:1026B0006FFD0AB010BD104A9342FAD10C4B0021B5
:1026C00003915A6C42F400725A645A6C02F400721C
:1026D0000392039A04911A6B42F001021A631B6B76
:1026E00003F001030493049B0423DBE70020014073
:1026F0000038024000000240002101400268094BFE
:102700009A4282B00BD100230193074B1A6B42F41B
:1027100080521A631B6B03F480530193019B02B038
:10272000704700BF003002400038024007B50F4B31
:1027300002689A4216D10022A3F5F0430192196B68
:1027400041F4000119631B6B03F40003019305219D
:102750005A20019B03F0D2FB5A2003B05DF804EB32
:1027600003F0FEBB03B05DF804FB00BF00B0024005
:102770002DE9F043044689B01422002103A823F078
:10278000B2FA2268244B9A4243D1244C24480025B3
:102790000095236B43F004032363236B03F00403CE
:1027A0000093009B0195236B43F001032363236B8C
:1027B00003F001030193019B4FF012094FF40073E2
:1027C0004FF001080327042603A9CDE90339CDE919
:1027D0000587079603F0DCFC4FF4807311480796D9
:1027E00003A9CDE90339CDE9058703F0D1FC0295B2
:1027F000236C43F400032364236C03F4000302936B
:10280000029B236A43F400032362236A23F4000338
:10281000236209B0BDE8F083005C0040003802404C
:102820000008024000000240F0B599B004461422AE
:10283000002107A823F057FA30220DEB02000021F7
:1028400023F051FA22685E4B9A4240F0B780082389
:102850000C93C0231093042312930CA84FF400335D
:10286000159304F065FE08B1FFF7D6FE554B5648A8
:10287000002400945A6C42F080625A645A6C02F050
:1028800080620092009A01941A6B42F020021A634F
:102890001A6B02F020020192019A02941A6B42F024
:1028A00001021A631A6B02F001020292029A039467
:1028B0001A6B42F002021A631A6B02F002020392D0
:1028C000039A04941A6B42F040021A631A6B02F0E6
:1028D00040020492049A05941A6B42F004021A63AF
:1028E0001A6B02F004020592059A06941A6B42F0E4
:1028F00008021A631B6B03F00803069302250E26D9
:10290000069B0B964FF4806307A9CDE90735CDE907
:10291000094503F03DFC41F658032C480B9607A9E6
:10292000CDE907350927CDE9094503F031FC03233B
:1029300027480B9707A9CDE90735CDE9094503F0ED
:1029400027FC4FF4706322480B9607A9CDE90735A1
:10295000CDE9094503F01CFC4FF40C631D480B96B0
:1029600007A9CDE90735CDE9094503F011FCC023DE
:1029700019480B9607A9CDE90735CDE9094503F0BC
:1029800007FC082315480B9607A9CDE90735CDE9C3
:10299000094503F0FDFB4FF4A0530E480B9707A920
:1029A000CDE90735CDE9094503F0F2FB5820224671
:1029B000052103F0A3FA582003F0D2FA19B0F0BDB4
:1029C000006801400038024000140240000002404C
:1029D000000402400018024000080240000C0240BF
:1029E0000268094B9A4282B00BD100230193074B36
:1029F0005A6B42F040025A635B6B03F04003019351
:102A0000019B02B0704700BF00080650003802402A
:102A100010B5044688B01422002103A823F063F9FE
:102A20002268144B9A4223D103F568430021019197
:102A30005A6C114842F480125A645A6C02F48012A3
:102A40000192019A02911A6B42F020021A631B6BE9
:102A500003F020030293029B4FF4607202230321D0
:102A6000CDE903230523CDE9061303A903F090FB69
:102A700008B010BD00500140001402402DE9F041A3
:102A800086B0002303932B4B1C68002C4FD14FF0D2
:102A90000108C3F80080284B00949A6B274842EA4B
:102AA00008029A639B6B03EA08030093022703263C
:102AB0000C25009B01A94FF63F03CDE90137CDE975
:102AC000046503F065FB1E48059501A9CDE9018762
:102AD000CDE9034603F05CFB48F233131948059532
:102AE00001A9CDE90137CDE9034603F051FB4FF6CB
:102AF00083731548059501A9CDE90137CDE9034652
:102B000003F046FB4CF203731048059501A9CDE98B
:102B10000137CDE9034603F03BFB60230C480595E4
:102B200001A9CDE90137CDE9034603F031FB06B039
:102B3000BDE8F0814C230020003802400014024020
:102B4000000802400018024000100240000C024041
:102B50000004024070B588B000230293204B1A6C29
:102B600042F010021A641B6C03F010030293054636
:102B700001A903A8029B04F0BDFC069B4BBB04F01B
:102B8000A9FC184E184B336040F2E733F360174B43
:102B9000B0FBF3F3013B7360304600233361B36055
:102BA000B36105F02BFB044680B9304605F000FA0E
:102BB000044658B9362003F0D3F90F2D0DD822461C
:102BC0002946362003F09AF9094B1D60204608B0CB
:102BD00070BD04F07FFC4000D3E70124F6E700BF9E
:102BE00000380240502300200010004040420F00F7
:102BF0008C0000207047FEE7FEE7FEE7FEE7704727
:102C0000014805F013BA00BF50230020014804F02A
:102C100008B900BF78210020014803F0EBB900BFDC
:102C2000742200200120704708B523F019F91623FB
:102C300003604FF0FF3008BD08B523F011F91623EB
:102C40000360FEE770B50D4614460E46731B9C42AA
:102C500001DC204670BDAFF3008006F8010BF5E7FC
:102C600070B50D4614460E46731B9C4201DC20468F
:102C700070BD16F8010BAFF30080F5E74FF0FF30A1
:102C800070474FF400534B6000207047012070479D
:102C9000002070470A4A116808B5034609B9094976
:102CA00011601068694603448B4206D923F0D8F8B6
:102CB0000C2303604FF0FF3008BD1360FCE700BF3A
:102CC00098230020C8440120704710B50421044611
:102CD00020F0B9FE204610BD012908B506D0022912
:102CE00008D059B901F0B0F9006808BD01F0ACF99D
:102CF0004068FAE701F0A8F98068F6E70020F4E7F9
:102D000000487047AC7B02081320704713B50024BD
:102D100051B1036801948DF8034001AA9C680DF13C
:102D20000303A04702B010BD0846FBE7C089704707
:102D3000008A7047C088704780887047807A00F0AA
:102D40007F007047807AC0097047002070470000FC
:102D50009FED010A704700BF00000000806A7047C5
:102D6000704710B50821044620F06DFE204610BDC6
:102D70007047704700F598730868496803C3704747
:102D8000704770474160704770477047064BC0F806
:102D90004C310023C0F8503100F5A273C0F848014F
:102DA000C0F84031704700BF252F0008012303728F
:102DB00070477047704710B4C268416854100346AA
:102DC00001EB6200D20748BF0A599B685DF8044BCB
:102DD00048BFD35818470346406830B19A681AB9BB
:102DE000D86800F0010070470120704710B50C2131
:102DF000044620F028FE204610BD10B510210446E0
:102E000020F021FE204610BD10B54FF4AE710446EF
:102E100020F019FE204610BD10B54021044620F0D8
:102E200012FE204610BD10B50EF0C0F80368BDE8D4
:102E30001040DB6B18470000054B1B7801462BB197
:102E4000406818B103680C315B6E1847704700BFCB
:102E500083370120037A70B50546BBB94068036823
:102E6000DB69984704463CB96868036805F10C01C2
:102E70001B6EBDE870401847A1886B8FC91A236884
:102E800020461B6B09B29847A469ECE770BD10B5EA
:102E90000446D0F8400158B10368DB68984738B160
:102EA000D4F8400103689B6898470023C4F8403178
:102EB00010BD70B5044690F8390094F838300130F0
:102EC000C0B2984284F8390005D901232372002347
:102ED00084F8393070BDB4F93A20002110F009FAB5
:102EE000C30706D500284FF6FF73C8BF0123184457
:102EF00000B2238AC01AA08760680368DB6998471C
:102F000005462DB960680368BDE870405B691847E5
:102F1000A988A38F19442B6828461B6B09B29847D0
:102F2000AD69EEE72DE9F14FD0E9556A0746B06883
:102F300003681B6A9847B0F5A47F05D2444B454A05
:102F4000A321454822F0C8FC706803681B6A9847B3
:102F50000F2803D8414B3F4AA421F2E7F0680368E9
:102F60001B6A98470B2803D83D4B3A4AA521E8E74E
:102F70000EF01CF8DFF8F09004300EF057F8D9F896
:102F8000000010B10368DB689847D9F8000010B161
:102F900003681B689847DFF8D480D8F8000010B1A8
:102FA00003685B699847D7F83C0110B103685B6818
:102FB0009847D8F8000010B103681B689847D7F805
:102FC0003C0110B103689B689847F06803680021D2
:102FD0005B6A98474FF0000B224BC0F804B00446E0
:102FE00080F808B00360B068036859465B6A984788
:102FF000054601F041FD7068036859465B6A9847D1
:103000002946064601F0E0FC331DC7F83C61C9F8CB
:103010000040C8F80050CAF800302B68C6F808A075
:103020002846DB68EE639847336830461B6898474C
:103030002146284610F057F9236820461B69984717
:1030400023685B69204601B0BDE8F04F184700BF18
:10305000826F020810700208E87002082F710208DF
:10306000D2710208AC7D0208D8370120DC3701207C
:10307000044B1B6893F85C200AB1186D00B998687E
:10308000704700BF90370120F8B5174604460E463A
:103090000EF09EF8124B1C60124B2360124B002561
:1030A000C4E95135114BC4E953551868036801212F
:1030B0009B68C4E94F55C4E955769847284600F007
:1030C00077FFFFF7D5FF18F08EFDFFF7D1FF18F05F
:1030D00005FEFFF7CDFF18F00DFE2046F8BD00BF3E
:1030E000E0370120587D0208407D0208903701201A
:1030F000064BC0F84C310023C0F8503100F5A273E4
:10310000C0F84801C0F84031704700BF252F0008C3
:10311000064BC0F84C310023C0F8503100F5A273C3
:10312000C0F84801C0F84031704700BF01330008C3
:10313000064BC0F84C310023C0F8503100F5A273A3
:10314000C0F84801C0F84031704700BFC5310008E1
:103150002DE9F04105460026164B4660067245F8FB
:103160000C3B044628460F460AF086FA124B84F8B8
:1031700038701B7884F83960A68723B9012323723D
:103180002046BDE8F0810D4B0D4FB3F90080E36898
:10319000B7F900109B6B266128469847E3684146C3
:1031A000DB6B2846984728460AF0E2F93B885B42E9
:1031B0006387E5E7D07D0208833701208A37012045
:1031C0008C3701202DE9F047D0E9556A0746B068F1
:1031D00003681B6A984740F67733984205D8414BFD
:1031E000414AA321414822F077FB706803681B6ABB
:1031F00098470F2803D83E4B3B4AA421F2E7F068DA
:1032000003681B6A98473F2803D83A4B364AA521E2
:10321000E8E70DF0CBFEDFF8E09004300DF006FF9C
:10322000D9F8000010B10368DB689847D9F80000AE
:1032300010B103681B689847DFF8C080D8F8000019
:1032400010B103685B699847D7F83C0110B1036877
:103250005B689847D8F8000010B103681B6898476E
:10326000D7F83C0110B103689B689847F068036881
:1032700000215B6A984714210446FFF769FFB06894
:10328000036800215B6A9847054600F08FFF70686D
:10329000036800215B6A98472946064600F01AFF3A
:1032A000331DC7F83C61C9F80040C8F80050CAF89F
:1032B00000302B68C6F808A02846DB68EE63984704
:1032C000336830461B6898472146284610F00BF8B3
:1032D000236820461B699847236820465B69BDE840
:1032E000F0471847826F020875720208E8700208FA
:1032F0002F710208D2710208D8370120DC37012073
:103300002DE9F047D0E9556A0746B06803681B6AA3
:103310009847B0F5A47F05D2414B424AA3214248C9
:1033200022F0DAFA706803681B6A98470F2803D8FE
:103330003E4B3C4AA421F2E7F06803681B6A9847B9
:103340003F2803D83A4B374AA521E8E70DF02EFE77
:10335000DFF8E09004300DF069FED9F8000010B1FC
:103360000368DB689847D9F8000010B103681B6850
:103370009847DFF8C480D8F8000010B103685B6993
:103380009847D7F83C0110B103685B689847D8F8B4
:10339000000010B103681B689847D7F83C0110B1D2
:1033A00003689B689847F068036800215B6A984748
:1033B00014210446FFF7CCFEB068036800215B6A65
:1033C0009847054601F058FB7068036800215B6A66
:1033D00098472946064601F0F7FA331DC7F83C61C5
:1033E000C9F80040C8F80050CAF800302B68C6F889
:1033F00008A02846DB68EE639847336830461B68B0
:103400009847214628460FF06EFF236820461B6927
:103410009847236820465B69BDE8F047184700BF1E
:10342000826F020860730208E87002082F710208B8
:10343000D2710208D8370120DC370120704770476D
:1034400070477047704730B5036885B06D4601819D
:10345000D3F88430014604462846984795E807008B
:103460003C3484E8070005B030BD30B5036885B052
:103470006D464181D3F8843001460446284698477A
:1034800095E807003C3484E8070005B030BD002211
:10349000028042808280C280704780F83610704778
:1034A00070B5036804461B6B154698472368294688
:1034B00020465B6EBDE87040184700207047806C66
:1034C0007047704770477047704730B4C2684468AF
:1034D0005510034604EB6200D20748BF62599B684F
:1034E00030BC48BFD35818470346406830B19A688B
:1034F0001AB9D86800F0010070470120704710B574
:103500004C21044620F09FFA204610BD10B5102132
:10351000044620F098FA204610BD10B54FF44071D3
:10352000044620F090FA204610BD08B5FEF71EFBB9
:1035300008BD0000036870B55E6B124B1B68044643
:103540008DB22BB9104B114A6C21114822F0C4F9ED
:103550001049828D0988914203D80F4B0B4A6D2187
:10356000F3E713F812200D4B1B6853F82200036891
:103570001B6B9847291A3346204609B2BDE87040B4
:10358000184700BFF03701204B7402088D74020801
:10359000C8740208E43701200F750208E8370120DB
:1035A0009830884208B505D10DF000FDBDE808400F
:1035B000FFF7AEBD08BD00224FF0FF31C0E900218A
:1035C0008260704770B5036804461B6B15469847C8
:1035D0002368294620465B6BBDE87040184770B5EC
:1035E00004461D46BDF91060FFF7ECFF236829462D
:1035F00020469B6B9847236831462046DB6BBDE82D
:10360000704018470022C0E90122C0E90322C0E946
:103610000522C0E907224FF480728284014A0260C9
:10362000704700BFF47D020838B5262204460D46D7
:10363000002122F058FB2046FFF7E4FF064B2360F1
:103640002B88E384FF23204684F8283029460AF09B
:103650004CFE204638BD00BF84850208F8B5194BE2
:10366000018F1B888B4206462AD9174B1B682BB942
:10367000164B174A17486C2122F02EF913F8112027
:10368000154B1B6853F82250144B186800F0CCFC03
:103690002B6807469B6B284698472B6804469B6C13
:1036A0003946284698472B6814FB00F45B6A394674
:1036B00028469847A4B223181BB2A6F84630F8BD96
:1036C0000023FAE7E4370120F03701204B740208A9
:1036D0008D740208C8740208E8370120EC37012015
:1036E00010B526220446002122F0FDFA2046FFF7FD
:1036F00089FF0A4B23600A4BA3624FF6FF73A38531
:103700004FF47F020023C4E90C3223874FF0FF32CD
:10371000C4E91023E363204610BD00BF8C84020877
:10372000307D02082DE9F04F044693B0A0460025F5
:103730000FF03EFC984BE56348F8403B26222946B3
:10374000404622F0D0FA4046FFF75CFF934B2364DB
:1037500004F16C0BFF234FF6FF7604F1980A84F80E
:10376000663010A95846A56604F1E009ADF840603E
:10377000FFF75AFF50460AF045FF48460AF042FF5D
:1037800004F5947310A918460793ADF84060FFF74D
:103790004BFF04F5AA7310A918460893ADF84060D2
:1037A000FFF742FF04F5C07310A918460993ADF85E
:1037B0004060FFF739FF04F5D6731846784F05933C
:1037C000FFF78EFF04F5FC73C4F8AC711846C4F81B
:1037D000F4510693FFF784FF04F51173C4F8F871F0
:1037E0001846C4F840520393FFF77AFF04F5237399
:1037F00010A918460493ADF84060FFF715FF694B18
:10380000C4F88C324FF0FF370123C4E9AF73664B25
:10381000C4F8B852C4E9BC34644B84F8C452C4E957
:10382000BE354FF4A0732A46404600932946F02344
:10383000FFF7D5FE261D4FF07F43A3664146304675
:1038400006F0B1FF2A4658462946FFF7BBFE584608
:1038500010A9ADF840500AF048FD5946304606F030
:10386000A2FF5046BD222321FFF7ACFE4FF0020815
:1038700010AA0FA950464FF0030BADF83C80ADF8ED
:1038800040B00AF00AFC05235046A4F8D030FFF7F8
:10389000E5FE04F53C73C4F8C03051463046C4E937
:1038A000357706F080FF4846BD222321FFF78AFEC8
:1038B00010AA0FA94846ADF83C80ADF840B00AF018
:1038C000ECFB4FF00103A4F818314846FFF7C6FEA1
:1038D00049463046C4E9477706F065FF012207985C
:1038E000CC21FFF76FFE4FF00D090798ADF840901F
:1038F00010A90AF0FAFC0799304606F054FF01229D
:103900000898A921FFF75EFE0898ADF8409010A92D
:103910000AF0EBFC0899304606F045FF01220998B1
:103920008621FFF74FFE0998ADF8409010A90AF0E4
:10393000DCFC0999304606F036FF1D230422059869
:10394000009307216023FFF74AFED4F8AC310599B4
:10395000D3F88430C4F8DC710DF128094846A4F886
:10396000E051984799E8070004F5F47383E80700ED
:103970000F4B1B6804F5327A2BB90E4B0E4A6021AF
:103980000E4821F0A9FF0E4B1B88022B1CD80D4BB3
:10399000094A6121F4E700BF047F02081C85020880
:1039A0005C7E020810840208EC7E0208A135000843
:1039B000F03701204B7402084D750208C8740208E4
:1039C000E43701200F750208414B41461868DFF8C3
:1039D000088100F029FB3F4A03460A21504610F0B7
:1039E00028FF04230598C4F8F4A110A9ADF84430C9
:1039F0004FF0220ACDF840800AF0F2FA05993046DD
:103A000006F0D1FE0698CDF800A073222946F023D7
:103A1000FFF7E5FDD4F8F8310699D3F88430C4F8FF
:103A200028724846A4F82C52984799E8070004F5F4
:103A30000D7383E8070004F53773C4F84032069825
:103A4000A4F8DC5210A9CDF84080ADF844B00AF0DB
:103A5000C7FA0699304606F0A6FE0398CDF800A0F6
:103A6000F02373222946FFF7BAFD0399C4F8747254
:103A70004846A4F8785209F0DFFF99E8070004F5FA
:103A8000207383E807000398CDF8408010A9ADF8B3
:103A900044500AF0A5FA0399304606F084FE0498D3
:103AA0000122D021FFF78EFD0A220498092109F096
:103AB000C6FE0498012109F0D4FE3046049984F82A
:103AC000B45206F070FE204613B0BDE8F08F00BF80
:103AD000EC37012098750208307D0208406A704773
:103AE000806A704770478A880B8810B5D20A4C8864
:103AF000C1699BB251F8220043EA0443184410BD47
:103B000010B50446BAB1107B68B1537BD27A1B0260
:103B100003F4E0631A43236A03EB82031A888A42A0
:103B200002D193F9020010BD05D8013880B20433E8
:103B30000028F3D1F7E70020F5E710B52C21044663
:103B40001FF081FF204610BD30B58BB00446BDF894
:103B500060500895BDF85C5007959DF8505006954B
:103B60009DF84C5005959DF8485004959DF844509B
:103B700003959DF8405002959DF83C500195BDF885
:103B8000385000950FF020F8064B2360159BE36139
:103B9000169B2362199B63621A9BA36220460BB09B
:103BA00030BD00BF387F020870477047704730B49F
:103BB000C26844685510034604EB6200D20748BF50
:103BC00062599B6830BC48BFD358184703464068C9
:103BD00030B19A681AB9D86800F001007047012026
:103BE000704710B5102104461FF02DFF204610BD70
:103BF00010B54FF48E7104461FF025FF204610BD0E
:103C0000C430884208B505D10DF0D0F9BDE80840B0
:103C1000FFF78EBA08BD00002DE9F74F04460FF0FC
:103C2000C7F94A4B23604A4B0025C4E910354FF4CD
:103C3000807304F16C09A4F86430FF2384F86630C3
:103C400004F198084FF6FF7601A9C4E91255C4E9BA
:103C50001455C4E91655E5632566A5664846ADF8D2
:103C60000460FFF7E1FC01A9ADF80460404604F1EF
:103C7000C406FFF7D9FC30460AF0C4FC354BC4E952
:103C80004334354B04F1400AC4E945352A462946F8
:103C90005046FFF797FC5046F021FDF7B1FE271D77
:103CA00050464FF07F4B4FF4A071FDF7ABFE5146ED
:103CB0003846C4F868B006F076FD2A4629464846DC
:103CC000FFF780FC0E2301A94846ADF804300AF046
:103CD0000CFB4946384606F066FD1B22404614217F
:103CE000FFF770FC122301A94046ADF804300AF03A
:103CF000FCFA4146384606F056FD3046BB222321E9
:103D0000FFF760FC022301AA6946ADF80030304697
:103D10000323ADF804300AF0C0F90623A4F8FC3000
:103D20003046FFF79BFC4FF0FF33C4F8043104F535
:103D300086733846C4F800B1C4F8EC30314606F05A
:103D400032FD204603B0BDE8F08F00BFB87F020807
:103D50001C850208A07F0208013C00087047000093
:103D600030B5164D2C6814F001048FB0BFF35B8F93
:103D700020D128461FF069FEE0B13F230993104B84
:103D80000893104B104911480A940122CDE90643CB
:103D90000423CDE903320A230093CDE90B44CDE996
:103DA00001440594FFF7D0FE094821F0B3FD2846F1
:103DB0001FF057FE05480FB030BD00BF9C23002008
:103DC000F89F020828A002085C9E0208A023002099
:103DD0005D3D00087047000030B5164D2C6814F0AA
:103DE00001048FB0BFF35B8F21D128461FF02DFE59
:103DF000E8B13F230993104B0893104B1049114829
:103E00000A94CDE9064301220423CDE903321823A5
:103E100000931B22CDE90B44CDE901440594FFF743
:103E200093FE094821F076FD28461FF01AFE05484A
:103E30000FB030BDCC230020FC9F02082CA002084C
:103E40006C9E0208D0230020D53D0008704700007A
:103E500030B5164D2C6814F001048FB0BFF35B8FA2
:103E600020D128461FF0F1FDE0B13F230993104B0C
:103E70000893104B104911480A940122CDE90643DA
:103E80000423CDE9033228230093CDE90B44CDE987
:103E900001440594FFF758FE094821F03BFD2846F0
:103EA0001FF0DFFD05480FB030BD00BFFC23002030
:103EB00024A0020830A00208E89F02080024002085
:103EC0004D3E000800207047002070470EB403B537
:103ED00003AB002153F8042B01930EF0F9F802B064
:103EE0005DF804EB03B070470CB407B504AB53F8AE
:103EF000042B01930EF0ECF803B05DF804EB02B074
:103F000070470000436C10B5044673B3038F2BB9A0
:103F1000184B194AC521194821F0DEFCC38E00EB6D
:103F200043035B8C0BB30FF021FF238F012B03D8CE
:103F3000134B144ACB21EEE7E28E531C9BB2092BA4
:103F4000194688BFA3F10A0104EB410140F63F1076
:103F5000498C814209D10A2B04EB420228BF00237D
:103F600004EB4303508C588451842046BDE8104034
:103F70000FF0FFBD9B750208A47502084F7602087A
:103F800099760208A77602080FF0BBBD10B586B07F
:103F900002AC84E806001A460AAB05930193099B1C
:103FA00000932146089B0CF076FB06B010BD000084
:103FB00038B518BB124B13481C681349B4B12268BA
:103FC00022440260626822440A60A26814440F4BD3
:103FD00000221A8000F038F8054600F033F80C4B48
:103FE0001C600C4B1D600C4B188007E00B4B0360F2
:103FF0000B4B0B600B4B1C68002CE8D138BD00BF8D
:1040000038240020302400202C24002034240020D8
:10401000F0370120E8370120E437012050A00208E2
:1040200034A00208E47F0208044B1B6853F8210007
:10403000034B1B6803EB4000704700BF2C2400209B
:104040003024002007207047004870473C2400209F
:1040500010B5FFF7C1FE044C2060FFF7F9FE606069
:10406000FFF77EFEA06010BD3C24002010B50024A8
:1040700004600C6014601C6010BD704710B54FF4F4
:10408000AE7104461FF0DFFC204610BD10B504469B
:10409000D0F8580100F03FFD2046BDE810400DF07B
:1040A00027B8000010B50446FEF7EEFF014B236071
:1040B000204610BDF07F02087047043870477047F3
:1040C00010B5102104461FF0BEFC204610BDA0F123
:1040D0000400F5E700228260024A02601832426062
:1040E000C16070474480020810B50D4C206818B1BB
:1040F00004F0C8F9002323600A4B01221A600A4A1F
:1041000000231370094A1370094A1370094A137087
:10411000094A938003239385084BD36010BD00BFE9
:104120004C2400201C000020592400205224002090
:1041300051240020482400205C2900206400C8008D
:10414000134B70B5044603604FF4326540F66816B1
:10415000B54205D0635960191B6898472C3DF7E7B5
:10416000635960191B682C3D9847B5F5F66FF7D178
:104170004FF4F465635960191B683C3D9847B5F5E9
:104180003C7FF7D12046FFF79EF9204670BD00BF67
:104190006C80020810B50446FFF7D2FF204640F6B7
:1041A00078311FF050FC204610BD00002DE9F04F83
:1041B00005468DB0FFF7B6FA05F5407A774B2B60D0
:1041C0004FF6FF7769465046ADF80070FFF72CFABE
:1041D00005F54B79DFF8CCB105F2DC784C460026CA
:1041E00020466946ADF80070FFF71EFA0123C4F8B7
:1041F00000B0E6622786678684F8343084F835603C
:1042000084F8366084F8376084F838603C3444457C
:10421000E6D105F6941B26464FF6FF7730466946F1
:104220002C36ADF80070FFF7FFF95E45F6D1D846A1
:1042300005F64C374FF6FF764046694608F12C08E4
:10424000ADF80060FFF7F0F9B845F5D16946404692
:10425000ADF80060524EFFF7E7F9684600F080FDC8
:10426000BDF80430B380BDF91C30039AB383089BBA
:10427000F2603362049A099B32617362059A0A9B69
:1042800072612F1D069AB3626846BDF82C30B38563
:10429000B26100F077FD384605F1980106F0FAFAB0
:1042A000384605F5FC7106F0F5FA384605F1E001EF
:1042B00006F0F0FA384605F5117106F0EBFA3846CB
:1042C00005F16C0106F0E6FA002269464046ADF8B9
:1042D00000200AF00AF8002211464046FFF772F962
:1042E000002285F8712B3846414606F05CFA10230F
:1042F00069465046ADF8003009F0F7FFB6F90E20D8
:10430000B6F90C105046FFF75DF93846514606F0F5
:104310004AFA052704F5DC76212240F241113046A5
:10432000FFF750F9D4F8B83169461B6EADF800704C
:10433000304698472046212240F24111FFF742F9CA
:10434000236801221B6EADF80020204669462C34FC
:1043500098475C45DED100240326B4FBF6F303EB5B
:104360004303E31A012B13D0022B14D00822072198
:10437000484609F064FA01344846142109F071FAFC
:10438000142C09F13C09E8D128460DB0BDE8F08FA6
:104390000A220921ECE70C220B21E9E76C800208D4
:1043A0005C290020108402082DE9F041051D00F56C
:1043B000D67804464146284604F5C07706F06AFAE6
:1043C0004146284606F0EFF93946284604F5AA7614
:1043D00006F060FA3946284606F0E5F931462846E7
:1043E00006F058FA04F594743146284606F0DBF9D5
:1043F0002146284606F04EFA2146284606F0D3F913
:1044000040460DF08DFF38460DF08AFF30460DF026
:1044100087FF2046BDE8F0410DF082BF2DE9F04F47
:104420004A4E8FB00446306804F094F90546002DDA
:1044300040F082809DF81280454DB8F1010F2BD1DC
:10444000DFF8249199F80030002B4DD1261D04F19E
:1044500098073946304606F0A6F904F5FC7AAB8891
:104460003C4A0A2104F5377010F0E3F95146304612
:1044700006F099F938460DF053FF50460DF050FF05
:1044800030460DF04DFF344B89F8008083F80080F2
:10449000324B186803F0F6FF9DF81230022B23D13F
:1044A000DFF8C48098F80030F3B9261D04F1E00766
:1044B0003946304604F5117906F075F9494630461B
:1044C00006F071F938460DF02BFF48460DF028FF35
:1044D00030460DF025FF204A0123137088F8003084
:1044E0001E4B186803F0CEFF1D4F4FF000083868D0
:1044F0008DF8138004F02EF904F54076002843D09F
:104500004FF0FF33386842460DF1130104F0F2F822
:104510009DF81330522B29D1B5F92810114800F01D
:10452000B7FC1123304605A9ADF8143009F0DDFEC3
:10453000386804F011F927E0002330681A460DF1BD
:10454000120104F0D7F8013D71E700BFC020002040
:104550005C29002079770208512400204C24002097
:10456000D020002064290020482400204E2B40F059
:104570005481C148414600F08BFC102305A9304608
:10458000ADF8143009F0B1FEBC4FDFF82C83386869
:1045900004F0E0F8A8B14FF0FF33386800220DF1C5
:1045A000130104F0A7F89DF81330552B40F03D811E
:1045B000B148B5F9281000F06DFCD8F8000004F0FF
:1045C000CBF8D8F8000004F0C5F8B0B14FF0FF33D5
:1045D000D8F8000000220DF1130104F08BF89DF8CB
:1045E0001330442B40F02981A96AA348494209B2FB
:1045F00000F050FC386804F0AFF83046B5F90E20F2
:10460000B5F90C109E4FFDF704FA04F2DC7904F6BC
:10461000941B4E4604F10408B7F91030022B00F049
:104620001481042B00F02281012B07D13368B7F9E4
:1046300006209B6DB7F90410304698472C365E452E
:1046400007F11C07E8D18F4F5E4604F64C3A04F19F
:104650000408B7F91030022B00F03081042B00F071
:104660003E81012B07D13368B7F906209B6DB7F95E
:104670000410304698472C36564507F11C07E8D100
:1046800004F5966304F54B7A03937F4ECDF804A0AE
:10469000231DA0460293B6F91030022B00F02581AD
:1046A000042B00F03D81012B08D1D8F82C33B6F94A
:1046B00006209B6DB6F9041001989847019B3C3386
:1046C0000193039B08F13C08984506F12406E2D1CA
:1046D0006E4AB5F92C3011788B4204F1040616D0DD
:1046E000DBB21370502284F8502184F87C2184F8C6
:1046F000A821002B00F01F81FF22012B84F85021FC
:1047000005D0022B84F87C2118BF84F8A821AB883F
:104710005F4A0A2104F5327010F08BF830460DF034
:10472000FFFD94F80C31002B74D05A4D286818B155
:1047300003F0A8FE00232B60574B02221A60574A51
:1047400000231370564A1370564A1370564A13705A
:10475000012384F8713B04F64C300DF0E1FD642038
:1047600003F0A8FE2046FFF71FFE00F0E3FD04F271
:10477000DC77514630460AF13C0A06F08BF8BA4520
:10478000F7D14946304606F085F809F5DC71304628
:1047900009F12C0906F07EF8D945F2D104F1E008C0
:1047A00004F511774146304606F074F83946304634
:1047B00006F070F840460DF0B3FD38460DF0B0FD40
:1047C00030460DF0ADFD04F5C0700DF0A9FD04F507
:1047D000AA700DF0A5FD04F594700DF0A1FD04F58F
:1047E000D6700DF09DFD0024304B8DF81240202234
:1047F000214606A81C6021F076FA2D4B05934FF454
:1048000080421823CDE90A232A4805AA214603F04D
:10481000F5FD28600FB0BDE8F08FA96A164849423F
:1048200009B200F035FB0F237CE64E2B7FF4C9AEB6
:104830001148002100F02EFBC3E64E2B7FF4DDAEC5
:104840000D48002100F026FBD7E63368B7F90620B3
:104850009B6DB7F90410304698473146404605F045
:10486000A2FF0121384600F051FAE7E63146404602
:1048700006F010F80321F5E764290020C820002085
:10488000442800202C2700205C2400201400002055
:10489000797702084C2400201C00002059240020B5
:1048A0005224002051240020482400202000002011
:1048B0007C77020865500008C42000203368B7F9EF
:1048C00006209B6DB7F904103046984731464046A4
:1048D00005F069FF0121384600F018FACBE63146B1
:1048E000404605F0D7FF0321F5E7D8F82C33B6F999
:1048F00006209B6DB6F9041001989847D8F82C3320
:1049000001985B6E1F4601231A460021B847DDE976
:10491000011005F048FF0121304600F0F7F9CDE61F
:10492000D8F82C3301989B6E9847DDE9011005F00B
:10493000B1FF0321F0E730460DF0F2FCE7E600BFDF
:1049400010B5134C8AB0FEF7BFFD206803F09AFD46
:10495000104B186803F000FF2022002102A821F06C
:10496000C2F90D4B01934FF480421823CDE9062381
:10497000002101AA094803F041FD094A20600023F3
:104980001370084A1370084A13700AB010BD00BFB4
:104990004C240020C02000207C77020865500008CD
:1049A000522400205124002048240020704704385D
:1049B0007047704710B5102104461FF044F8204698
:1049C00010BDA0F10400F5E700228260024A0260F7
:1049D00018324260C1607047A0800208704770B50D
:1049E000044600F16C06304604F58E750DF098FC17
:1049F00028460DF095FCB4F87220B4F8223102324A
:104A000012B2B2F5A07FA4F8722003F10203A8BF8E
:104A1000B4F8762099B2A8BF8A1A1BB2A8BFA4F82E
:104A20007220B3F5A07FA4F82231A2BFB4F876209B
:104A3000B4F872309B1A3046A8BFA4F822310DF0AA
:104A40006FFC2846BDE870400DF06ABC10B5034B02
:104A500003600446FFF7A9F8204610BDC88002088D
:104A600010B50446FFF7F2FF20464FF4A4711EF084
:104A7000EAFF204610BD000013B50446FFF7CCF84E
:104A8000104B23600023C4E94833C4E94A33C4E926
:104A90004C33C4E94E334FF480734FF6FF72A4F8E1
:104AA0004031094BC4F81C3104F58E70A4F8422142
:104AB00084F8442101A9ADF8042009F016FC204631
:104AC00002B010BDC88002088485020837B50446CC
:104AD00004F58E75FFF76AF8B4F89230ADF804303B
:104AE00001A9284609F001FCB4F87620B4F8723028
:104AF0009B1AB4F87020A4F8202104F16C012A4616
:104B0000201DA4F8223103B0BDE8304005F0DBBE23
:104B1000002202607047704710B5034B03600446E3
:104B200000F0E0F8204610BDFC80020810B50446F5
:104B3000FFF7F2FF20461C211EF085FF204610BD26
:104B400010B5044600F0D8F8064B23604FF4C87344
:104B5000A3614FF018110023C4E90213024B236133
:104B6000204610BDFC80020803009001B0F9083017
:104B700010B5B0F904405B429C420BDBF02C09DC21
:104B8000B0F90A30B0F906205B429A4202DBB2F576
:104B9000A07F05DD0423038283694382002010BDCA
:104BA000438A591A09B200294182F7DC83891C44DF
:104BB000C38984801A448369C28043820120EEE75E
:104BC00010B5034B0360044600F08CF8204610BD7E
:104BD0001081020810B50446FFF7F2FF2046242199
:104BE0001EF031FF204610BD10B5044600F084F8D9
:104BF000094B23604FF020120023C4E90223074A27
:104C000022614FF4167146F2A812C4E90612A2827C
:104C10002362204610BD00BF108102080300580225
:104C2000B0F90820B0F904305242934210B504465E
:104C30000FDBF02B0DDCB4F90A20B0F90600C2F14D
:104C4000FF2202F57F02F632904202DBB0F5A07F30
:104C500007DD04232382E369A382A3696382002022
:104C600010BD628A511A09B200296182F7DCE2891B
:104C70001044B4F9202000B2012AE0801AD1FBF7D9
:104C800083FD10A3D3E90023FBF702FB41EC100BDB
:104C90001EF0EEFE0A4B51EC100B0022FBF7F8FA67
:104CA000FBF764FE638C03441BB2A380A369638299
:104CB0000120D5E7A2891344F6E700BFAFF30080D7
:104CC000000049409A9999999999A93F838A591A5C
:104CD00009B20029D8BFC3698182DABF838201206B
:104CE0000020704770470020704710B51821044617
:104CF0001EF0A9FE204610BD034A02600322028274
:104D00004FF02012826070472481020801827047B0
:104D10008180C28070478181C2817047B0F90420D0
:104D2000B0F9083010B5B1F904401344A34215DDC1
:104D3000B1F9083023449A4210DAB0F90630B0F9DC
:104D40000A20B1F906401A44A24207DDB1F90A204F
:104D500022449342ACBF0020012010BD0020FCE79C
:104D600010B5054B0360002304468380083000F033
:104D700033F8204610BD00BF3881020883881944EB
:104D80008180704710B5044B044640F8083B00F0A2
:104D90000FF8204610BD00BF3881020810B5044648
:104DA000FFF7F0FF204630211EF04DFE204610BDDB
:104DB00010B5034B03600446FFF794FF204610BD77
:104DC0004881020810B50446FFF7F2FF204628216B
:104DD0001EF039FE204610BD10B50446FFF78CFFCB
:104DE00003210A480A4B2162A1844FF01C11C4E937
:104DF000010142F21072236000214FF4C873C4E92C
:104E00000632E160A2826382204610BD6800040180
:104E100048810208438A591A09B2002941821FDCDD
:104E200082888389C1891A44C38812B20B441BB299
:104E300081698280002AC380418207DA0022828051
:104E4000002B07DA0023C38001207047D02AF7DD4A
:104E5000D022F4E7B3F5907FF6DD4FF49073F2E7DC
:104E60000020704710B504461046B4F91430002BEA
:104E700003DC38B1E369A38205E0591A09B20029BD
:104E8000A182F6DD002010BD838C5B1A83847047FD
:104E900081817047C18170472DE9F743DFF88C901D
:104EA000214CD9F80030DFF888801B1A0546C9F874
:104EB000003014260027B4F91030032B0AD02946FD
:104EC0002046FFF7ADFE013E04F12404F3D103B008
:104ED000BDE8F083D9F80030002BF4DC01A940468E
:104EE000019702F069FC00B10197019BB422B3FB6A
:104EF000F2F102FB11311E31C3F3002389B2238486
:104F000061844FF6E0722046FFF702FF0122002184
:104F10002046FFF700FF02212046FFF7F7FE42F28E
:104F20001073C9F80030CEE75C2400202000002078
:104F3000682100202DE9F843012106461748184C46
:104F4000DFF86480DFF8649001F006FA431E5A42ED
:104F500014485A413146FFF785FF04F58C77054622
:104F6000B4F91030032B08D031462046FFF7FEFD80
:104F70001C34BC42F4D1BDE8F88365B1B8F8002018
:104F8000B9F80010103A204692B2FFF7C1FE022194
:104F90002046FFF7BBFE0025EAE700BF0000024005
:104FA0004428002064290020542400205624002096
:104FB0002DE9F843274B284E1A68284B1B68022B13
:104FC00008BF01320C2AA8BF0C2207464FF0000987
:104FD0004FF01C0895B2B6F91030012B10D13946AC
:104FE0003046FFF773FE58B11D4A00231446B2F94C
:104FF000101003291BD001330A2B02F11C02F6D139
:1050000009F10109B9F1140F06F12406E3D1144C9A
:105010000A25B4F91030012B03D139462046FFF799
:10502000A5FD013D04F11C04F3D1BDE8F883F2882D
:10503000B18808FB03441032204692B2FFF768FEA5
:1050400020462A460021FFF766FE02212046FFF790
:105050005DFED5E7180000205C2400201C00002025
:105060002C2700202DE9F04FA24CDFF8BC92002540
:1050700085B0257089F800509F4B4FF6CE72EF181F
:1050800011463846FFF744FE9C4B4FF6CE72EE18A1
:1050900011463046FFF73CFE4FF6FB7200213846C2
:1050A000FFF739FE052200213046FFF734FE0321C9
:1050B0003846FFF72BFE1C3503213046FFF726FE4E
:1050C000B5F58C7FD8D1DFF86482002645464FF6CF
:1050D000CE7211462846FFF71BFE013628460321F3
:1050E000FFF714FE142E05F12405F0D1844D00279E
:1050F00084484FF4005101F02FF9012807F101070E
:1051000008D1814A13680B2B04DC0133C8201360DB
:1051100003F0D0F923784BB199F80030002BE7D099
:105120007A4B01221A7005B0BDE8F08F012FD4BF71
:1051300018461F46764BAA89764E1A80764BEA8926
:105140001A80C8BF01203070FFF7A6FE317873487F
:10515000FFF760FE3078FFF7EDFE3078FFF728FFAD
:105160006E4946464FF0140AB6F910B0BBF1010F74
:105170007ED13046FFF7D2FD6849002878D06748D5
:105180005946FFF781FE04213046FFF7BFFD634813
:105190004FF482726821FFF7BBFD46464FF0140AB8
:1051A000B6F91030012B2AD1DFF84CB10A22BBF935
:1051B00010300093012B62D1594630460192FFF71F
:1051C000ADFD019A00285AD004213046FFF79EFD1C
:1051D00004215846FFF79AFD05212846FFF7CEFD2A
:1051E000009A48484FF4005101F0BCF8322003F017
:1051F00061F9444800224FF4005101F0B3F8BAF1CC
:10520000010A06F12406CBD13C4E44494FF00A0A6C
:10521000B6F910B0BBF1010F36D13046FFF77EFD75
:105220003E4988B33D485946FFF72EFE04213046DB
:10523000FFF76CFD39484FF482726821FFF768FD73
:10524000B5F92C30002B25DC01252570344C99F85C
:105250000030002B7FF464AF20688DF80F501A46A1
:105260000DF10F0103F015FA322003F023F9EEE7F8
:10527000BAF1010A06F124067FF476AF8DE7013A10
:105280000BF11C0B93D1BAE7BAF1010A06F11C0627
:10529000BED1D5E7224B234E18683368012B1ED1AF
:1052A000AA881D2A1BD9DFF888A023708AF800304D
:1052B00002238DF80F3000231A460DF10F0103F081
:1052C000E8F9237813B19AF8003023B90223336048
:1052D000002323700CE70A2003F0ECF8F1E73023F9
:1052E0008DF80F3000231A460DF10F0103F0D1F9AC
:1052F000FEE600BF52240020442800202C27002076
:105300005C290020001802401800002058240020CA
:10531000562400205024002054240020642900201A
:10532000C02000201C000020512400205C2400200C
:105330005924002070B5214C00254FF6CE7211463D
:105340002046FFF7E5FC013520460321FFF7DEFC90
:10535000142D04F12404F0D1194E0024A5194FF6A0
:10536000CE7211462846FFF7D3FC2846154D03217F
:10537000FFF7CCFC25444FF6CE7211462846FFF7C6
:10538000C7FC1C3403212846FFF7C0FCB4F58C7F12
:10539000E4D10D4C0D4BE360002104F10800FFF750
:1053A00077FD002104F10800FFF774FD084A00238F
:1053B0001360084A1370084A137070BD5C24002003
:1053C000442800202C2700205C2900206400C8000D
:1053D00020000020522400205124002038B50F481E
:1053E0000F4DFFF7BDFC002428191C34FFF7A8FB64
:1053F000B4F58C7FF8D10B4D002428191C34FFF72D
:105400009FFBB4F58C7FF8D1074D00242819243474
:10541000FFF7EAFBB4F5347FF8D138BD5C290020F2
:10542000442800202C2700205C240020164838B592
:105430001524013CA0F1240512D114480B24013C91
:10544000A0F11C0514D112480B24013CA0F11C054D
:1054500015D0D0F8FC30FC305B6898472846F4E75C
:10546000D5F8D03200F52B705B6898472846E0E706
:10547000D5F81831FC305B6898472846DFE7BDE86F
:1054800038400448FFF77EBC5C2400202C27002015
:10549000442800205C290020F02070474FF4A070C1
:1054A00070472920FDF75EB82820FDF75BB808B5E6
:1054B000FDF72CF8CA20FDF755F8C320FDF736F8A4
:1054C0000820FDF733F85020FDF730F8CF20FDF726
:1054D00049F80020FDF72AF8C120FDF727F8302011
:1054E000FDF724F8ED20FDF73DF86420FDF71EF8E8
:1054F0000320FDF71BF81220FDF718F88120FDF7B7
:1055000015F8E820FDF72EF88520FDF70FF80020AC
:10551000FDF70CF87820FDF709F8CB20FDF722F80D
:105520003920FDF703F82C20FDF700F80020FCF7E8
:10553000FDFF3420FCF7FAFF0220FCF7F7FFF7200D
:10554000FDF710F82020FCF7F1FFEA20FDF70AF83C
:105550000020FCF7EBFF0020FCF7E8FFB120FDF78F
:1055600001F80020FCF7E2FF1B20FCF7DFFFB6206C
:10557000FCF7F8FF0A20FCF7D9FFA220FCF7D6FFC2
:10558000C020FCF7EFFF1020FCF7D0FFC120FCF794
:10559000E9FF1020FCF7CAFFC520FCF7E3FF452018
:1055A000FCF7C4FF1520FCF7C1FFC720FCF7DAFFAA
:1055B0009020FCF7BBFF3620FCF7D4FFC820FCF797
:1055C000B5FFF220FCF7CEFF0020FCF7AFFFB020C4
:1055D000FCF7C8FFC220FCF7A9FFB620FCF7C2FF0A
:1055E0000A20FCF7A3FFA720FCF7A0FF2720FCF769
:1055F0009DFF0420FCF79AFF2A20FCF7B3FF002050
:10560000FCF794FF0020FCF791FF0020FCF78EFFD1
:10561000EF20FCF78BFF2B20FCF7A4FF0020FCF70A
:1056200085FF0020FCF782FF0120FCF77FFF3F2071
:10563000FCF77CFFF620FCF795FF0120FCF776FFD6
:105640000020FCF773FF0620FCF770FF2C20FCF70E
:1056500089FFC820FCF7D4FF2620FCF783FF012038
:10566000FCF764FFE020FCF77DFF0F20FCF75EFFF6
:105670002920FCF75BFF2420FCF758FF0C20FCF7E7
:1056800055FF0E20FCF752FF0920FCF74FFF4E207C
:10569000FCF74CFF7820FCF749FF3C20FCF746FF65
:1056A0000920FCF743FF1320FCF740FF0520FCF71F
:1056B0003DFF1720FCF73AFF1120FCF737FF0020D1
:1056C000FCF734FFE120FCF74DFF0020FCF72EFF34
:1056D0001620FCF72BFF1B20FCF728FF0420FCF70B
:1056E00025FF1120FCF722FF0720FCF71FFF3120C8
:1056F000FCF71CFF3320FCF719FF4220FCF716FFD4
:105700000520FCF713FF0C20FCF710FF0A20FCF724
:105710000DFF2820FCF70AFF2F20FCF707FF0F20C2
:10572000FCF704FF1120FCF71DFFC820FCF768FF01
:105730002920FCF717FFBDE808402C20FCF712BF1A
:1057400008B5FCF7E3FE0321D320FCF727FF80B266
:1057500008BD10B5C4B2022203212046FCF78CFE1E
:105760000A20FCF7D1FE204600220321FCF784FE2C
:10577000BDE810400220FCF7C7BE38B50446E4B2CD
:10578000FCF778FE00212046FCF78EFE012105463D
:105790002046FCF789FE40EA052080B238BD10B5EE
:1057A000C4B240212046FCF77FFE030607D54C21FA
:1057B0002046FCF779FE003818BF012010BD0122F9
:1057C0004B212046FCF758FE204600224B21FCF7D7
:1057D00053FE0020F2E773B50423C4B20E4615460B
:1057E000D7210DEB03022046FCF778FE019B1BBA84
:1057F0001A0DC3F30B23328020462B8001224B214C
:10580000FCF73AFE00224B212046FCF735FE02B0A1
:1058100070BD000010B50A4A1378984204460DD0B6
:10582000517888420AD00BB141B90123D454FCF716
:1058300021FE2046BDE81040FFF78BBF10BD00BF22
:105840008C29002010B5C4B209212046FCF72CFE9B
:1058500040F00102D2B220460921BDE81040FCF719
:105860000BBE10B5C4B209212046FCF71DFE09216C
:1058700000F0FE022046BDE81040FCF7FDBD38B543
:10588000C4B20D4620460A21FCF70EFE40EA05028E
:10589000D2B220460A21BDE83840FCF7EDBD10B574
:1058A0000446FCF7E8FD20461F21FFF7E8FF2046ED
:1058B000BDE81040FFF7C6BF38B5C4B20D4620465C
:1058C0000A21FCF7F1FD20EA0502D2B220460A21A6
:1058D000BDE83840FCF7D0BD10B50446FFF7C1FF66
:1058E00020461F21BDE81040FFF7E6BF10B5C0B24B
:1058F0000C460B21FCF7D8FD204010BD1F21FFF7FF
:10590000F5BF0A46C0B20B21FCF7B6BD1F21FFF759
:10591000F8BF38B5C4B20D4620461721FCF7C4FDC8
:1059200020EA0502D2B220461721BDE83840FCF734
:10593000A3BD70B5C4B2064604212046FCF7B4FDF1
:10594000042100F0FB0205462046FCF795FD304699
:10595000F021FFF7DEFF05F0F80220460421FCF7F6
:105960008BFD492220212046FCF786FD0220FCF712
:10597000CBFD204601222121FCF77EFD20469A2204
:105980004121FCF779FD204601224A21FCF774FDF4
:10599000204601224B21FCF76FFD204600224B21BF
:1059A000FCF76AFD204601225621FCF765FD2046E2
:1059B00001225821FCF760FD204601224021FCF71E
:1059C0005BFD2046FF220B21FCF756FDBDE8704031
:1059D0000220FCF799BD0000054BD3F8882042F463
:1059E0007002C3F888204FF000629A60704700BFD1
:1059F00000ED00E008B50B4B1A6842F400721A6023
:105A00001A6842F480621A601A6842F480721A605E
:105A1000032000F061FA0020FDF79CF8FCF7FEFD82
:105A2000002008BD003C0240034A044B11681B786B
:105A30000B441360704700BF9029002088000020AD
:105A4000014B1868704700BF9029002038B5044604
:105A5000FFF7F6FF631C1CBF054B1B78054618BFFC
:105A6000E418FFF7EDFF431BA342FAD338BD00BF94
:105A70008800002038B50446002800F09B80056CA3
:105A800025B9FCF7EBFD656484F83C50236CDB061C
:105A900000F18E80236C23F4885323F0020343F03B
:105AA00002032364444B5A6822F440325A605A6815
:105AB00061680A435A60236821695A6822F4807237
:105AC0005A605A6842EA01225A605A68A16822F074
:105AD00040725A605A680A435A609A68E16822F430
