:020000040800F2
:1000000000000320BD050008C9240008CB24000817
:10001000CD240008CF240008D124000800000000EF
:1000200000000000000000000000000061830008E4
:10003000D324000800000000F1830008197C0008A8
:100040000D0600080D0600080D0600080D06000844
:100050000D0600080D0600080D0600080D06000834
:100060000D0600080D0600080D0600080D06000824
:100070000D0600080D0600080D0600080D06000814
:100080000D0600080D0600080D0600080D06000804
:100090000D0600080D0600080D0600080D060008F4
:1000A0000D0600080D0600080D0600080D060008E4
:1000B0000D0600080D0600080D0600080D060008D4
:1000C0000D0600080D0600080D0600080D060008C4
:1000D0000D0600080D0600080D0600080D060008B4
:1000E0000D0600080D0600080D0600080D060008A4
:1000F0000D0600080D0600080D0600080D06000894
:100100000D0600080D0600080D0600080D06000883
:100110000D0600080D060008D52400080D0600088D
:100120000D0600080D0600080D0600080D06000863
:100130000D0600080D0600080D0600080D06000853
:100140000D0600080D0600080D0600080D06000843
:100150000D0600080D0600080D0600080D06000833
:100160000D0600080D0600080D0600080D06000823
:100170000D0600080D0600080D060008000000002E
:100180000D0600080D0600080D0600080D06000803
:100190000D0600080D0600080D0600080D060008F3
:0C01A000E12400080D060008ED24000812
:1001B00010B5054C237833B9044B13B10448AFF3A1
:1001C00000800123237010BD800300200000000088
:1001D0001C52020808B5034B1BB103490348AFF397
:1001E000008008BD00000000840300201C520208AB
:1001F00001F0FF01102A2BDB10F0070F08D010F8D8
:10020000013B013A8B422DD010F0070F42B3F6D1DB
:10021000F0B441EA012141EA014122F007047FF0F4
:1002200000070023F0E80256083C85EA010586EA4B
:10023000010685FA47F5A3FA87F586FA47F6A5FA87
:1002400087F68EB9EED1F0BC01F0FF0102F0070293
:1002500032B110F8013B013A83EA010313B1F8D13E
:100260000020704701387047002D06BF354603381F
:10027000073815F0010F07D1013015F4807F02BF58
:10028000013015F4C03F0130F0BC0138704700BFA9
:1002900053B94AB9002908BF00281CBF4FF0FF31ED
:1002A0004FF0FF3000F088B9ADF1080C6DE904CED5
:1002B00000F006F8DDF804E0DDE9022304B0704741
:1002C0002DE9F047089D8E4604468846002B4AD10A
:1002D0008A42174662D9B2FA82F64EB1C6F12003BD
:1002E00001FA06F820FA03F3B74043EA0808B440DD
:1002F0004FEA174E1FFA87FCB8FBFEF1230C0EFBEA
:10030000118843EA084301FB0CF29A4209D9FB1811
:1003100001F1FF3080F0EA809A4240F2E780023932
:100320003B449A1AA3B2B2FBFEF00EFB102243EA42
:10033000024300FB0CFC9C4509D9FB1800F1FF327D
:1003400080F0D6809C4540F2D3803B44023840EA9E
:100350000140A3EB0C0300211DB1F3400022C5E9CD
:100360000032BDE8F0878B4205D90DB1C5E9000127
:1003700000210846F5E7B3FA83F1002946D1734519
:1003800002D3824200F20581841A6EEB030201203F
:100390009046002DE5D0C5E90048E2E7002A00F0CC
:1003A0009080B2FA82F6002E40F0A4808A1A030CE4
:1003B0004FEA174E80B2BCB20121B2FBFEFC0EFB2D
:1003C0001C2243EA024304FB0CF29A4207D9FB18B1
:1003D0000CF1FF3802D29A4200F2E080C4469B1A28
:1003E000B3FBFEF20EFB123340EA034302FB04F4BC
:1003F0009C4207D9FB1802F1FF3002D29C4200F266
:10040000CA8002461B1B42EA0C40A5E7C1F1200648
:100410008B4022FA06F71F430EFA01F420FA06F386
:100420002EFA06FE4FEA1749234300FA01F81FFA95
:1004300087FCBEFBF9F01C0C09FB10EE44EA0E44ED
:1004400000FB0CFEA64502FA01F209D93C1900F1A5
:10045000FF3A80F09C80A64540F2998002383C44E7
:10046000A4EB0E041FFA83FEB4FBF9F309FB13445B
:100470004EEA044403FB0CFCA44508D93C1903F1E3
:10048000FF3E80F08280A4457FD9023B3C4443EA92
:100490000040A4EB0C04A0FB02EC64457346E1466B
:1004A00062D35FD05DB1B8EB030264EB090404FAD8
:1004B00006F622FA01F31E43CC40C5E90064002190
:1004C0004FE7B1FBF2FC010C41EA0E4180B240EA79
:1004D00001423B4638463C46B846BE462026B1FB64
:1004E000F7F1A2EB080241EA0C4166E7014618E782
:1004F00010462CE7C6F120022EFA02F3B740B140B5
:1005000020FA02F24FEA174E0A43B3FBFEF8BCB2E0
:100510000EFB1833110C41EA034108FB04F9B0400B
:1005200089454FEA104380B23ED9791808F1FF3C63
:1005300001D289451FD8A1EB0901B1FBFEF909FBE6
:1005400004F80EFB191192B242EA0142424529D247
:10055000BA1809F1FF31C4D24245C2D2A9F1020151
:100560003A44BEE7F0459DD2BEEB02036CEB070CAC
:100570000138E14696E7A7EB09094944A8F1020CC6
:10058000B1FBFEF909FB04F8DBE773467FE7504651
:1005900066E70846FDE63B44023A33E7ACF1020C5D
:1005A0003B441CE749469CE7A1EB0901C446B1FB6B
:1005B000FEF909FB04F8C4E7704700BFDFF834D048
:1005C000002103E00C4B5B58435004310B480C4BAB
:1005D00042189A42F6D30B4A02E0002342F8043B49
:1005E000094B9A42F9D304F03FFE24F05DF801F084
:1005F000F7F8704700000320A4780A0800000020E4
:10060000700100208003002078440120FEE770473D
:1006100008B500F0D9FDBDE8084000F05DBD00F070
:10062000D5BD704710B50421044622F054FE204683
:1006300010BD000038B50C4B0C4C18800C4B8220C0
:1006400019806368984740F6110398420AD1094D12
:1006500023682C60822098472B688220DB689847AB
:10066000002038BD0120FCE7A60300205C0000202C
:10067000A4030020A80300204FF4A071F020FFF78E
:10068000D9BF0000F7B5394D2B6804461B6982209D
:100690009847208000284ED02B680DF106025B6938
:1006A00001A982209847324B1B78002B4BD0BDF814
:1006B000062040F674639A423FD9ADF80630BDF883
:1006C00006209B1A9BB20A2B42D90B22B3FBF2F3F2
:1006D000284A1288934201D9013A93B2BDF8042006
:1006E000254840F6B8318A4234D8C2F571620E32DC
:1006F000016892B20F25B2FBF5F2204D2D88AA4277
:1007000084BF05F1FF35AAB28A4215468EB22AD9B6
:10071000921B91B21A4E3768BB42BAB28CBF9A1A7A
:10072000D21A92B211440529C4BF05603360036830
:1007300063803368A38003B0F0BDB32A9CBFB422AA
:10074000ADF80620BBE7BDF80630A3F5B473B9E7F2
:100750000023C3E7C2F56D62083292B20E2A016827
:10076000C8D800252A46891A89B2D3E7A8030020F1
:10077000BC200020A4030020A0030020A60300202A
:100780009C03002037B568460D461446FFF77AFFF4
:10079000BDF8000030B1BDF802302B60BDF8043068
:1007A0002360012003B030BD032821D8DFE800F02A
:1007B000020B12190F4B1A68B2FA82F25209042185
:1007C0000D4805F017BA0B4B5A68B2FA82F252097B
:1007D0000821F5E7074B9A68B2FA82F25209102114
:1007E000EEE7044BDA68B2FA82F252092021E7E719
:1007F000704700BFAC03002000100240032821D83E
:10080000DFE800F0020B12190F4B1A68003A18BF0C
:10081000012204210D4805F0EDB90B4B5A68003A4E
:1008200018BF01220821F5E7074B9A68003A18BF64
:1008300001221021EEE7044BDA68003A18BF0122CA
:100840002021E7E7704700BFAC0300200010024002
:1008500003280DD8DFE800F00206080A0421054845
:1008600005F0CDB90821FAE71021F8E72021F6E7D5
:10087000704700BF0010024008B5032811D8DFE818
:1008800000F0020A0C0E0421074805F0ADF9431EE2
:100890005842584108BD0821F6E71021F4E720210D
:1008A000F2E70020F3E700BF0010024070B5084DEA
:1008B00000240126E0B2FFF7DFFF18B12B68012BFF
:1008C00018BF2E600134052C05F10405F2D170BD6E
:1008D000AC030020012380F87C1080F87D30704745
:1008E00070470000034B8164003918BF0121197063
:1008F000704700BF33370120704700207047C36B3B
:100900000BB10846184770474FF6FF7070474068B4
:1009100003689B6918477047704770477047704776
:1009200010B5044600F06AFD23680349D3F89030FF
:100930002046BDE810401847000000D008B5036805
:100940000446D3F88430984723682046DB6F9847E5
:1009500000F018F9236820465B6F9847292001F0C2
:100960006BFA00F00FF9236820465B6F9847F8E7B1
:1009700010B504460AF006FC23682046D3F8BC30C4
:10098000BDE81040184700F01DBD00F021BD00F08B
:1009900053BD00F0F3BC00F063BD00F06BBD00F090
:1009A000F7BC000010B505480C46012105F01CF904
:1009B00001280CBF2070002010BD00BF00000240C5
:1009C00009F0D3BD10B58821044622F084FC2046EE
:1009D00010BD000010B590F8381090F87C400C4B1A
:1009E0008C421A7809D03AB90A4A0B491488088807
:1009F00010800C8001221A7010BD002AFCD0054A1C
:100A000005491488088810800C800022F3E700BF95
:100A1000323701203C3701203A37012008B5094B15
:100A20001B888B4203D8084B1B88934205D9074B80
:100A3000074A0848A52123F06DFB074B1980074B97
:100A40001A8008BD3C3701203A3701208C52020839
:100A5000EF5202083253020838370120363701209E
:100A60002DE9F0410D460446194635B9154B164A95
:100A7000164840F2013123F04DFBC0E910520368E3
:100A8000134ED3F89030003A18BF012232709847C5
:100A9000E569A5B12B681F68337873B123682046D8
:100AA0005B6B9847236C834207D1616C094B2846E6
:100AB0001A883B46BDE8F0411847216CF6E7BDE8CF
:100AC000F08100BF77530208AF5302083253020887
:100AD0003437012038370120034690F87E0018B1E2
:100AE000586803681B68184770470000012108B563
:100AF0000022084607F032F90A4B186028B90A4B61
:100B00000A4A28210A4823F005FB0022042101207B
:100B100007F0CCF9074B186018B9074B034A2C2192
:100B2000F0E708BDC0030020FD5302084654020848
:100B300075540208BC030020DD540208024B4FF03C
:100B4000FF31186807F054B9C0030020014B186842
:100B500007F07AB9C0030020024B0021186807F0A3
:100B600047B900BFC0030020FFF7F0BF03480449A6
:100B7000006800231A4607F0D4B900BFBC03002068
:100B80000400002013B5084C00231A4601A9206870
:100B900007F0F8F920684FF0FF33002201A907F0B1
:100BA000F1F902B010BD00BFBC03002003685B6C0C
:100BB00018470120704703689B6A1847FEE740F218
:100BC000EF307047054B0360054B4FF08062C3F870
:100BD0008820BFF34F8FBFF36F8F704738610208D3
:100BE00000E100E010B504464FF45A61FFF7EAFF58
:100BF000204622F070FB204610BD000082B000238A
:100C000001930E4B1A6B42F400021A631A6B02F442
:100C100000020192019A1A6942F400021A611A69EB
:100C200022F400021A61064B064A5A61064A1A610A
:100C3000064B4FF080629A6002B070470038024065
:100C400074220020BD0B0008890E000800E100E0BE
:100C500008B50A2809D8DFE800F006100E080808D1
:100C6000081010101000022008BD054B054A064868
:100C7000912123F04FFA0020F6E70120F4E700BFAE
:100C80001F5502083A5502088555020838B50C462A
:100C9000887FFFF7DDFFA58AE28A114B216958633F
:100CA00042EA05425A64628BD963521B1A64256872
:100CB000082D0ED19A611A615862207F094A42EAD2
:100CC0000062DA61E2681A62074A5961D9601A6003
:100CD00038BD0022D8611A61E2689A63034AF6E7D8
:100CE00000B00240090001000123020001230300BB
:100CF00008B50B280BD8DFE800F00612100A0A0A24
:100D00000A0808080808022008BD0520FCE7054B72
:100D1000054A0648702123F0FDF90020F4E7012080
:100D2000F2E700BF1F550208EB550208855502087F
:100D30002DE9F04191F81D800C464046FFF7D8FFA1
:100D4000A77F05463846FFF7D3FF06463846FFF72C
:100D50007FFFA18A628B444B521A1A649A61228BDC
:100D6000521A1A61E28A586342EA01425A642169BE
:100D70006268D963DA602068802828D0227F0FD883
:100D8000202867D0402865D004281AD0364B45EA81
:100D9000026545F40035B845DD6161D0334A44E071
:100DA000B0F5807F04D0B0F5007FEFD1304800E08F
:100DB000304840EA0262DA61E2681A625E625961B2
:100DC00032E045EA026242F40032DA61F6E7A068F6
:100DD000021DDA62227F45EA026545F40035DD61D5
:100DE0005E625961017841B1012921D0224B234A29
:100DF000234840F21B1123F08DF9DA69418822F46F
:100E00007F42013922F0100242EA0122DA61012117
:100E1000154BDA6942F02002DA61DA699206FCD4F5
:100E200010229A600029B9D0164A1A60BDE8F081F4
:100E3000B2F1FF01DA69408822F47F4200F1FF300D
:100E400022F0100242EA002242F0100218BF0121F3
:100E5000DA61DDE745EA0262034B42F40032B4E7AF
:100E600042F20132E1E700BF00B00240012301007D
:100E7000090002000A000200355602084F56020817
:100E80008555020801230200024B1B68586803685D
:100E90005B6918474037012070B5044625460A4B68
:100EA0000C30002660602672667245F8203B602296
:100EB00029460AF0D1FA04F55A63EE6024359D42C2
:100EC000FBD1204670BD00BF38610208034B1A6891
:100ED000D207FCD423229A60704700BF00B00240C2
:100EE0007047000030B50F4C2568ED07FCD4232572
:100EF0000904A56041F001010225FF2B65636164CF
:100F0000E0630AD00849656241EA0363E361074B85
:100F100022626061E060236030BDE561039BA363F2
:100F2000034BF8E700B00240090001000100020095
:100F30000100030030B50E4C2568ED07FCD42325D5
:100F40001204A56042F001020225FF2B6563626472
:100F5000E063E16008D01B0643F00213E361054B38
:100F600065626061236030BD034BE3610123F9E7F3
:100F700000B0024001000200020002FF30B50B4C3D
:100F80002568ED07FCD4232512041B06A56043F455
:100F90000033022542F0010265636264E063E160B0
:100FA000E361034B65626061236030BD00B00240C5
:100FB00001000200012070474020704700EB8110C3
:100FC0000830704700EB81100830704701207047EF
:100FD00040F67830704740F6783303FB0100083064
:100FE000704740F6783303FB01000830704701205A
:100FF00070471020704700EB01100830704700EB7D
:10100000011008307047084601F0DCBC10B5034BF6
:101010000360044608F0FBFF204610BDF0610208A3
:1010200010B50446FFF7F2FF2046482122F053F99D
:10103000204610BD10B5034B0360044608F0E7FFDF
:10104000204610BDBC61020810B50446FFF7F2FF50
:1010500020464FF4386122F03EF9204610BD0000D2
:1010600010B5034B0360044608F0D1FF204610BDC5
:101070008861020810B50446FFF7F2FF20461821E8
:1010800022F029F9204610BD10B5084B0360044634
:1010900000F6AC30FFF7BAFF04F12C00FFF7CAFFEF
:1010A00004F11400FFF7DCFF204610BD24620208A3
:1010B00008B50248FFF7E8FF08BD00BFA0120020F6
:1010C00010B50446FFF7E0FF204640F6545122F0E9
:1010D00002F9204610BD00002DE9F34101F07AFA33
:1010E000054601F07BFA00240146234628462246A5
:1010F000009413F08DF8274B274A1A60204602F01F
:10110000C1FB264D264B274A27489A6012F0E6FF7E
:101110002B68BFF35B8FDB0735D4284622F0DDF860
:1011200088B3224C224B236004F6F83604F11400F5
:1011300004F12C0804F6AC376060C4F80880E7605E
:10114000266108F065FF1B4B6361404608F060FFB5
:10115000194BE362384608F05BFF184BC4F8AC3B10
:1011600004F6F43003F03EF9224604F6F43130463A
:1011700002F002FC304601F025FC114822F0E8FFA5
:10118000284622F0B6F80F4802B0BDE8F041FFF75C
:10119000C7BB00BF9C3701204C0400209C120020DC
:1011A0006C0400205004002008000020A012002041
:1011B0002462020888610208BC610208F06102082A
:1011C000B1100008C4030020704700000148FFF779
:1011D000B5BB00BFC403002070B5274E274C284D77
:1011E000284B23603046FFF757FE284618F094FA44
:1011F000254810F08DFD254B2548DC6000224FF47A
:101200008071C3E9131223491A63C3E91B122249EF
:101210009A86C3E91F012149C3F884102049214857
:1012200083F85C20C3E90422C3E90622C3E908224B
:10123000C3E90A22C3E90F22C3E91122C3E9152237
:10124000C3E918229A6683F874209A67C3E9016596
:101250000B60F02101801448018014484FF4A07104
:1012600001801348018013490A70012283F8382055
:10127000114A1A6070BD00BFF804002098120020C7
:101280006C0400207C52020850040020C40300209B
:101290000000010101000001000450001A001400C8
:1012A000403701203C370120383701203A370120F0
:1012B00036370120323701204C6002080148FFF721
:1012C00081BC00BFF8040020002070478180704777
:1012D000C1807047018170474181704770477047F6
:1012E00070477047704710B4C4880368121B848825
:1012F0005B6D091B12B25DF8044B09B218474FF63B
:10130000FF7383814FF0FF3303621368C361106082
:101310007047002070478B8883800120704770479A
:1013200080F82610704790F82600704710B500220C
:10133000B1F90840B1F90A10028042808480C1806E
:1013400010BD0022028042808280C28070470177F7
:10135000704780ED080A704780F82410704780F8C5
:101360002510704701207047983070478C307047C7
:10137000843070477047704770470000034B9022DD
:1013800083F85A2383F85823704700BF00E100E038
:10139000094A0A49D3680A48C3F30A03013B9BB2CE
:1013A0000B801169C1F30A01013901801364536B89
:1013B00043F001035363704700680140F61F0020AB
:1013C000F41F0020014BD3F8AC00704700680140C7
:1013D000024B0122C3F8AC105A627047006801400A
:1013E00010B52C21044621F076FF204610BD10B523
:1013F000BC21044621F06FFF204610BD70B50446A5
:1014000009F009F923689D6E0FF018FA014620468D
:10141000A8472368054AD3F88C502046AC460023E1
:10142000BDE87040A2F51631604700BF00B004D09F
:1014300009F0D8B809F0E2B809F09DB809F009BA86
:1014400090F8252012B103685B691847704790F83F
:1014500025201AB190F8242002B1186070470000CE
:10146000034B4FF080629A604FF080729A60704731
:1014700000E100E0084B4FF08062C3F88820BFF322
:101480004F8FBFF36F8F4FF08072C3F88820BFF388
:101490004F8FBFF36F8F704700E100E070B50023FE
:1014A000124E8380124B0360336893F85C2005462C
:1014B0000AB1186D00B9986803681B6B98473368C8
:1014C000B0FA80F4186D640930B103681B6B98475B
:1014D000002808BF44F001042CB9064B064A07480F
:1014E0002C2122F017FE284670BD00BF4037012096
:1014F000386202088D560208EB560208245702088B
:1015000070B5254E3568BFF35B8F15F0010540D1EE
:10151000304621F0E2FE00283BD0204C204B2561D4
:1015200004F13400C4E90035C4E90255E584A5623C
:10153000A58510F0D4FE04F158000BF04BFC194BBC
:10154000A3652046184B40F8843BFFF7A7FF174BD5
:10155000C4F884302433C4F88C304FF4C803C4E991
:1015600028350023C4F8AC30C4F8B030C4F8B43027
:10157000C4F8B8300E480F4BC4F89050C4F89C50D3
:10158000C4F8A850C4F8983022F0E2FD304621F0AB
:10159000B0FE024870BD00BFF81F0020FC1F0020F5
:1015A000186B020858620208D0620208CC6A02086E
:1015B00079130008AC6A020838B5184C23685BB38D
:1015C000174B184A1B6C11888B4216D1164B198881
:1015D00005F0FAF8236893F86E200025013283F8AD
:1015E0006E2083F88050FFF7C1FA206809F0CAFD29
:1015F0002846BDE83840FFF7D7B805F0E5F824687D
:10160000236820461B6A9847012384F88030002015
:10161000BDE83840FFF7F2B838BD00BF40370120C1
:1016200000680140F61F0020F41F002007B5064B9C
:10163000ADF806001B68054801220DF1060105F012
:10164000AFFE03B05DF804FB0C0000201021002069
:1016500038B5084C204603F0FBFE0A21204603F073
:1016600090FF204603F0E0FF0546204603F06EFFA2
:10167000284638BD0423002038B5084C204603F026
:10168000E7FE0A21204603F07CFF204603F0CCFF52
:101690000546204603F05AFF284638BDBC220020EC
:1016A0002DE9F341244E254FDFF89480FFF7D0FF5A
:1016B0000546FFF7E1FF062D04461AD952238DF89F
:1016C0000730306800231A460DF1070106F029FCA7
:1016D000062C1AD955238DF80730D8F800000023BE
:1016E0001A460DF1070106F01CFC642006F02AFBE7
:1016F000DCE7022D94BF4C234E238DF807300023E6
:1017000030681A460DF10701E0E7032C08D844239E
:101710008DF80730002338681A460DF10701E2E71B
:101720004E238DF807300023D8F800001A460DF13B
:10173000070106F0F6FBEDE7D0200020C4200020D2
:10174000C820002030B595B0102200210AA822F050
:10175000E8FE0021142203A822F0E3FE00241E4B21
:1017600001941A6C42F080521A641B6C03F080538F
:101770000193019B194B02941A6842F440421A608B
:101780001B6803F440430293029B01224FF4803311
:10179000CDE9082302254FF480034FF4B472CDE95C
:1017A0000E5308A80823CDE91032CDE9125305F0F5
:1017B00063F805F027F80F23CDE903354FF4A05166
:1017C0004FF48053CDE9061303A80521059405F0D5
:1017D0002FFA15B030BD00BF003802400070004045
:1017E0002DE980489BB003F04DFDFFF7ABFF1422BD
:1017F00000210DA822F095FE0024C84B00941A6B1E
:10180000C74842F010021A631A6B02F010020092ED
:10181000009A01941A6B42F020021A631A6B02F0CC
:1018200020020192019A02941A6B42F080021A631C
:101830001A6B02F080020292029A03941A6B42F031
:1018400004021A631A6B02F004020392039A0494CE
:101850001A6B42F001021A631A6B02F00102049241
:10186000049A05941A6B42F002021A631A6B02F092
:1018700002020592059A06941A6B42F040021A631E
:101880001A6B02F040020692069A07941A6B42F015
:1018900008021A631B6B03F00803224607933C21DE
:1018A000079B04F0A7F99F480122022104F0A2F946
:1018B00022469C48042104F09DF922469A484FF4A0
:1018C000405104F097F9224698484FF4005104F033
:1018D00091F901263C23032591480F940DA9022775
:1018E000CDE90D36109504F09BF88E480DA9CDE991
:1018F0000D764FF00408CDE90F4404F091F88948C3
:101900000DA9CDE90D86CDE90F4704F089F84FF414
:10191000405385480DA9CDE90D36CDE90F4704F0B8
:101920007FF881480F940DA9CDE90D8504F078F872
:101930004FF400537D480DA9CDE90D36CDE90F4494
:1019400004F06EF87A480F940DA9CDE90D6404F007
:1019500067F80DA9062376480F94CDE90D3504F0FC
:101960005FF87448744B754D036003F04FFFDFF868
:10197000ECC1734B2C62C5E900C328464FF4804389
:10198000C5E90434C5E90244C5E9064404F040FB56
:101990001021284604F084FD2146284604F09FFDCE
:1019A000684DDFF8BCE1AC624FF48273C5E900E337
:1019B0004FF400781823C5E9068328460A23C5E9B1
:1019C0000244C5E90444C5E90844EB6205F08CFC17
:1019D0008F232246394653488DF824308DF8344001
:1019E00004F008F932464FF47A7309A9284605F045
:1019F000D7FC4FF47A7332460DA9284605F07CFED9
:101A000032463946474804F0F5F89DF83430D32B78
:101A100004BF4D4B1E704D4E4D4B0125C6E90035A0
:101A20004FF0100940230024C6E904934FF4C0731B
:101A3000C6E906344FF40063C6E908344FF4005396
:101A40004FF002084FF0040A4FF0030BB3620DA9E8
:101A5000072330460827CDE90FA3CDE90D83C6E95A
:101A6000024ACDE911B8CDF84C8005F021FB4FF6C4
:101A7000FF7209A93046CDE90A75089409950C94BE
:101A800005F036FB284603F029FC4FF6FF7209A942
:101A90003046CDE90987CDE90B5405F029FB4FF617
:101AA000FF7209A93046CDE909B7CDE90BA405F0CD
:101AB0001FFB4FF40C730893089B0C934FF6FF72B7
:101AC00009A93046CDE909A70B9505F011FB40F2B5
:101AD0006A51304605F02AFB342221460DEB020004
:101AE00022F01FFD1B4E1C4B3461C6E90034092354
:101AF000C6E905351D23C6E9073B40F20D1240F249
:101B00004313C6E9092340F2171140F24713304648
:101B1000C6E90B13C6E9024424E000BF00380240C6
:101B20000010024000080240000C02400018024071
:101B300000000240B4220020003002402022002099
:101B4000A086010010210020BC200020DC20002005
:101B5000400100A07821002000680140005C0040A6
:101B600000500140B48686F8364004F04BFDFF215A
:101B7000F022CDE912144FF4806005214FF4A073D8
:101B8000CDE91401CDE90E240DA9CDE91642304668
:101B90002246524E1893CDE910380D94ADF86440AA
:101BA0008DF8664004F0E2FD4D4B33601B68DFF8B2
:101BB00094A1984733684B4EDB6898474A4B3046B0
:101BC000C6E90034C6E90284C6E90A48C6E90C44FD
:101BD00003F02CFE2946304603F0DEFE434E4A4613
:101BE00021460DA822F09DFC414BB4604FF4803B90
:101BF0003046C6E9003B3461347686F82040F46212
:101C0000C6F828A0F460F56186F83040756103F0ED
:101C100079FB0DA93046CDE90D55364E0F9403F0F2
:101C200007FD4A4621460DA822F07BFC324BB460EA
:101C30003046C6E9003BC6E90AA43461347686F82A
:101C40002040F460F56186F83040756103F05AFB7E
:101C50000DA93046CDE90D850F9403F0E9FC274826
:101C6000274B036005F0D8F9FEF7D2FCFEF7CFFC56
:101C700005F0E0FF234A2946384606F017F9224BC3
:101C8000224A18602946384606F010F9204B214AAE
:101C900018602946384606F009F91F4B1F4A18609C
:101CA0002946384606F002F91D4B1E4A186029469F
:101CB000384606F0FBF81C4B1C4A186021461C48AD
:101CC00005F0E4FF1B4B1C4A186021461B4805F039
:101CD000DDFF1B4B186005F0BFFFFEE7B8200020BA
:101CE000240000207422002000B0024004230020C1
:101CF00000200140BC22002000210140682100207A
:101D00000008065074630208D02000205C630208BB
:101D1000CC20002044630208C82000202C63020865
:101D2000C420002014630208C0200020B063020811
:101D3000A1160008D82000208C6302081F060008A6
:101D4000D42000200100000F704770477FB5094B79
:101D50008DF817201B6802930DF1170201230092E2
:101D600001930A460146044804F0FAF907B05DF809
:101D700004FB00BF10000020202200207FB50023BC
:101D80008DF81730084B1B6802930A4601230DF1AA
:101D90001701009101930146044804F071FA9DF87F
:101DA000170007B05DF804FB10000020202200207F
:101DB0001FB5084C24680092CDE901340A4601237E
:101DC0000146054804F05CFA003818BF012004B051
:101DD00010BD00BF100000202022002003F07EBABA
:101DE00010B5064C00222046042103F003FF2046D4
:101DF0000122BDE81040042103F0FCBE00080240AF
:101E000038B50B4D044601220A484FF4005103F047
:101E1000F1FE00220421284603F0ECFE2046FFF7E5
:101E200005FC28460122BDE83840042103F0E2BE4B
:101E300000080240000C024038B50B4D0446002259
:101E40000A484FF4005103F0D5FE00220421284631
:101E500003F0D0FE2046FFF7E9FB28460122BDE84B
:101E60003840042103F0C6BE00080240000C0240C6
:101E7000F7B5144E144F05460C4630460022042197
:101E800003F0B8FE00224FF40051384603F0B2FED2
:101E90002846FFF7CBFB0D4B0D481B68224601A9D6
:101EA00005F02AFC384601224FF40051019C03F052
:101EB000A1FE30460122042103F09CFE204603B01F
:101EC000F0BD00BF00080240000C02400C000020E2
:101ED0001021002003F002BA0268034B9A4201D19C
:101EE00003F0EAB9704700BF0010004070470000DF
:101EF00082B00E4B00220092596C41F4804159642B
:101F0000596C01F48041009100990192196C41F0E3
:101F1000805119641B6C03F080530193019B0F21C6
:101F20006FF0010002B003F031BC00BF0038024086
:101F300010B514228AB0044600210DEB020022F0F5
:101F4000F0FA23681E4A93421FD11E4B00210191D3
:101F50005A6C42F480725A645A6C02F48072019294
:101F6000019A02911A6B42F001021A631B6B03F093
:101F700001030293029B022305931348032305A93F
:101F8000069303F04DFD0AB010BD104A9342FAD1FA
:101F90000C4B002103915A6C42F400725A645A6C43
:101FA00002F400720392039A04911A6B42F0010248
:101FB0001A631B6B03F001030493049B0423DBE708
:101FC0000020014000380240000002400021014092
:101FD0000268094B9A4282B00BD100230193074B50
:101FE0001A6B42F480521A631B6B03F48053019303
:101FF000019B02B0704700BF003002400038024031
:1020000007B50F4B02689A4216D10022A3F5F043A0
:102010000192196B41F4000119631B6B03F4000377
:10202000019305215A20019B03F0B0FB5A2003B015
:102030005DF804EB03F0DCBB03B05DF804FB00BF0C
:1020400000B002402DE9F043044689B0142200217B
:1020500003A822F066FA2268244B9A4243D1244C0A
:10206000244800250095236B43F004032363236B6E
:1020700003F004030093009B0195236B43F00103DD
:102080002363236B03F001030193019B4FF01209BB
:102090004FF400734FF001080327042603A9CDE98C
:1020A0000339CDE90587079603F0BAFC4FF4807336
:1020B0001148079603A9CDE90339CDE9058703F057
:1020C000AFFC0295236C43F400032364236C03F4F8
:1020D00000030293029B236A43F400032362236AF2
:1020E00023F40003236209B0BDE8F083005C0040E4
:1020F000003802400008024000000240F0B599B0EC
:1021000004461422002107A822F00BFA30220DEB1E
:102110000200002122F005FA22685E4B9A4240F04C
:10212000B78008230C93C0231093042312930CA8A8
:102130004FF40033159304F043FE08B1FFF7D6FEC9
:10214000554B5648002400945A6C42F080625A6401
:102150005A6C02F080620092009A01941A6B42F06D
:1021600020021A631A6B02F020020192019A029473
:102170001A6B42F001021A631A6B02F0010202921A
:10218000029A03941A6B42F002021A631A6B02F06D
:1021900002020392039A04941A6B42F040021A63FB
:1021A0001A6B02F040020492049A05941A6B42F0F2
:1021B00004021A631A6B02F004020592059A06944F
:1021C0001A6B42F008021A631B6B03F008030693B4
:1021D00002250E26069B0B964FF4806307A9CDE9D6
:1021E0000735CDE9094503F01BFC41F658032C489F
:1021F0000B9607A9CDE907350927CDE9094503F075
:102200000FFC032327480B9707A9CDE90735CDE934
:10221000094503F005FC4FF4706322480B9607A9AB
:10222000CDE90735CDE9094503F0FAFB4FF40C631E
:102230001D480B9607A9CDE90735CDE9094503F0FF
:10224000EFFBC02319480B9607A9CDE90735CDE967
:10225000094503F0E5FB082315480B9607A9CDE9CE
:102260000735CDE9094503F0DBFB4FF4A0530E48D9
:102270000B9707A9CDE90735CDE9094503F0D0FB58
:1022800058202246052103F081FA582003F0B0FAC5
:1022900019B0F0BD0068014000380240001402404F
:1022A0000000024000040240001802400008024002
:1022B000000C02400268094B9A4282B00BD1002305
:1022C0000193074B5A6B42F040025A635B6B03F079
:1022D00040030193019B02B0704700BF0008065005
:1022E0000038024010B5044688B01422002103A82B
:1022F00022F017F92268144B9A4223D103F5684360
:10230000002101915A6C114842F480125A645A6CAF
:1023100002F480120192019A02911A6B42F020029B
:102320001A631B6B03F020030293029B4FF460724D
:1023300002230321CDE903230523CDE9061303A9D5
:1023400003F06EFB08B010BD0050014000140240C5
:102350002DE9F04186B0002303932B4B1C68002C21
:102360004FD14FF00108C3F80080284B00949A6BBE
:10237000274842EA08029A639B6B03EA080300932A
:10238000022703260C25009B01A94FF63F03CDE948
:102390000137CDE9046503F043FB1E48059501A90B
:1023A000CDE90187CDE9034603F03AFB48F2331348
:1023B0001948059501A9CDE90137CDE9034603F098
:1023C0002FFB4FF683731548059501A9CDE9013719
:1023D000CDE9034603F024FB4CF203731048059546
:1023E00001A9CDE90137CDE9034603F019FB6023CC
:1023F0000C48059501A9CDE90137CDE9034603F065
:102400000FFB06B0BDE8F0814C23002000380240ED
:102410000014024000080240001802400010024070
:10242000000C02400004024070B588B00023029303
:10243000204B1A6C42F010021A641B6C03F010035C
:102440000293054601A903A8029B04F09BFC069B8E
:102450004BBB04F087FC184E184B336040F2E73357
:10246000F360174BB0FBF3F3013B7360304600237E
:102470003361B360B36105F009FB044680B93046AF
:1024800005F0DEF9044658B9362003F0B1F90F2DF6
:102490000DD822462946362003F078F9094B1D60F5
:1024A000204608B070BD04F05DFC4000D3E7012475
:1024B000F6E700BF00380240502300200010004023
:1024C00040420F008C0000207047FEE7FEE7FEE769
:1024D000FEE77047014805F0F1B900BF5023002026
:1024E000014804F0E6B800BF78210020014803F05D
:1024F000C9B900BF742200200120704708B522F03E
:10250000CDF8162303604FF0FF3008BD08B522F068
:10251000C5F816230360FEE770B50D4614460E4657
:10252000731B9C4201DC204670BDAFF3008006F8AF
:10253000010BF5E770B50D4614460E46731B9C4221
:1025400001DC204670BD16F8010BAFF30080F5E703
:102550004FF0FF3070474FF400534B60002070473E
:1025600001207047002070470A4A116808B50346E9
:1025700009B9094911601068694603448B4206D9BC
:1025800022F08CF80C2303604FF0FF3008BD13607D
:10259000FCE700BF9823002078440120704710B565
:1025A0000421044620F097FE204610BD012908B5FD
:1025B00006D0022908D059B901F0B0F9006808BD69
:1025C00001F0ACF94068FAE701F0A8F98068F6E795
:1025D0000020F4E700487047E863020813207047C2
:1025E00013B5002451B1036801948DF8034001AA8A
:1025F0009C680DF10303A04702B010BD0846FBE73D
:10260000C0897047008A7047C088704780887047CB
:10261000807A00F07F007047807AC0097047002000
:10262000704700009FED010A704700BF00000000E6
:10263000806A7047704710B50821044620F04BFEB1
:10264000204610BD7047704700F5987308684968C8
:1026500003C37047704770474160704770477047C9
:10266000064BC0F84C310023C0F8503100F5A2737E
:10267000C0F84801C0F84031704700BFF927000892
:102680000123037270477047704710B4C2684168F5
:102690005410034601EB6200D20748BF0A599B68F9
:1026A0005DF8044B48BFD35818470346406830B123
:1026B0009A681AB9D86800F0010070470120704785
:1026C00010B50C21044620F006FE204610BD10B5C2
:1026D0001021044620F0FFFD204610BD10B54FF438
:1026E000AE71044620F0F7FD204610BD10B5402124
:1026F000044620F0F0FD204610BD10B50EF09EF807
:102700000368BDE81040DB6B18470000054B1B78E1
:1027100001462BB1406818B103680C315B6E184755
:10272000704700BF33370120037A70B50546BBB947
:1027300040680368DB69984704463CB968680368E9
:1027400005F10C011B6EBDE870401847A1886B8F26
:10275000C91A236820461B6B09B29847A469ECE7A5
:1027600070BD10B50446D0F8400158B10368DB686D
:10277000984738B1D4F8400103689B689847002314
:10278000C4F8403110BD70B5044690F8390094F893
:1027900038300130C0B2984284F8390005D901239D
:1027A0002372002384F8393070BDB4F93A20002137
:1027B00010F0E7F9C30706D500284FF6FF73C8BF2E
:1027C0000123184400B2238AC01AA08760680368F6
:1027D000DB69984705462DB960680368BDE870401D
:1027E0005B691847A988A38F19442B6828461B6B7F
:1027F00009B29847AD69EEE72DE9F14FD0E9556A86
:102800000746B06803681B6A9847B0F5A47F05D2F5
:10281000444B454AA321454821F07CFC706803687D
:102820001B6A98470F2803D8414B3F4AA421F2E77F
:10283000F06803681B6A98470B2803D83D4B3A4A57
:10284000A521E8E70DF0FAFFDFF8F09004300EF074
:1028500035F8D9F8000010B10368DB689847D9F85B
:10286000000010B103681B689847DFF8D480D8F8DF
:10287000000010B103685B699847D7F83C0110B1BC
:1028800003685B689847D8F8000010B103681B68BC
:102890009847D7F83C0110B103689B689847F068E7
:1028A000036800215B6A98474FF0000B224BC0F889
:1028B00004B0044680F808B00360B0680368594665
:1028C0005B6A9847054601F041FD70680368594608
:1028D0005B6A98472946064601F0E0FC331DC7F8BD
:1028E0003C61C9F80040C8F80050CAF800302B68B5
:1028F000C6F808A02846DB68EE6398473368304680
:102900001B6898472146284610F035F92368204671
:102910001B69984723685B69204601B0BDE8F04F0A
:10292000184700BFBE5702084C5802082459020835
:102930006B5902080E5A0208E86502088837012020
:102940008C370120044B1B6893F85C200AB1186D8A
:1029500000B99868704700BF40370120F8B51746A6
:1029600004460E460EF07CF8124B1C60124B23609E
:10297000124B0025C4E95135114BC4E95355186871
:10298000036801219B68C4E94F55C4E9557698470F
:10299000284600F077FFFFF7D5FF18F06CFDFFF732
:1029A000D1FF18F0E3FDFFF7CDFF18F0EBFD204657
:1029B000F8BD00BF90370120946502087C650208CD
:1029C00040370120064BC0F84C310023C0F850318D
:1029D00000F5A273C0F84801C0F84031704700BF4D
:1029E000F9270008064BC0F84C310023C0F85031DD
:1029F00000F5A273C0F84801C0F84031704700BF2D
:102A0000D52B0008064BC0F84C310023C0F85031DC
:102A100000F5A273C0F84801C0F84031704700BF0C
:102A2000992A00082DE9F04105460026164B46601C
:102A3000067245F80C3B044628460F460AF064FA35
:102A4000124B84F838701B7884F83960A68723B954
:102A5000012323722046BDE8F0810D4B0D4FB3F9E1
:102A60000080E368B7F900109B6B26612846984701
:102A7000E3684146DB6B2846984728460AF0C0F9D0
:102A80003B885B426387E5E70C6602083337012029
:102A90003A3701203C3701202DE9F047D0E9556A4B
:102AA0000746B06803681B6A984740F67733984238
:102AB00005D8414B414AA321414821F02BFB7068C6
:102AC00003681B6A98470F2803D83E4B3B4AA42152
:102AD000F2E7F06803681B6A98473F2803D83A4B2F
:102AE000364AA521E8E70DF0A9FEDFF8E0900430B2
:102AF0000DF0E4FED9F8000010B10368DB689847D8
:102B0000D9F8000010B103681B689847DFF8C0804F
:102B1000D8F8000010B103685B699847D7F83C010A
:102B200010B103685B689847D8F8000010B10368DB
:102B30001B689847D7F83C0110B103689B68984719
:102B4000F068036800215B6A984714210446FFF788
:102B500069FFB068036800215B6A9847054600F08A
:102B60008FFF7068036800215B6A98472946064614
:102B700000F01AFF331DC7F83C61C9F80040C8F8DF
:102B80000050CAF800302B68C6F808A02846DB6859
:102B9000EE639847336830461B68984721462846BD
:102BA0000FF0E9FF236820461B69984723682046F9
:102BB0005B69BDE8F0471847BE570208B15A0208E2
:102BC000245902086B5902080E5A0208883701205E
:102BD0008C3701202DE9F047D0E9556A0746B068E7
:102BE00003681B6A9847B0F5A47F05D2414B424A5F
:102BF000A321424821F08EFA706803681B6A984747
:102C00000F2803D83E4B3C4AA421F2E7F068036842
:102C10001B6A98473F2803D83A4B374AA521E8E773
:102C20000DF00CFEDFF8E09004300DF047FED9F80F
:102C3000000010B10368DB689847D9F8000010B1B4
:102C400003681B689847DFF8C480D8F8000010B10B
:102C500003685B699847D7F83C0110B103685B686B
:102C60009847D8F8000010B103681B689847D7F858
:102C70003C0110B103689B689847F0680368002125
:102C80005B6A984714210446FFF7CCFEB0680368DE
:102C900000215B6A9847054601F058FB706803689D
:102CA00000215B6A98472946064601F0F7FA331D72
:102CB000C7F83C61C9F80040C8F80050CAF80030B5
:102CC0002B68C6F808A02846DB68EE63984733688F
:102CD00030461B689847214628460FF04CFF236872
:102CE00020461B699847236820465B69BDE8F0478A
:102CF000184700BFBE5702089C5B0208245902080F
:102D00006B5902080E5A0208883701208C370120BF
:102D10007047704770477047704730B5036885B09B
:102D20006D460181D3F88430014604462846984711
:102D300095E807003C3484E8070005B030BD30B5A5
:102D4000036885B06D464181D3F88430014604465E
:102D50002846984795E807003C3484E8070005B00A
:102D600030BD0022028042808280C280704780F89D
:102D70003610704770B5036804461B6B15469847BC
:102D80002368294620465B6EBDE870401847002046
:102D90007047806C7047704770477047704730B419
:102DA000C26844685510034604EB6200D20748BF6E
:102DB00062599B6830BC48BFD358184703464068E7
:102DC00030B19A681AB9D86800F001007047012044
:102DD000704710B54C21044620F07DFA204610BD06
:102DE00010B51021044620F076FA204610BD10B52B
:102DF0004FF44071044620F06EFA204610BD08B52D
:102E0000FEF71EFB08BD0000036870B55E6B124B39
:102E10001B6804468DB22BB9104B114A6C21114826
:102E200021F078F91049828D0988914203D80F4B1F
:102E30000B4A6D21F3E713F812200D4B1B6853F872
:102E4000220003681B6B9847291A3346204609B2B3
:102E5000BDE87040184700BFA0370120875C02081A
:102E6000C95C0208045D0208943701204B5D02082A
:102E7000983701209830884208B505D10DF0DEFC66
:102E8000BDE80840FFF7AEBD08BD00224FF0FF319E
:102E9000C0E900218260704770B5036804461B6B6F
:102EA000154698472368294620465B6BBDE870406D
:102EB000184770B504461D46BDF91060FFF7ECFFDA
:102EC0002368294620469B6B984723683146204655
:102ED000DB6BBDE8704018470022C0E90122C0E961
:102EE0000322C0E90522C0E907224FF480728284E0
:102EF000014A0260704700BF3066020838B52622DA
:102F000004460D46002121F00CFB2046FFF7E4FFAC
:102F1000064B23602B88E384FF23204684F8283067
:102F200029460AF02AFE204638BD00BFC06D0208BF
:102F3000F8B5194B018F1B888B4206462AD9174BCF
:102F40001B682BB9164B174A17486C2121F0E2F881
:102F500013F81120154B1B6853F82250144B1868B6
:102F600000F0CCFC2B6807469B6B284698472B68E3
:102F700004469B6C3946284698472B6814FB00F49E
:102F80005B6A394628469847A4B223181BB2A6F8B4
:102F90004630F8BD0023FAE794370120A03701201E
:102FA000875C0208C95C0208045D020898370120AA
:102FB0009C37012010B526220446002121F0B1FAE9
:102FC0002046FFF789FF0A4B23600A4BA3624FF6A6
:102FD000FF73A3854FF47F020023C4E90C322387DB
:102FE0004FF0FF32C4E91023E363204610BD00BF59
:102FF000C86C02086C6502082DE9F04F044693B0D6
:10300000A04600250FF01CFC984BE56348F8403BB8
:1030100026222946404621F084FA4046FFF75CFF0D
:10302000934B236404F16C0BFF234FF6FF7604F1FE
:10303000980A84F8663010A95846A56604F1E0099C
:10304000ADF84060FFF75AFF50460AF023FF4846AC
:103050000AF020FF04F5947310A918460793ADF801
:103060004060FFF74BFF04F5AA7310A918460893B8
:10307000ADF84060FFF742FF04F5C07310A9184691
:103080000993ADF84060FFF739FF04F5D673184691
:10309000784F0593FFF78EFF04F5FC73C4F8AC710D
:1030A0001846C4F8F4510693FFF784FF04F5117332
:1030B000C4F8F8711846C4F840520393FFF77AFF3A
:1030C00004F5237310A918460493ADF84060FFF788
:1030D00015FF694BC4F88C324FF0FF370123C4E968
:1030E000AF73664BC4F8B852C4E9BC34644B84F87F
:1030F000C452C4E9BE354FF4A0732A46404600933B
:103100002946F023FFF7D5FE261D4FF07F43A36627
:103110004146304606F08FFF2A4658462946FFF7BB
:10312000BBFE584610A9ADF840500AF026FD59469E
:10313000304606F080FF5046BD222321FFF7ACFE4B
:103140004FF0020810AA0FA950464FF0030BADF83C
:103150003C80ADF840B00AF0E8FB05235046A4F8E7
:10316000D030FFF7E5FE04F53C73C4F8C03051469B
:103170003046C4E9357706F05EFF4846BD2223217C
:10318000FFF78AFE10AA0FA94846ADF83C80ADF8BB
:1031900040B00AF0CAFB4FF00103A4F818314846CA
:1031A000FFF7C6FE49463046C4E9477706F043FFBD
:1031B00001220798CC21FFF76FFE4FF00D09079809
:1031C000ADF8409010A90AF0D8FC0799304606F0F7
:1031D00032FF01220898A921FFF75EFE0898ADF89A
:1031E000409010A90AF0C9FC0899304606F023FF68
:1031F000012209988621FFF74FFE0998ADF840900B
:1032000010A90AF0BAFC0999304606F014FF1D23F4
:1032100004220598009307216023FFF74AFED4F8A3
:10322000AC310599D3F88430C4F8DC710DF128096C
:103230004846A4F8E051984799E8070004F5F4736C
:1032400083E807000F4B1B6804F5327A2BB90E4B4D
:103250000E4A60210E4820F05DFF0E4B1B88022BAA
:103260001CD80D4B094A6121F4E700BF40670208F2
:10327000586D0208986602084C6C0208286702081C
:10328000752E0008A0370120875C0208895D0208BE
:10329000045D0208943701204B5D0208414B414612
:1032A0001868DFF8088100F029FB3F4A03460A212D
:1032B000504610F006FF04230598C4F8F4A110A9A5
:1032C000ADF844304FF0220ACDF840800AF0D0FA31
:1032D0000599304606F0AFFE0698CDF800A073229F
:1032E0002946F023FFF7E5FDD4F8F8310699D3F825
:1032F0008430C4F828724846A4F82C52984799E8BC
:10330000070004F50D7383E8070004F53773C4F86C
:1033100040320698A4F8DC5210A9CDF84080ADF8F0
:1033200044B00AF0A5FA0699304606F084FE0398E8
:10333000CDF800A0F02373222946FFF7BAFD0399C8
:10334000C4F874724846A4F8785209F0BDFF99E8B1
:10335000070004F5207383E807000398CDF8408048
:1033600010A9ADF844500AF083FA0399304606F0EC
:1033700062FE04980122D021FFF78EFD0A220498F4
:10338000092109F0A4FE0498012109F0B2FE30469B
:10339000049984F8B45206F04EFE204613B0BDE8FE
:1033A000F08F00BF9C370120D45D02086C650208D5
:1033B000406A7047806A704770478A880B8810B5EA
:1033C000D20A4C88C1699BB251F8220043EA0443F7
:1033D000184410BD10B50446BAB1107B68B1537BD8
:1033E000D27A1B0203F4E0631A43236A03EB8203DD
:1033F0001A888A4202D193F9020010BD05D801381B
:1034000080B204330028F3D1F7E70020F5E710B5C8
:103410002C2104461FF05FFF204610BD30B58BB055
:103420000446BDF860500895BDF85C5007959DF8BE
:10343000505006959DF84C5005959DF848500495C0
:103440009DF8445003959DF8405002959DF83C50DE
:103450000195BDF8385000950EF0FEFF064B236035
:10346000159BE361169B2362199B63621A9BA362FF
:1034700020460BB030BD00BF74670208704770472C
:10348000704730B4C26844685510034604EB6200CC
:10349000D20748BF62599B6830BC48BFD358184711
:1034A0000346406830B19A681AB9D86800F0010044
:1034B00070470120704710B5102104461FF00BFF24
:1034C000204610BD10B54FF48E7104461FF003FF67
:1034D000204610BDC430884208B505D10DF0AEF9C4
:1034E000BDE80840FFF78EBA08BD00002DE9F74F90
:1034F00004460FF0A5F94A4B23604A4B0025C4E966
:1035000010354FF4807304F16C09A4F86430FF2384
:1035100084F8663004F198084FF6FF7601A9C4E9F3
:103520001255C4E91455C4E91655E5632566A56628
:103530004846ADF80460FFF7E1FC01A9ADF804606E
:10354000404604F1C406FFF7D9FC30460AF0A2FC5D
:10355000354BC4E94334354B04F1400AC4E94535E1
:103560002A4629465046FFF797FC5046F021FDF7C2
:10357000B1FE271D50464FF07F4B4FF4A071FDF771
:10358000ABFE51463846C4F868B006F054FD2A46F2
:1035900029464846FFF780FC0E2301A94846ADF8AE
:1035A00004300AF0EAFA4946384606F044FD1B2288
:1035B00040461421FFF770FC122301A94046ADF8E4
:1035C00004300AF0DAFA4146384606F034FD304657
:1035D000BB222321FFF760FC022301AA6946ADF854
:1035E000003030460323ADF804300AF09EF906237C
:1035F000A4F8FC303046FFF79BFC4FF0FF33C4F8D3
:10360000043104F586733846C4F800B1C4F8EC30D0
:10361000314606F010FD204603B0BDE8F08F00BF34
:10362000F4670208586D0208DC670208D534000808
:103630007047000030B5164D2C6814F001048FB0AF
:10364000BFF35B8F20D128461FF047FEE0B13F2338
:103650000993104B0893104B104911480A9401220A
:10366000CDE906430423CDE903320A230093CDE9D3
:103670000B44CDE901440594FFF7D0FE094820F042
:1036800067FD28461FF035FE05480FB030BD00BF6E
:103690009C2300205C8602088C860208C0840208F5
:1036A000A0230020313600087047000030B5164DC9
:1036B0002C6814F001048FB0BFF35B8F21D1284632
:1036C0001FF00BFEE8B13F230993104B0893104BFA
:1036D000104911480A94CDE9064301220423CDE99B
:1036E0000332182300931B22CDE90B44CDE901449A
:1036F0000594FFF793FE094820F02AFD28461FF0A5
:10370000F8FD05480FB030BDCC23002060860208CC
:1037100090860208D0840208D0230020A936000831
:103720007047000030B5164D2C6814F001048FB0BE
:10373000BFF35B8F20D128461FF0CFFDE0B13F23C0
:103740000993104B0893104B104911480A94012219
:10375000CDE906430423CDE9033228230093CDE9C4
:103760000B44CDE901440594FFF758FE094820F0C9
:10377000EFFC28461FF0BDFD05480FB030BD00BF6F
:10378000FC23002088860208948602084C860208E2
:1037900000240020213700080020704700207047D7
:1037A0000EB403B503AB002153F8042B01930EF0C4
:1037B000D7F802B05DF804EB03B070470CB407B55E
:1037C00004AB53F8042B01930EF0CAF803B05DF874
:1037D00004EB02B070470000436C10B5044673B3AD
:1037E000038F2BB9184B194AC521194820F092FCB8
:1037F000C38E00EB43035B8C0BB30FF0FFFE238FF4
:10380000012B03D8134B144ACB21EEE7E28E531C55
:103810009BB2092B194688BFA3F10A0104EB4101B1
:1038200040F63F10498C814209D10A2B04EB420239
:1038300028BF002304EB4303508C58845184204656
:10384000BDE810400FF0DDBDD75D0208E05D020865
:103850008B5E0208D55E0208E35E02080FF099BD98
:1038600010B586B002AC84E806001A460AAB059390
:103870000193099B00932146089B0CF054FB06B072
:1038800010BD000038B518BB124B13481C68134913
:10389000B4B1226822440260626822440A60A268CD
:1038A00014440F4B00221A8000F038F8054600F04F
:1038B00033F80C4B1C600C4B1D600C4B188007E060
:1038C0000B4B03600B4B0B600B4B1C68002CE8D1BF
:1038D00038BD00BF38240020302400202C240020D4
:1038E00034240020A037012098370120943701208C
:1038F000B48602089886020820680208044B1B68F8
:1039000053F82100034B1B6803EB4000704700BFD6
:103910002C240020302400200720704700487047E6
:103920003C24002010B5FFF7C1FE044C2060FFF7D7
:10393000F9FE6060FFF77EFEA06010BD3C24002011
:1039400010B5002404600C6014601C6010BD70474A
:1039500010B54FF4AE7104461FF0BDFC204610BDFB
:1039600010B50446D0F8580100F03FFD2046BDE8F0
:1039700010400DF005B8000010B50446FEF7EEFF4C
:10398000014B2360204610BD2C68020870470438A4
:103990007047704710B5102104461FF09CFC20466C
:1039A00010BDA0F10400F5E700228260024A026027
:1039B00018324260C16070478068020810B50D4C33
:1039C000206818B104F0A6F9002323600A4B0122F5
:1039D0001A600A4A00231370094A1370094A1370C7
:1039E000094A1370094A938003239385084BD360D7
:1039F00010BD00BF4C2400201C00002059240020D2
:103A00005224002051240020482400200C290020AA
:103A10006400C800134B70B5044603604FF4326570
:103A200040F66816B54205D0635960191B6898477F
:103A30002C3DF7E7635960191B682C3D9847B5F595
:103A4000F66FF7D14FF4F465635960191B683C3D7C
:103A50009847B5F53C7FF7D12046FFF79EF9204601
:103A600070BD00BFA868020810B50446FFF7D2FF7A
:103A7000204640F678311FF02EFC204610BD000095
:103A80002DE9F04F05468DB0FFF7B6FA05F5407AFF
:103A9000774B2B604FF6FF7769465046ADF80070C4
:103AA000FFF72CFA05F54B79DFF8CCB105F2DC789D
:103AB0004C46002620466946ADF80070FFF71EFA16
:103AC0000123C4F800B0E6622786678684F83430A4
:103AD00084F8356084F8366084F8376084F838609C
:103AE0003C344445E6D105F6941B26464FF6FF7755
:103AF000304669462C36ADF80070FFF7FFF95E4599
:103B0000F6D1D84605F64C374FF6FF764046694663
:103B100008F12C08ADF80060FFF7F0F9B845F5D1D1
:103B200069464046ADF80060524EFFF7E7F9684637
:103B300000F052FDBDF80430B380BDF91C30039A8B
:103B4000B383089BF2603362049A099B326173620B
:103B5000059A0A9B72612F1D069AB3626846BDF8EA
:103B60002C30B385B26100F049FD384605F198016B
:103B700006F0D8FA384605F5FC7106F0D3FA384657
:103B800005F1E00106F0CEFA384605F5117106F0B0
:103B9000C9FA384605F16C0106F0C4FA00226946FC
:103BA0004046ADF8002009F0E8FF002211464046EB
:103BB000FFF772F9002285F8712B3846414606F06E
:103BC0003AFA102369465046ADF8003009F0D5FFA7
:103BD000B6F90E20B6F90C105046FFF75DF93846DD
:103BE000514606F028FA052704F5DC76212240F23A
:103BF00041113046FFF750F9D4F8B83169461B6ED1
:103C0000ADF80070304698472046212240F241111D
:103C1000FFF742F9236801221B6EADF80020204611
:103C200069462C3498475C45DED100240326B4FB5A
:103C3000F6F303EB4303E31A012B13D0022B14D04A
:103C400008220721484609F042FA01344846142167
:103C500009F04FFA142C09F13C09E8D128460DB0BF
:103C6000BDE8F08F0A220921ECE70C220B21E9E7DD
:103C7000A86802080C2900204C6C02082DE9F041CC
:103C8000051D00F5D67804464146284604F5C07760
:103C900006F048FA4146284606F0CDF9394628464E
:103CA00004F5AA7606F03EFA3946284606F0C3F92E
:103CB0003146284606F036FA04F594743146284613
:103CC00006F0B9F92146284606F02CFA2146284686
:103CD00006F0B1F940460DF06BFF38460DF068FF75
:103CE00030460DF065FF2046BDE8F0410DF060BFA5
:103CF0002DE9F04F4A4E8FB00446306804F072F957
:103D00000546002D40F082809DF81280454DB8F1A7
:103D1000010F2BD1DFF8249199F80030002B4DD101
:103D2000261D04F198073946304606F084F904F55B
:103D3000FC7AAB883C4A0A2104F5377010F0C1F9CF
:103D40005146304606F077F938460DF031FF5046BF
:103D50000DF02EFF30460DF02BFF344B89F800801C
:103D600083F80080324B186803F0D4FF9DF81230BE
:103D7000022B23D1DFF8C48098F80030F3B9261D58
:103D800004F1E0073946304604F5117906F053F99D
:103D90004946304606F04FF938460DF009FF4846CF
:103DA0000DF006FF30460DF003FF204A012313708B
:103DB00088F800301E4B186803F0ACFF1D4F4FF021
:103DC000000838688DF8138004F00CF904F540768B
:103DD000002843D04FF0FF33386842460DF11301FD
:103DE00004F0D0F89DF81330522B29D1B5F92810E2
:103DF000114800F089FC1123304605A9ADF81430B4
:103E000009F0BBFE386804F0EFF827E000233068C3
:103E10001A460DF1120104F0B5F8013D71E700BF3B
:103E2000C02000200C290020B55F0208512400208A
:103E30004C240020D02000201429002048240020F9
:103E40004E2B40F05481C148414600F05DFC1023E8
:103E500005A93046ADF8143009F08FFEBC4FDFF8ED
:103E60002C83386804F0BEF8A8B14FF0FF333868EF
:103E700000220DF1130104F085F89DF81330552B45
:103E800040F03D81B148B5F9281000F03FFCD8F86A
:103E9000000004F0A9F8D8F8000004F0A3F8B0B1CD
:103EA0004FF0FF33D8F8000000220DF1130104F0A9
:103EB00069F89DF81330442B40F02981A96AA34882
:103EC000494209B200F022FC386804F08DF830460F
:103ED000B5F90E20B5F90C109E4FFDF704FA04F267
:103EE000DC7904F6941B4E4604F10408B7F910304F
:103EF000022B00F01481042B00F02281012B07D14A
:103F00003368B7F906209B6DB7F90410304698471F
:103F10002C365E4507F11C07E8D18F4F5E4604F64C
:103F20004C3A04F10408B7F91030022B00F030814C
:103F3000042B00F03E81012B07D13368B7F906202E
:103F40009B6DB7F90410304698472C36564507F15B
:103F50001C07E8D104F5966304F54B7A03937F4E72
:103F6000CDF804A0231DA0460293B6F91030022B11
:103F700000F02581042B00F03D81012B08D1D8F8F9
:103F80002C33B6F906209B6DB6F9041001989847BA
:103F9000019B3C330193039B08F13C08984506F1D3
:103FA0002006E2D16E4AB5F92C3011788B4204F12B
:103FB000040616D0DBB21370502284F8502184F826
:103FC0007C2184F8A821002B00F01F81FF22012B07
:103FD00084F8502105D0022B84F87C2118BF84F886
:103FE000A821AB885F4A0A2104F5327010F069F805
:103FF00030460DF0DDFD94F80C31002B74D05A4D95
:10400000286818B103F086FE00232B60574B02226C
:104010001A60574A00231370564A1370564A137099
:10402000564A1370012384F8713B04F64C300DF0AE
:10403000BFFD642003F086FE2046FFF71FFE00F060
:10404000C1FD04F2DC77514630460AF13C0A06F025
:1040500069F8BA45F7D14946304606F063F809F5E4
:10406000DC71304609F12C0906F05CF8D945F2D133
:1040700004F1E00804F511774146304606F052F8A5
:104080003946304606F04EF840460DF091FD384670
:104090000DF08EFD30460DF08BFD04F5C0700DF077
:1040A00087FD04F5AA700DF083FD04F594700DF002
:1040B0007FFD04F5D6700DF07BFD0024304B8DF8AC
:1040C00012402022214606A81C6020F02AFA2D4B1F
:1040D00005934FF480421823CDE90A232A4805AA04
:1040E000214603F0D3FD28600FB0BDE8F08FA96A28
:1040F0001648494209B200F007FB0F237CE64E2B1D
:104100007FF4C9AE1148002100F000FBC3E64E2B3E
:104110007FF4DDAE0D48002100F0F8FAD7E63368F1
:10412000B7F906209B6DB7F9041030469847314621
:10413000404605F080FF0121384600F023FAE7E60B
:104140003146404605F0EEFF0321F5E71429002033
:10415000C8200020F4270020DC2600205C2400205A
:1041600014000020B55F02084C2400201C00002031
:1041700059240020522400205124002048240020EB
:1041800020000020B85F0208F5480008C420002085
:104190003368B7F906209B6DB7F90410304698478D
:1041A0003146404605F047FF0121384600F0EAF964
:1041B000CBE63146404605F0B5FF0321F5E7D8F8D8
:1041C0002C33B6F906209B6DB6F904100198984778
:1041D000D8F82C3301985B6E1F4601231A46002144
:1041E000B847DDE9011005F026FF0121304600F057
:1041F000C9F9CDE6D8F82C3301989B6E9847DDE9D4
:10420000011005F08FFF0321F0E730460DF0D0FCE0
:10421000E7E600BF10B5134C8AB0FEF7BFFD20687B
:1042200003F078FD104B186803F0DEFE2022002119
:1042300002A820F076F90D4B01934FF48042182329
:10424000CDE90623002101AA094803F01FFD094A10
:10425000206000231370084A1370084A13700AB0D4
:1042600010BD00BF4C240020C0200020B85F020811
:10427000F548000852240020512400204824002042
:10428000704704387047704710B5102104461FF07E
:1042900022F8204610BDA0F10400F5E7002282605C
:1042A000024A026018324260C1607047DC6802084E
:1042B000704770B5044600F16C06304604F58E7503
:1042C0000DF076FC28460DF073FCB4F87220B4F8BB
:1042D0002231023212B2B2F5A07FA4F8722003F1AB
:1042E0000203A8BFB4F8762099B2A8BF8A1A1BB2FD
:1042F000A8BFA4F87220B3F5A07FA4F82231A2BF12
:10430000B4F87620B4F872309B1A3046A8BFA4F8EF
:1043100022310DF04DFC2846BDE870400DF048BC40
:1043200010B5034B03600446FFF7A9F8204610BD03
:104330000469020810B50446FFF7F2FF20464FF467
:10434000A4711EF0C8FF204610BD000013B504463E
:10435000FFF7CCF8104B23600023C4E94833C4E9CD
:104360004A33C4E94C33C4E94E334FF480734FF6FB
:10437000FF72A4F84031094BC4F81C3104F58E706B
:10438000A4F8422184F8442101A9ADF8042009F0E1
:10439000F4FB204602B010BD04690208C06D02089B
:1043A00037B5044604F58E75FFF76AF8B4F8923015
:1043B000ADF8043001A9284609F0DFFBB4F87620F7
:1043C000B4F872309B1AB4F87020A4F8202104F1DC
:1043D0006C012A46201DA4F8223103B0BDE830400C
:1043E00005F0B9BE002202607047704710B5034B5C
:1043F0000360044600F0B1F8204610BD3869020899
:1044000010B50446FFF7F2FF20461C211EF063FFA3
:10441000204610BD10B5044600F0AAF8064B2360F4
:104420004FF4C873A3614FF018110023C4E90213BD
:10443000024B2361204610BD386902080300900139
:10444000B0F9083010B5B0F904405B429C420BDB78
:10445000F02C09DCB0F90A30B0F906205B429A4230
:1044600002DBB2F5A07F05DD04230382836943826A
:10447000002010BD438A591A09B200294182F7DC95
:1044800083891C44C38984801A448369C28043821F
:104490000120EEE710B5034B0360044600F05DF821
:1044A000204610BD4C69020810B50446FFF7F2FF24
:1044B000204620211EF00FFF204610BD10B50446F7
:1044C00000F056F8084B23604FF4167246F2A8131A
:1044D000C4E906234FF020110022C4E90212034A66
:1044E0002261A382204610BD4C69020803005802D5
:1044F000B0F90830B0F904205B429A4210B508DBED
:10450000F02A06DCB0F90A30B0F906405B429C4262
:1045100007DA04230382C36983828369438200200C
:1045200010BD438A591A09B200294182F7DC8389F8
:104530001A44C38982801C448369C4804382012059
:10454000EEE7838A591A09B20029D8BFC36981826C
:10455000DABF838201200020704770470020704737
:1045600010B5182104461EF0B6FE204610BD00000E
:10457000034A0260032202824FF0201282607047D9
:1045800060690208018270478180C2807047818122
:10459000C2817047B0F90420B0F9083010B5B1F904
:1045A00004401344A34215DDB1F9083023449A4274
:1045B00010DAB0F90630B0F90A20B1F906401A4411
:1045C000A24207DDB1F90A2022449342ACBF002089
:1045D000012010BD0020FCE710B5054B036000234F
:1045E00004468380083000F033F8204610BD00BF39
:1045F00074690208838819448180704710B5044BA0
:10460000044640F8083B00F00FF8204610BD00BFFC
:104610007469020810B50446FFF7F0FF2046302108
:104620001EF059FE204610BD10B5034B0360044632
:10463000FFF793FF204610BD8469020810B50446B9
:10464000FFF7F2FF204628211EF045FE204610BD50
:1046500010B50446FFF78CFF03210A480A4B21627C
:10466000A1844FF01C11C4E9010142F210722360D1
:1046700000214FF4C873C4E90632E160A28263826C
:10468000204610BD6800040184690208438A591A53
:1046900009B2002941821FDC82888389C1891A44BA
:1046A000C38812B20B441BB281698280002AC38086
:1046B000418207DA00228280002B07DA0023C380C0
:1046C00001207047D02AF7DDD022F4E7B3F5907FC0
:1046D000F6DD4FF49073F2E70020704710B5044602
:1046E0001046B4F91430002B03DC38B1E369A3821F
:1046F00005E0591A09B20029A182F6DD002010BD9B
:10470000838C5B1A8384704781817047C1817047B5
:104710002DE9F347DFF8A4A0274CDAF80030DFF8E2
:10472000A0901B1A0546CAF8003014264FF0000866
:10473000B4F91030032B0AD029462046FFF7D8FEE3
:10474000013E04F12004F3D102B0BDE8F087DAF8AD
:104750000030002BF4DC01A94846CDF8048002F0BB
:1047600073FC08B1CDF80480019B03F0030203F44D
:104770008073002B02F1FF334FF6E0714FF6FF77A5
:104780000CBFF0210127022B9DBF013202EB8202F8
:10479000D2002A222046FFF7F7FE002239462046A3
:1047A000FFF7F5FE02212046FFF7ECFE42F2107300
:1047B000CAF80030C4E700BF5C24002020000020BD
:1047C000682100202DE9F843012106461748184CBE
:1047D000DFF86480DFF8649001F006FA431E5A4265
:1047E00014485A413146FFF779FF04F58C770546A6
:1047F000B4F91030032B08D031462046FFF720FED5
:104800001C34BC42F4D1BDE8F88365B1B8F800208F
:10481000B9F80010103A204692B2FFF7B5FE022117
:104820002046FFF7AFFE0025EAE700BF0000024088
:10483000F4270020142900205424002056240020AE
:104840002DE9F843274B284E1A68284B1B68022B8A
:1048500008BF01320C2AA8BF0C2207464FF00009FE
:104860004FF01C0895B2B6F91030012B10D1394623
:104870003046FFF766FE58B11D4A00231446B2F9D0
:10488000101003291BD001330A2B02F11C02F6D1B0
:1048900009F10109B9F1140F06F12006E3D1144C16
:1048A0000A25B4F91030012B03D139462046FFF711
:1048B000C7FD013D04F11C04F3D1BDE8F883F28883
:1048C000B18808FB03441032204692B2FFF75CFE29
:1048D00020462A460021FFF75AFE02212046FFF714
:1048E00051FED5E7180000205C2400201C000020A9
:1048F000DC2600202DE9F04FA24CDFF8BC92002509
:1049000085B0257089F800509F4B4FF6CE72EF1896
:1049100011463846FFF738FE9C4B4FF6CE72EE1824
:1049200011463046FFF730FE4FF6FB720021384645
:10493000FFF72DFE052200213046FFF728FE032158
:104940003846FFF71FFE1C3503213046FFF71AFEDD
:10495000B5F58C7FD8D1DFF86482002645464FF646
:10496000CE7211462846FFF70FFE01362846032176
:10497000FFF708FE142E05F12005F0D1844D002725
:1049800084484FF4005101F02FF9012807F1010785
:1049900008D1814A13680B2B04DC0133C820136053
:1049A00003F0D0F923784BB199F80030002BE7D011
:1049B0007A4B01221A7005B0BDE8F08F012FD4BFE9
:1049C00018461F46764BAA89764E1A80764BEA899E
:1049D0001A80C8BF01203070FFF79AFE3178734803
:1049E000FFF754FE3078FFF7EDFE3078FFF728FF31
:1049F0006E4946464FF0140AB6F910B0BBF1010FEC
:104A00007ED13046FFF7C6FD6849002878D0674858
:104A10005946FFF775FE04213046FFF7B3FD6348A2
:104A20004FF482726821FFF7AFFD46464FF0140A3B
:104A3000B6F91030012B2AD1DFF84CB10A22BBF9AC
:104A400010300093012B62D1594630460192FFF796
:104A5000A1FD019A00285AD004213046FFF792FDAB
:104A600004215846FFF78EFD05212846FFF7C2FDB9
:104A7000009A48484FF4005101F0BCF8322003F08E
:104A800061F9444800224FF4005101F0B3F8BAF143
:104A9000010A06F12006CBD13C4E44494FF00A0AE8
:104AA000B6F910B0BBF1010F36D13046FFF772FDF9
:104AB0003E4988B33D485946FFF722FE042130465F
:104AC000FFF760FD39484FF482726821FFF75CFD03
:104AD000B5F92C30002B25DC01252570344C99F8D4
:104AE0000030002B7FF464AF20688DF80F501A4619
:104AF0000DF10F0103F015FA322003F023F9EEE770
:104B0000BAF1010A06F120067FF476AF8DE7013A8B
:104B10000BF11C0B93D1BAE7BAF1010A06F11C069E
:104B2000BED1D5E7224B234E18683368012B1ED126
:104B3000AA881D2A1BD9DFF888A023708AF80030C4
:104B400002238DF80F3000231A460DF10F0103F0F8
:104B5000E8F9237813B19AF8003023B902233360BF
:104B6000002323700CE70A2003F0ECF8F1E7302370
:104B70008DF80F3000231A460DF10F0103F0D1F923
:104B8000FEE600BF52240020F4270020DC2600208F
:104B90000C29002000180240180000205824002092
:104BA00056240020502400205424002014290020E2
:104BB000C02000201C000020512400205C24002084
:104BC0005924002070B5214C00254FF6CE721146B5
:104BD0002046FFF7D9FC013520460321FFF7D2FC20
:104BE000142D04F12004F0D1194E0024A5194FF61C
:104BF000CE7211462846FFF7C7FC2846154D032103
:104C0000FFF7C0FC25444FF6CE7211462846FFF749
:104C1000BBFC1C3403212846FFF7B4FCB4F58C7FA1
:104C2000E4D10D4C0D4BE360002104F10800FFF7C7
:104C30006BFD002104F10800FFF768FD084A00231E
:104C40001360084A1370084A137070BD5C2400207A
:104C5000F4270020DC2600200C2900206400C80076
:104C600020000020522400205124002038B50F4895
:104C70000F4DFFF7B1FC002428191C34FFF7CAFBC5
:104C8000B4F58C7FF8D10B4D002428191C34FFF7A4
:104C9000C1FBB4F58C7FF8D1074D002428192034CE
:104CA000FFF70CFCB4F5207FF8D138BD0C290020AB
:104CB000F4270020DC2600205C240020164838B5AC
:104CC0001524013CA0F1200512D114480B24013C0D
:104CD000A0F11C0514D112480B24013CA0F11C05C5
:104CE00015D0D0F8FC30FC305B6898472846F4E7D4
:104CF000D5F8803200F518705B6898472846E0E7E1
:104D0000D5F81831FC305B6898472846DFE7BDE8E6
:104D100038400448FFF772BC5C240020DC260020E9
:104D2000F42700200C290020F02070474FF4A070D9
:104D300070472920FDF780B82820FDF77DB808B519
:104D4000FDF74EF8CA20FDF777F8C320FDF758F8B5
:104D50000820FDF755F85020FDF752F8CF20FDF759
:104D60006BF80020FDF74CF8C120FDF749F8302022
:104D7000FDF746F8ED20FDF75FF86420FDF740F8F9
:104D80000320FDF73DF81220FDF73AF88120FDF7EA
:104D900037F8E820FDF750F88520FDF731F80020BE
:104DA000FDF72EF87820FDF72BF8CB20FDF744F81F
:104DB0003920FDF725F82C20FDF722F80020FDF71B
:104DC0001FF83420FDF71CF80220FDF719F8F72032
:104DD000FDF732F82020FDF713F8EA20FDF72CF854
:104DE0000020FDF70DF80020FDF70AF8B120FDF7CF
:104DF00023F80020FDF704F81B20FDF701F8B6208A
:104E0000FDF71AF80A20FCF7FBFFA220FCF7F8FFD9
:104E1000C020FDF711F81020FCF7F2FFC120FDF7CC
:104E20000BF81020FCF7ECFFC520FDF705F8452036
:104E3000FCF7E6FF1520FCF7E3FFC720FCF7FCFFBB
:104E40009020FCF7DDFF3620FCF7F6FFC820FCF7CA
:104E5000D7FFF220FCF7F0FF0020FCF7D1FFB020D5
:104E6000FCF7EAFFC220FCF7CBFFB620FCF7E4FF1B
:104E70000A20FCF7C5FFA720FCF7C2FF2720FCF79C
:104E8000BFFF0420FCF7BCFF2A20FCF7D5FF002061
:104E9000FCF7B6FF0020FCF7B3FF0020FCF7B0FFE3
:104EA000EF20FCF7ADFF2B20FCF7C6FF0020FCF73E
:104EB000A7FF0020FCF7A4FF0120FCF7A1FF3F2083
:104EC000FCF79EFFF620FCF7B7FF0120FCF798FFE8
:104ED0000020FCF795FF0620FCF792FF2C20FCF742
:104EE000ABFFC820FCF7F6FF2620FCF7A5FF01204A
:104EF000FCF786FFE020FCF79FFF0F20FCF780FF08
:104F00002920FCF77DFF2420FCF77AFF0C20FCF71A
:104F100077FF0E20FCF774FF0920FCF771FF4E208D
:104F2000FCF76EFF7820FCF76BFF3C20FCF768FF76
:104F30000920FCF765FF1320FCF762FF0520FCF752
:104F40005FFF1720FCF75CFF1120FCF759FF0020E2
:104F5000FCF756FFE120FCF76FFF0020FCF750FF45
:104F60001620FCF74DFF1B20FCF74AFF0420FCF73E
:104F700047FF1120FCF744FF0720FCF741FF3120D9
:104F8000FCF73EFF3320FCF73BFF4220FCF738FFE5
:104F90000520FCF735FF0C20FCF732FF0A20FCF758
:104FA0002FFF2820FCF72CFF2F20FCF729FF0F20D4
:104FB000FCF726FF1120FCF73FFFC820FCF78AFF13
:104FC0002920FCF739FFBDE808402C20FCF734BF4E
:104FD00008B5FCF705FF0321D320FCF749FF80B299
:104FE00008BD10B5C4B2022203212046FCF7AEFE74
:104FF0000A20FCF7F3FE204600220321FCF7A6FE60
:10500000BDE810400220FCF7E9BE38B50446E4B222
:10501000FCF79AFE00212046FCF7B0FE0121054670
:105020002046FCF7ABFE40EA052080B238BD10B543
:10503000C4B240212046FCF7A1FE030607D54C214F
:105040002046FCF79BFE003818BF012010BD01224E
:105050004B212046FCF77AFE204600224B21FCF72C
:1050600075FE0020F2E773B50423C4B20E46154660
:10507000D7210DEB03022046FCF79AFE019B1BBAD9
:105080001A0DC3F30B23328020462B8001224B21C3
:10509000FCF75CFE00224B212046FCF757FE02B0D5
:1050A00070BD000010B50A4A1378984204460DD02E
:1050B000517888420AD00BB141B90123D454FCF78E
:1050C00043FE2046BDE81040FFF78BBF10BD00BF78
:1050D0003C29002010B5C4B209212046FCF74EFE41
:1050E00040F00102D2B220460921BDE81040FCF791
:1050F0002DBE10B5C4B209212046FCF73FFE0921A0
:1051000000F0FE022046BDE81040FCF71FBE38B597
:10511000C4B20D4620460A21FCF730FE40EA0502E3
:10512000D2B220460A21BDE83840FCF70FBE10B5C8
:105130000446FCF70AFE20461F21FFF7E8FF204641
:10514000BDE81040FFF7C6BF38B5C4B20D462046D3
:105150000A21FCF713FE20EA0502D2B220460A21FA
:10516000BDE83840FCF7F2BD10B50446FFF7C1FFBB
:1051700020461F21BDE81040FFF7E6BF10B5C0B2C2
:105180000C460B21FCF7FAFD204010BD1F21FFF754
:10519000F5BF0A46C0B20B21FCF7D8BD1F21FFF7AF
:1051A000F8BF38B5C4B20D4620461721FCF7E6FD1E
:1051B00020EA0502D2B220461721BDE83840FCF7AC
:1051C000C5BD70B5C4B2064604212046FCF7D6FD25
:1051D000042100F0FB0205462046FCF7B7FD3046EF
:1051E000F021FFF7DEFF05F0F80220460421FCF76E
:1051F000ADFD492220212046FCF7A8FD0220FCF746
:10520000EDFD204601222121FCF7A0FD20469A2237
:105210004121FCF79BFD204601224A21FCF796FD27
:10522000204601224B21FCF791FD204600224B2114
:10523000FCF78CFD204601225621FCF787FD204615
:1052400001225821FCF782FD204601224021FCF773
:105250007DFD2046FF220B21FCF778FDBDE8704064
:105260000220FCF7BBBD0000054BD3F8882042F4B8
:105270007002C3F888204FF000629A60704700BF48
:1052800000ED00E008B50B4B1A6842F400721A609A
:105290001A6842F480621A601A6842F480721A60D6
:1052A000032000F061FA0020FDF7BEF8FCF720FEB5
:1052B000002008BD003C0240034A044B11681B78E3
:1052C0000B441360704700BF402900208800002075
:1052D000014B1868704700BF4029002038B50446CC
:1052E000FFF7F6FF631C1CBF054B1B78054618BF74
:1052F000E418FFF7EDFF431BA342FAD338BD00BF0C
:105300008800002038B50446002800F09B80056C1A
:1053100025B9FCF70DFE656484F83C50236CDB0670
:1053200000F18E80236C23F4885323F0020343F0B2
:1053300002032364444B5A6822F440325A605A688C
:1053400061680A435A60236821695A6822F48072AE
:105350005A605A6842EA01225A605A68A16822F0EB
:1053600040725A605A680A435A609A68E16822F4A7
:1053700000629A609A680A439A603449A26A8A4233
:1053800052D0996821F07061996099680A439A60D7
:105390009A68E16A22F040529A609A680A439A60D9
:1053A0009A6822F002029A609A68217E42EA4102DB
:1053B0009A6094F82020002A3ED05A68616A42F42C
:1053C00000625A605A6822F460425A605A68013991
:1053D00042EA41325A60DA6AE16922F47002DA6222
:1053E000DA6A013942EA0152DA629A6822F40072FA
:1053F0009A609A6894F8301042EA41229A609A685A
:10540000616922F480629A609A68002042EA8122EF
:105410009A606064236C23F0030343F00103236468
:10542000002384F83C3038BD9A6822F070629A609C
:105430009A6822F04052B2E75A6822F40062C9E743
:105440000120EDE70120EEE7002301400100000FFD
:1054500082B00023019390F83C30012B69D00123E6
:1054600080F83C3003689A68D2070BD59A68D10758
:105470001AD4036C43F010030364436C43F001033C
:1054800043644CE09A682C4942F001029A602B4A2E
:105490001268B2FBF1F202EB42020192019A002A79
:1054A000E4D0019A013AF8E7026C22F4E06222F0BB
:1054B000010242F4807202645A68520541BF026CD4
:1054C00022F4405242F480520264026C12F4805280
:1054D0001CBF426C22F006024264002280F83C208D
:1054E0006FF022021A60164A516811F01F0F154919
:1054F0001CD18B4207D001F580718B420CD15268D0
:1055000012F01F0F0BD19A6812F0405F07D19A6812
:1055100042F080429A6002E00B498B4202D00020A8
:1055200002B07047526812F0100FEBE78B42F6D1D1
:10553000E9E70220F4E700BF40420F0084000020AA
:1055400000230140002001400022014090F83C303F
:10555000012B14D003689A6822F001029A609B68BC
:10556000DB0707D4036C23F4885323F0010343F0D3
:1055700001030364002380F83C3018467047022082
:10558000704703689A68520570B504460D460BD5FE
:105590009B68DE0508D5036C43F0200303640023F9
:1055A00080F83C30012070BDFFF792FE064623686C
:1055B0001A6891070CD56FF012021A60226C42F43F
:1055C000007222649A6812F0405F17D00020EAE768
:1055D000681CEDD065B923681B6813F00203E6D19F
:1055E000226C84F83C3042F0040222640320DAE7A3
:1055F000FFF76EFE801BA842EDD8D8E7227E002A76
:10560000E4D1DA6A12F4700F02D09B685A05DDD437
:10561000236C23F480732364236CDB04D6D4236CC3
:1056200043F001032364D1E70368D86C704700009E
:10563000F7B50023019390F83C30012B054600F0AC
:105640008680012380F83C3008682B688E68092822
:1056500084B233D904EB4402DF681E3A4FF0070CE2
:105660000CFA02FC27EA0C07DF60DF6806FA02F298
:105670003A43DA604968062901EB81022DD8596B5B
:10568000053A1F26964021EA06015963596B04FA30
:1056900002F20A435A632F4A93420AD1122837D1A1
:1056A0002D4B5A6822F400025A605A6842F4800274
:1056B0005A60002085F83C0003B0F0BD1A6900EB89
:1056C000400C072707FA0CF722EA07021A611A6949
:1056D00006FA0CF616431E61CCE70C294FF01F01A9
:1056E0000BD81E6B233A914026EA01011963196B0E
:1056F00004FA02F20A431A63CDE7DE6A413A9140A6
:1057000026EA0101D962D96A94400C43DC62C2E7FF
:10571000124B984201D01128CBD10F4B5A6822F47A
:1057200080025A605A6842F400025A600B4B984259
:10573000BFD10B4B0B4A1B68B3FBF2F30A22534356
:105740000193019B002BB4D0019B013BF8E70220A1
:10575000B2E700BF0020014000230140120000100A
:105760008400002040420F000749CA6822F4E0622A
:105770000302120403F4E063120C134343F0BF630B
:1057800043F40033CB60704700ED00E0164B30B5BA
:10579000DC68C4F30224C4F10703251D042B28BFD1
:1057A0000423062D4FF0FF358CBF033C002405FA7F
:1057B00003F321EA0303A54022EA0502A3400028DF
:1057C00043EA0203ACBF00F16040084A4FEA03130A
:1057D000B8BF00F00F00DBB2AABF00F56140135460
:1057E00080F8003330BD00BF00ED00E014ED00E0B4
:1057F000002807DB044A4109012300F01F00834011
:1058000042F82130704700BF00E100E010B50446C7
:1058100050B1437903F0FF0213B90271FCF7D8FBD2
:1058200001236371002010BD0120FCE710B5044680
:1058300020B390F8393003F0FF021BB980F838200C
:10584000FCF7DEFB022384F83930236861681A68AC
:1058500022F440320A431A605A6BA16822F0070210
:105860000A435A631A6CE1686FF30D020A431A6423
:1058700000200123E06384F8393010BD0120FCE7EB
:1058800070477047036870B55E681D68F20704468C
:1058900014D5E90512D51A6822F480721A60C26B19
:1058A00042F00102C26301229A60042380F8393079
:1058B000002380F83830436903B19847B20616D503
:1058C000AB0414D523681A6822F400521A6020220F
:1058D0009A60E36B43F00203E363042384F83930F6
:1058E000002384F8383063690BB1204698473007AD
:1058F00016D5290514D523681A6822F400621A60A7
:1059000008229A60E36B43F00403E363042384F802
:105910003930002384F8383063690BB1204698474A
:1059200072070BD56B0509D523681A6822F48062CB
:105930001A6004229A602046FFF7A2FFB00714D530
:10594000A90512D523681A6822F400721A6002228F
:105950009A60E36BE363012384F83930002384F811
:10596000383023690BB120469847F20613D5EB0473
:1059700011D523681A6822F480521A6010229A60A6
:10598000E36BE363012384F83930002384F8383073
:105990002046FFF776FF70BDF0B590F83820012A59
:1059A00003464FF002002BD0012283F8382083F801
:1059B000390003EB0112D2E90740556A174F44EA58
:1059C0000040093C012C9CBF05F07F4210434FEA88
:1059D00001161A6888BF40EA056091B9516A3940DA
:1059E00001435162012C9969916103D8596A21F0F0
:1059F0007F4191620122002083F8392083F838002A
:105A0000F0BDD16939400143D1619919012C8969EF
:105A100011619CBF25F07F451562EBE7F0FFFC00AC
:105A20002DE9F74FDFF8BC916C4A00230D68012483
:105A30009C4004EA0506AC4340F0B7804D6803275C
:105A400005F003044FEA430807FA08FC671E012F1C
:105A50006FEA0C0C34D8876807EA0C0ECF6807FA97
:105A600008F747EA0E078760476827EA060EC5F37E
:105A700000179F4047EA0E074760C76807EA0C0E09
:105A80008F6807FA08F747EA0E07022CC76019D19A
:105A90004FEAD30A00EB8A0A03F0070BDAF820700A
:105AA0004FEA8B0B4FF00F0E0EFA0BFE27EA0E0E8D
:105AB0000F6907FA0BF747EA0E07CAF8207001E0F2
:105AC000032CDAD1076804FA08F407EA0C073C4310
:105AD00015F4403F046068D000240194D9F8444094
