:020000040800F2
:1000000000000320BD050008912400089324000887
:100010009524000897240008992400080000000097
:10002000000000000000000000000000D181000876
:100030009B2400080000000061820008897A000803
:100040000D0600080D0600080D0600080D06000844
:100050000D0600080D0600080D0600080D06000834
:100060000D0600080D0600080D0600080D06000824
:100070000D0600080D0600080D0600080D06000814
:100080000D0600080D0600080D0600080D06000804
:100090000D0600080D0600080D0600080D060008F4
:1000A0000D0600080D0600080D0600080D060008E4
:1000B0000D0600080D0600080D0600080D060008D4
:1000C0000D0600080D0600080D0600080D060008C4
:1000D0000D0600080D0600080D0600080D060008B4
:1000E0000D0600080D0600080D0600080D060008A4
:1000F0000D0600080D0600080D0600080D06000894
:100100000D0600080D0600080D0600080D06000883
:100110000D0600080D0600089D2400080D060008C5
:100120000D0600080D0600080D0600080D06000863
:100130000D0600080D0600080D0600080D06000853
:100140000D0600080D0600080D0600080D06000843
:100150000D0600080D0600080D0600080D06000833
:100160000D0600080D0600080D0600080D06000823
:100170000D0600080D0600080D060008000000002E
:100180000D0600080D0600080D0600080D06000803
:100190000D0600080D0600080D0600080D060008F3
:0C01A000A92400080D060008B524000882
:1001B00010B5054C237833B9044B13B10448AFF3A1
:1001C00000800123237010BD800300200000000088
:1001D000B851020808B5034B1BB103490348AFF3FC
:1001E000008008BD0000000084030020B851020810
:1001F00001F0FF01102A2BDB10F0070F08D010F8D8
:10020000013B013A8B422DD010F0070F42B3F6D1DB
:10021000F0B441EA012141EA014122F007047FF0F4
:1002200000070023F0E80256083C85EA010586EA4B
:10023000010685FA47F5A3FA87F586FA47F6A5FA87
:1002400087F68EB9EED1F0BC01F0FF0102F0070293
:1002500032B110F8013B013A83EA010313B1F8D13E
:100260000020704701387047002D06BF354603381F
:10027000073815F0010F07D1013015F4807F02BF58
:10028000013015F4C03F0130F0BC0138704700BFA9
:1002900053B94AB9002908BF00281CBF4FF0FF31ED
:1002A0004FF0FF3000F088B9ADF1080C6DE904CED5
:1002B00000F006F8DDF804E0DDE9022304B0704741
:1002C0002DE9F047089D0F4604468C46002B48D187
:1002D0008A42164661D9B2FA82F34BB1C3F12002C9
:1002E00001FA03FC20FA02F29E4042EA0C0C9C4008
:1002F0004FEA164EB7B2BCFBFEF1220C0EFB11CC3E
:1003000042EA0C4201FB07F0904209D9B21801F110
:10031000FF3C80F0EE80904240F2EB8002393244A4
:10032000121AA4B2B2FBFEF00EFB102244EA024401
:1003300000FB07F7A74209D9341900F1FF3280F01A
:10034000DA80A74240F2D7803444023840EA0140C4
:10035000E41B00211DB1DC400023C5E90043BDE8DA
:10036000F0878B4206D90DB1C5E90001002108468E
:10037000BDE8F087B3FA83F1002948D1BB4202D32C
:10038000824200F20781841A67EB0302012094463F
:10039000002DE4D0C5E9004CE1E7002A00F092808E
:1003A000B2FA82F3002B40F0A8808A1A4FEA164E68
:1003B0001FFA86FC0121200CB2FBFEF70EFB172270
:1003C00040EA02420CFB07F0904207D9B21807F14D
:1003D000FF3802D2904200F2E2804746121AA4B2DD
:1003E000B2FBFEF00EFB102244EA02440CFB00FCC0
:1003F000A44507D9341900F1FF3202D2A44500F216
:10040000CB801046A4EB0C0440EA0740A2E7C1F100
:1004100020068B4022FA06FC4CEA030C07FA01F492
:1004200020FA06F3F7404FEA1C49234300FA01F88B
:100430001FFA8CFEB7FBF9F01C0C09FB107744EA9D
:10044000074400FB0EF7A74202FA01F20AD91CEB9F
:10045000040400F1FF3A80F09B80A74240F29880AC
:1004600002386444E41B9FB2B4FBF9F309FB134464
:1004700047EA044403FB0EFEA64509D91CEB04041D
:1004800003F1FF3780F08280A6457FD9023B6444A8
:1004900043EA0040A4EB0E04A0FB02E7BC42734613
:1004A000B94663D360D05DB1B8EB030264EB0904D5
:1004B00004FA06F622FA01F31E43CC40C5E90064B3
:1004C00000214CE76208480842EAC1710B0C43EA7C
:1004D00000438AB242EA0342B3FBF6F1E407B446B2
:1004E0003746B6461F23B0FBF6F0D21B41EA004167
:1004F00061E7614614E7104628E7C3F1200120FABE
:1005000001F29E4027FA01F19F403A434FEA164E0E
:100510001FFA86FCB1FBFEF70EFB1710110C41EA27
:10052000004107FB0CF8884504FA03F43AD9711826
:1005300007F1FF3001D288451FD8A1EB0801B1FBBC
:10054000FEF808FB0CF70EFB181192B242EA0142CA
:10055000BA422FD2B21808F1FF31C6D2BA42C4D281
:10056000A8F102013244C0E7F0459CD2BEEB020381
:1005700067EB0C070138B94695E7A6EB080841443C
:10058000B81EB1FBFEF808FB0CF7DCE73B467FE743
:10059000504667E70846FBE63444023832E7023F3C
:1005A00032441BE7A1EB08013846B1FBFEF808FB1B
:1005B0000CF7C8E7414698E7704700BFDFF834D032
:1005C000002103E00C4B5B58435004310B480C4BAB
:1005D00042189A42F6D30B4A02E0002342F8043B49
:1005E000094B9A42F9D304F06DFD24F031F801F083
:1005F000F1F8704700000320ECDA0C08000000203E
:100600007001002080030020DC430120FEE77047DA
:1006100008B500F0D5FDBDE8084000F057BD00F07A
:10062000D1BD704710B50421044622F066FD204676
:1006300010BD000038B50C4B0C4C18800C4B8220C0
:1006400019806368984740F6110398420AD1094D12
:1006500023682C60822098472B688220DB689847AB
:10066000002038BD0120FCE7A60300205C0000202C
:10067000A4030020A80300204FF4A071F020FFF78E
:10068000D9BF0000F7B5394D2B6804461B6982209D
:100690009847208000284FD02B680DF106025B6937
:1006A00001A982209847324BBDF806201B78002B09
:1006B0004AD040F674639A4240D9ADF80630BDF88E
:1006C00006209B1A9AB20A2A42D90B23B2FBF3F2F4
:1006D000284B1B889A4201D9013B9AB2BDF80430DD
:1006E000254840F6B8318B4234D8C3F571630E33D8
:1006F00001689BB20F25B3FBF5F3204D2D88AB426B
:1007000084BF05F1FF35ABB28B421D468EB22AD9AC
:100710009B1B99B21A4F3E68B3B2B2428CBFD31A38
:100720009B1A9BB219440529C8BF05600368C4BF62
:100730003A6016466380A68003B0F0BDB32A9CBF22
:10074000B422ADF80620BAE7A2F5B47292B2BAE7C5
:100750000022C3E7C3F56D6308339BB20E2B01681B
:10076000C8D800252B46C91A89B2D3E7A8030020B0
:10077000CC200020A4030020A0030020A60300201A
:100780009C03002037B568460D461446FFF77AFFF4
:10079000BDF8000030B1BDF802302B60BDF8043068
:1007A0002360012003B030BD032821D8DFE800F02A
:1007B000020B12190F4B1A68B2FA82F25209042185
:1007C0000D4805F045B90B4B5A68B2FA82F252094E
:1007D0000821F5E7074B9A68B2FA82F25209102114
:1007E000EEE7044BDA68B2FA82F252092021E7E719
:1007F000704700BFAC03002000100240032821D83E
:10080000DFE800F0020B12190F4B1A68003A18BF0C
:10081000012204210D4805F01BB90B4B5A68003A20
:1008200018BF01220821F5E7074B9A68003A18BF64
:1008300001221021EEE7044BDA68003A18BF0122CA
:100840002021E7E7704700BFAC0300200010024002
:1008500003280DD8DFE800F00206080A0421054845
:1008600005F0FBB80821FAE71021F8E72021F6E7A8
:10087000704700BF0010024008B5032811D8DFE818
:1008800000F0020A0C0E0421074805F0DBF8431EB5
:100890005842584108BD0821F6E71021F4E720210D
:1008A000F2E70020F3E700BF0010024070B5084DEA
:1008B00000240126E0B2FFF7DFFF18B12B68012BFF
:1008C00018BF2E600134052C05F10405F2D170BD6E
:1008D000AC030020012380F87C1080F87D30704745
:1008E0007047002070470000034B8164003918BF37
:1008F00001211970704700BF973601207047002012
:100900007047C36B0BB10846184770474FF6FF702E
:100910007047406803689B69184770477047704785
:100920007047704710B5044600F064FD2368034922
:10093000D3F890302046BDE810401847000000D0A2
:1009400008B503680446D3F88430984723682046E6
:10095000DB6F984700F008F9236820465B6F9847E3
:10096000292001F051FA00F0FFF8236820465B6F60
:100970009847F8E710B504460AF016FB23682046AE
:10098000D3F8BC30BDE81040184700F017BD00F0A8
:100990001BBD00F04DBD00F0EDBC00F05DBD00F0F2
:1009A00065BD00F0F1BC09F0F2BC10B58821044629
:1009B00022F0A3FB204610BD10B590F8381090F837
:1009C0007C400C4B8C421A7809D03AB90A4A0B4940
:1009D0001488088810800C8001221A7010BD002A2B
:1009E000FCD0054A05491488088810800C80002234
:1009F000F3E700BF96360120A03601209E36012085
:100A000008B5094B1B888B4203D8084B1B889342BF
:100A100005D9074B074A0848A52123F099FB074B46
:100A20001980074B1A8008BDA03601209E36012090
:100A3000285202088B520208CE5202089C3601202E
:100A40009A3601202DE9F0410D460446194635B984
:100A5000154B164A164840F2013123F079FBC0E9E4
:100A600010520368134ED3F89030003A18BF012299
:100A700032709847E569A5B12B681F68337873B168
:100A8000236820465B6B9847236C834207D1616CD7
:100A9000094B28461A883B46BDE8F0411847216CAF
:100AA000F6E7BDE8F08100BF135302084B5302087C
:100AB000CE520208983601209C360120034690F859
:100AC0007E0018B1586803681B681847704700001B
:100AD000012108B50022084607F078F80A4B186093
:100AE00028B90A4B0A4A28210A4823F031FB002280
:100AF0000421012007F011F9074B186018B9074BC2
:100B0000034A2C21F0E708BDC003002099530208D6
:100B1000E253020811540208BC0300207754020873
:100B2000024B4FF0FF31186807F09AB8C00300205D
:100B3000014B186807F0C0B8C0030020024B002129
:100B4000186807F08DB800BFC0030020FFF7F0BFA2
:100B500003480449006800231A4607F019B900BF8A
:100B6000BC0300200400002013B5084C00231A46E3
:100B700001A9206807F03DF920684FF0FF330022FB
:100B800001A907F036F902B010BD00BFBC03002078
:100B900003685B6C18470120704703689B6A18471D
:100BA000FEE740F2EF307047054B0360054B4FF016
:100BB0008062C3F88820BFF34F8FBFF36F8F7047F9
:100BC000E460020800E100E010B504464FF45A6109
:100BD000FFF7EAFF204622F090FA204610BD000001
:100BE00082B0002301930E4B1A6B42F400021A6389
:100BF0001A6B02F400020192019A1A6942F400028F
:100C00001A611A6922F400021A61064B064A1A6137
:100C1000064A5A61064B4FF080629A6002B07047F4
:100C200000380240702200207D0E0008A10B000851
:100C300000E100E008B50A2809D8DFE800F0061056
:100C40000E080808081010101000022008BD054BFF
:100C5000054A0648902123F07BFA0020F6E70120A0
:100C6000F4E700BFB9540208D45402081F55020823
:100C700070B50C46887FFFF7DDFFA18AE28A164B2C
:100C80002569586342EA01425A64628BDD63521A55
:100C90001A642668E168082E0DD19A611A615862BB
:100CA000207F0E4A42EA0062DA610D4A19625D61F4
:100CB000DD601A6070BD0022D8611A6148090A0A15
:100CC00002F4784200F4FC600243C1F3C4010A4319
:100CD0009A63044AEDE700BF00B00240090001003A
:100CE000012302000123030008B50B280BD8DFE81D
:100CF00000F00612100A0A0A0A080808080802206A
:100D000008BD0520FCE7054B054A06486F2123F086
:100D10001FFA0020F4E70120F2E700BFB9540208EF
:100D2000835502081F5502082DE9F04191F81D80F6
:100D30000C464046FFF7D8FFA77F05463846FFF729
:100D4000D3FF06463846FFF775FFA18A628B454BF5
:100D5000521A1A649A61228B521A1A61E28A5863F3
:100D600042EA01425A6421696268D963DA60D4F8C0
:100D700000C0207FBCF1800F4FEA006229D013D859
:100D8000BCF1200F45EA020064D0BCF1400F61D0F5
:100D9000BCF1040F5ED0334B154345F40035B84524
:100DA000DD615BD0304A40E0BCF5807F07D0BCF508
:100DB000007FF0D142F4003242F0090203E042F435
:100DC000003242F00A02DA61E2681A625E62596138
:100DD0002AE0A4682A4342F40032271DDF62DA6168
:100DE00022785E62596142B1012A21D01F4B204A0C
:100DF00020484FF48D7123F0ABF9DA69618822F451
:100E00007F42013922F0100242EA0122DA61012117
:100E1000144BDA6942F02002DA61DA699206FCD4F6
:100E200010229A600029BDD0134A1A60BDE8F081F3
:100E3000DA69B0F1FF01608822F47F4200F1FF30EF
:100E400022F0100242EA002242F0100218BF0121F3
:100E5000DA61DDE740F40030D861B7E742F20132F1
:100E6000E3E700BF00B0024001230100CD550208B6
:100E7000E75502081F55020801230200024B1B68B8
:100E8000586803685B691847A436012070B50446AA
:100E900025460A4B0C30002660602672667245F8C3
:100EA000203B602229460AF0E9F904F55A63EE6016
:100EB00024359D42FBD1204670BD00BFE46002088E
:100EC000034B1A68D207FCD423229A60704700BFF4
:100ED00000B002407047000030B50F4C2568ED07A8
:100EE000FCD423250904A56041F001010225FF2B54
:100EF00065636164E0630AD00849656241EA03639F
:100F0000E361074B22626061E060236030BDE56110
:100F1000039BA363034BF8E700B002400900010004
:100F2000010002000100030030B50E4C2568ED07FA
:100F3000FCD423251204A56042F001020225FF2BF8
:100F400065636264E063E16008D01B0643F002134E
:100F5000E361054B65626061236030BD034BE36173
:100F60000123F9E700B0024001000200020002FF85
:100F700030B50B4C2568ED07FCD4232512041B0665
:100F8000A56043F40033022542F001026563626408
:100F9000E063E160E361034B65626061236030BD43
:100FA00000B002400100020001207047402070475D
:100FB00000EB81100830704700EB8110083070475B
:100FC0000120704740F67830704740F6783303FBD5
:100FD00001000830704740F6783303FB0100083009
:100FE0007047012070471020704700EB0110083057
:100FF000704700EB011008307047084601F0C2BC92
:1010000010B5034B0360044608F013FF204610BDE3
:101010009C61020810B50446FFF7F2FF2046482104
:1010200022F06BF8204610BD10B5034B0360044658
:1010300008F0FFFE204610BD6861020810B50446A6
:10104000FFF7F2FF20464FF4386122F056F82046B1
:1010500010BD000010B5034B0360044608F0E9FE24
:10106000204610BD3461020810B50446FFF7F2FFB8
:101070002046182122F041F8204610BD10B5084B3B
:101080000360044600F6AC30FFF7BAFF04F12C0011
:10109000FFF7CAFF04F11400FFF7DCFF204610BD84
:1010A000D061020808B50248FFF7E8FF08BD00BF9D
:1010B000A012002010B50446FFF7E0FF204640F6DE
:1010C000545122F01AF8204610BD0000F7B501F087
:1010D00063FA054601F064FA0024014600942346B1
:1010E0002246284612F0A6FF284B294A1A602046BD
:1010F00002F0AEFB274B284A28489A6012F000FF06
:10110000274C2368BFF35B8FDB0738D4204621F0E0
:10111000F6FF002833D0234A234B136002F12C073B
:1011200002F6F83502F6AC3602F114009760506012
:10113000D660156108F07EFEA5F6F83238461B4BE6
:1011400053612C3F08F076FE194BFB62304608F0E5
:1011500071FE184BC7F8AC3B07F6F43003F092F879
:101160003A4607F6F431284602F0ECFB284601F037
:1011700009FC114823F00AF8204621F0CCFF0F4863
:1011800003B0BDE8F040FFF7CDBB00BF0037012042
:101190004C0400206C0400205004002008000020B3
:1011A0009C120020A0120020D061020834610208C5
:1011B000686102089C610208A5100008C4030020B1
:1011C000704700000148FFF7BBBB00BFC40300200D
:1011D00070B5274E274C284D284B23603046FFF72B
:1011E00055FE284618F0AAF9254810F0A3FC254B17
:1011F0002548DC6000224FF48071C3E913122349B3
:101200001A63C3E91B1222499A86C3E91F012149C7
:10121000C3F884102049214883F85C20C3E90422E4
:10122000C3E90622C3E90822C3E90A22C3E90F225F
:10123000C3E91122C3E91522C3E918229A6683F88B
:1012400074209A67C3E901650B60F021018014489E
:10125000018014484FF4A0710180134801801349A4
:101260000A70012283F83820114A1A6070BD00BF4D
:10127000F8040020981200206C0400201852020884
:1012800050040020C40300200000010101000001FF
:10129000000450001A001400A4360120A0360120DA
:1012A0009C3601209E3601209A3601209636012078
:1012B000F85F02080148FFF777BC00BFF804002080
:1012C0000020704781807047C1807047018170475E
:1012D000418170477047704770477047704710B43E
:1012E000C4880368121B84885B6D091B12B25DF809
:1012F000044B09B218474FF6FF7383814FF0FF3359
:1013000003621368C36110607047002070478B88C8
:10131000838001207047704780F82610704790F84E
:101320002600704710B50022B1F90840B1F90A1043
:10133000028042808480C18010BD002202804280F1
:101340008280C28070470177704780ED080A70473D
:1013500080F82410704780F82510704701207047EE
:10136000983070478C3070478430704770477047B2
:1013700070470000034B902283F85A2383F85823C8
:10138000704700BF00E100E0094A0A49D3680A48F3
:10139000C3F30A03013B9BB20B801169C1F30A013D
:1013A000013901801364536B43F0010353637047A9
:1013B00000680140F61F0020F41F0020014BD3F805
:1013C000AC00704700680140024B0122C3F8AC102A
:1013D0005A6270470068014010B52C21044621F084
:1013E0008CFE204610BD10B5BC21044621F085FEC0
:1013F000204610BD70B5044609F01FF823689D6EA5
:101400000FF02EF901462046A8472368054AD3F875
:101410008C502046AC460023BDE87040A2F5163142
:10142000604700BF00B004D008F0EEBF08F0F8BF7E
:1014300008F0B3BF09F01FB990F8252012B1036876
:101440005B691847704790F825201AB190F824205E
:1014500002B1186070470000034B4FF080629A6041
:101460004FF080729A60704700E100E0084B4FF047
:101470008062C3F88820BFF34F8FBFF36F8F4FF0A8
:101480008072C3F88820BFF34F8FBFF36F8F704710
:1014900000E100E070B50023124E8380124B036020
:1014A000336893F85C2005460AB1186D00B9986856
:1014B00003681B6B98473368B0FA80F4186D6409B1
:1014C00030B103681B6B9847002808BF44F0010443
:1014D0002CB9064B064A07482C2122F039FE284633
:1014E00070BD00BFA4360120E46102082556020841
:1014F00083560208BC56020870B5254E3568BFF306
:101500005B8F15F0010540D1304621F0F8FD002831
:101510003BD0204C204B256104F13400C4E9003558
:10152000C4E90255E584A562A58510F0EAFD04F141
:1015300058000BF061FB194BA3652046184B40F88F
:10154000843BFFF7A7FF174BC4F884302433C4F85B
:101550008C304FF4C803C4E928350023C4F8AC30FC
:10156000C4F8B030C4F8B430C4F8B8300E480F4BEB
:10157000C4F89050C4F89C50C4F8A850C4F89830EF
:1015800022F004FE304621F0C6FD024870BD00BFC7
:10159000F81F0020FC1F0020D46A02080462020821
:1015A0007C620208886A020871130008686A0208EF
:1015B00038B5184C23685BB3174B184A1B6C11885D
:1015C0008B4216D1164B198805F036F8236893F82C
:1015D0006E200025013283F86E2083F88050FFF7DB
:1015E000B7FA206809F0E0FC2846BDE83840FFF76C
:1015F000DBB805F021F82468236820461B6A984769
:10160000012384F880300020BDE83840FFF7F6B8A9
:1016100038BD00BFA436012000680140F61F00203D
:10162000F41F002007B5064BADF806001B680548FF
:1016300001220DF1060105F0EBFD03B000BD00BF76
:101640000C0000200C21002010B5084803F02EFEED
:101650000A21064803F0C3FE044803F013FF0446C2
:10166000024803F0A1FE204610BD00BF0023002069
:1016700010B5084803F01AFE0A21064803F0AFFE31
:10168000044803F0FFFE0446024803F08DFE2046A6
:1016900010BD00BFB8220020F7B5234F234EFFF73F
:1016A000D3FF0546FFF7E4FF2946024604462048DB
:1016B00022F014FF322D386819D952238DF80730E3
:1016C00000231A460DF1070106F062FB642C13D9C2
:1016D000184855238DF80730006800231A460DF18D
:1016E000070106F055FB642006F064FAD7E7072DE2
:1016F00094BF4C234E23E1E7072C08D844238DF8F0
:101700000730002330681A460DF10701E9E74E2340
:1017100008488DF8073000231A460DF107010068CC
:1017200006F036FBEDE700BFC8200020C0200020F7
:101730001E570208C420002030B595B010220021A9
:101740000AA822F021FF1422002103A822F01CFF86
:1017500000241E4B01941A6C42F080521A641B6CD8
:1017600003F080530193019B194B02941A6842F4D1
:1017700040421A601B6803F4404302930122029B1B
:101780004FF48033CDE9082302254FF4800308216C
:10179000CDE90E534FF4B473CDE9101308A8042318
:1017A0001393129504F0A0FF04F064FF0F23CDE91A
:1017B00003354FF4A0504FF48053CDE906030521C3
:1017C00003A8059405F06CF915B030BD003802404F
:1017D0000070004080B59AB003F082FCFFF7ACFFC8
:1017E000142200210DA822F0CFFE0024C04B00944B
:1017F0001A6BC04842F010021A631A6B02F0100212
:101800000092009A01941A6B42F020021A631A6B3C
:1018100002F020020192019A02941A6B42F08002B7
:101820001A631A6B02F080020292029A03941A6BF6
:1018300042F004021A631A6B02F004020392039A44
:1018400004941A6B42F001021A631A6B02F001024F
:101850000492049A05941A6B42F002021A631A6BFE
:1018600002F002020592059A06941A6B42F04002B9
:101870001A631A6B02F040020692069A07941A6BDA
:1018800042F008021A631B6B03F008032246079319
:101890003C21079B04F0DCF897480122022104F068
:1018A000D7F822469448042104F0D2F822469348FF
:1018B0004FF4405104F0CCF8224691484FF40051C7
:1018C00004F0C6F801253C2303278A480F940DA98C
:1018D0000226CDE90D35109703F0D0FF86480DA9FB
:1018E000CDE90D654FF00408CDE90F4403F0C6FFC4
:1018F00081480DA9CDE90D85CDE90F4603F0BEFF66
:101900004FF440537D480DA9CDE90D35CDE90F4683
:1019100003F0B4FF79480F940DA9CDE90D8703F0CA
:10192000ADFF4FF4005376480DA9CDE90D35CDE953
:101930000F4403F0A3FF0DA9062372480F94CDE9CD
:101940000D3703F09BFF704A704B1360104603F095
:101950008BFE6F4A6F4B13606F4BD460C2E901344A
:1019600010464FF48043C2E90434C2E906441462CD
:1019700004F088FA1021664804F0CAFC2146644845
:1019800004F0E5FC654A664B13604FF48273C2E9CC
:1019900001344FF400781823C2E9068310460A2365
:1019A000C2E90344C2E9084454619462D36205F079
:1019B000D3FB8F23224631464F488DF824308DF8D3
:1019C000344004F045F82A464FF47A7309A9534885
:1019D00005F01EFC4FF47A732A460DA94F4805F016
:1019E000C3FD2A463146444804F032F89DF83430AD
:1019F0004C4AD32B04BF4C4B1D704C4B1360402101
:101A00004FF4C0730024C2E905134FF40063C2E928
:101A100008344FF40053012502274FF004084FF01B
:101A2000030A4FF0100993620DA9072310460826F8
:101A3000CDE90F83CDE90D73C2E90389C2E90154F1
:101A4000CDE911A7D461139705F06AFA4FF6FF723A
:101A500009A934480894CDE90A6509950C9405F064
:101A60007FFA284603F068FB4FF6FF7209A92D485C
:101A7000CDE90976CDE90B5405F072FA4FF6FF7205
:101A800009A92848CDE909A6CDE90B8405F068FA33
:101A90004FF40C730893089B22480C934FF6FF7287
:101AA00009A9CDE909860B9505F05AFA40F26A5169
:101AB0001C48DFF8848005F071FA342221460DEBD2
:101AC000020022F061FD1A4A1A4B1461C2E9003487
:101AD0000923C2E905351D23C2E9073A40F20D107A
:101AE00040F2431340F2171CC2E9090326E000BF8D
:101AF000003802400010024000080240000C024082
:101B00000018024000000240B022002000300240D5
:101B10001C220020005C0040A08601000C21002057
:101B200000500140D8200020CC200020400100A01F
:101B30007421002000680140B820002040F24713C3
:101B40001046C2E90BC3C2E90244948682F83640CB
:101B500004F090FCFF214FF4806EF022CDE91214C6
:101B60000521CDE914E14FF4A0730DA9CDE90E24B0
:101B7000CDE91642504818932246CDE910370D940E
:101B8000ADF864408DF8664004F028FD4B4BC8F872
:101B900000301B689847D8F80030DFF87C81DB689C
:101BA0009847474A474B1046C2E90034C2E90274DD
:101BB000C2E90A47C2E90C4403F066FD29464048E1
:101BC00003F018FE21464A460DA822F0DDFC3E4AED
:101BD0003E4B136010464FF4803AC2E901A41461F1
:101BE000147682F82040D462C2F82880D460D5618F
:101BF00082F83040556103F0B3FA0DA932480F94D2
:101C0000CDE90D5503F042FC21464A460DA822F0CD
:101C1000BBFC2F4A2F4B94601046C2E9003AC2E940
:101C20000A841461147682F82040D460D56182F869
:101C30003040556103F094FA0DA925480F94CDE981
:101C40000D7503F023FC244A244B1360104605F065
:101C50001BF9FEF7DDFCFEF7DAFC05F023FF204A56
:101C60002946304606F059F81E4B1F4A186029468F
:101C7000304606F052F81D4B1D4A18602946304682
:101C800006F04BF81B4B1C4A18602946304606F0FC
:101C900044F81A4B1A4A186021461A4805F02EFFDC
:101CA000194B1A4A18602146194805F027FF194BAD
:101CB000186005F009FFFEE77421002024000020D1
:101CC0007022002000B002400023002000200140CC
:101CD000B8220020002101406421002000080650A5
:101CE00008630208C8200020F0620208C420002017
:101CF000D8620208C0200020C0620208BC20002078
:101D00004463020899160008D420002020630208CA
:101D10001F060008D02000200100000F7047704708
:101D20007FB5084B8DF817201B6802930DF1170241
:101D30000123009201930A460146034804F04AF940
:101D400007B000BD100000201C2200207FB500233A
:101D50008DF81730084B1B6802930A4601230DF1DA
:101D60001701009101930146044804F0C3F99DF85E
:101D7000170007B000BD00BF100000201C2200208B
:101D80001FB5084C24680092CDE901340A460123AE
:101D90000146054804F0AEF9003818BF012004B030
:101DA00010BD00BF100000201C22002003F0C4B9A9
:101DB00008B506480022042103F04AFEBDE80840A9
:101DC00002480122042103F043BE00BF0008024084
:101DD00010B5012204464FF40051094803F038FEC3
:101DE00000220421074803F033FE2046FFF71AFCC7
:101DF000BDE8104003480122042103F029BE00BFC2
:101E0000000C02400008024010B5002204464FF4C6
:101E10000051094803F01CFE00220421074803F08A
:101E200017FE2046FFF7FEFBBDE8104003480122E5
:101E3000042103F00DBE00BF000C02400008024068
:101E400037B505460C4612480022042103F000FE77
:101E500000224FF400510F4803F0FAFD2846FFF727
:101E6000E1FB0D4B0D481B68224601A905F07CFBE8
:101E70000848019C01224FF4005103F0E9FD044899
:101E80000122042103F0E4FD204603B030BD00BF71
:101E900000080240000C02400C0000200C21002031
:101EA00003F04AB90268034B9A4201D103F032B9F8
:101EB000704700BF001000407047000082B00E4B1A
:101EC00000220092596C41F480415964596C01F42C
:101ED0008041009100990192196C41F08051196480
:101EE0001B6C03F080530193019B0F216FF00100E5
:101EF00002B003F079BB00BF0038024010B51422D5
:101F00008AB0044600210DEB020022F03DFB23685D
:101F10001E4A93421FD11E4B002101915A6C42F47C
:101F200080725A645A6C02F480720192019A029192
:101F30001A6B42F001021A631B6B03F00103029358
:101F4000029B022305931348032305A9069303F07C
:101F500095FC0AB010BD104A9342FAD10C4B0021F7
:101F600003915A6C42F400725A645A6C02F4007283
:101F70000392039A04911A6B42F001021A631B6BDD
:101F800003F001030493049B0423DBE700200140DA
:101F90000038024000000240002101400268094B65
:101FA0009A4282B00BD100230193074B1A6B42F483
:101FB00080521A631B6B03F480530193019B02B0A0
:101FC000704700BF003002400038024007B50E4B9A
:101FD00002689A4216D10022A3F5F0430192196BD0
:101FE00041F4000119631B6B03F400030193052105
:101FF0005A20019B03F0F8FA5A2003B05DF804EB75
:1020000003F024BB03B000BD00B002402DE9F04353
:10201000044689B01422002103A822F0B5FA2268F0
:10202000244B9A4243D1244C244800250095236B2D
:1020300043F004032363236B03F004030093009B2A
:102040000195236B43F001032363236B03F001032A
:102050000193019B4FF012094FF400734FF00108F8
:102060000327042603A9CDE90339CDE9058707969F
:1020700003F004FC4FF480731148079603A9CDE9DF
:102080000339CDE9058703F0F9FB0295236C43F48E
:1020900000032364236C03F400030293029B236A6E
:1020A00043F400032362236A23F40003236209B08C
:1020B000BDE8F083005C00400038024000080240A8
:1020C00000000240F0B599B004461422002107A890
:1020D00022F05AFA30220DEB0200002122F054FACD
:1020E00022685E4B9A4240F0B78008230C93C023CD
:1020F0001093042312930CA84FF40033159304F0AB
:1021000097FD08B1FFF7D8FE554B564800240094C0
:102110005A6C42F080625A645A6C02F080620092FB
:10212000009A01941A6B42F020021A631A6B02F0B3
:1021300020020192019A02941A6B42F001021A6382
:102140001A6B02F001020292029A03941A6B42F097
:1021500002021A631A6B02F002020392039A0494B9
:102160001A6B42F040021A631A6B02F040020492AA
:10217000049A05941A6B42F004021A631A6B02F077
:1021800004020592059A06941A6B42F008021A633B
:102190001B6B03F00803069302250E26069B0B9685
:1021A0004FF4806307A9CDE90735CDE9094503F070
:1021B00065FB41F658032C480B9607A9CDE9073576
:1021C0000927CDE9094503F059FB032327480B975D
:1021D00007A9CDE90735CDE9094503F04FFB4FF4D9
:1021E000706322480B9607A9CDE90735CDE909456B
:1021F00003F044FB4FF40C631D480B9607A9CDE98F
:102200000735CDE9094503F039FBC02319480B9682
:1022100007A9CDE90735CDE9094503F02FFB0823D0
:1022200015480B9607A9CDE90735CDE9094503F017
:1022300025FB4FF4A0530E480B9707A9CDE90735AE
:10224000CDE9094503F01AFB58202246052103F089
:10225000CBF9582003F0FAF919B0F0BD006801403D
:102260000038024000140240000002400004024016
:102270000018024000080240000C02400268094BAE
:102280009A4282B00BD100230193074B5A6B42F064
:1022900040025A635B6B03F040030193019B02B061
:1022A000704700BF000806500038024010B50446D1
:1022B00088B01422002103A822F066F92268144B8A
:1022C0009A4223D103F56843002101915A6C1148C9
:1022D00042F480125A645A6C02F480120192019AFC
:1022E00002911A6B42F020021A631B6B03F0200369
:1022F0000293029B4FF4607202230321CDE9032372
:102300000523CDE9061303A903F0B8FA08B010BD00
:1023100000500140001402402DE9F04186B0002336
:1023200003932B4B1C68002C4FD14FF00108C3F8CE
:102330000080284B00949A6B274842EA08029A636F
:102340009B6B03EA08030093022703260C25009BDE
:1023500001A94FF63F03CDE90137CDE9046503F04C
:102360008DFA1E48059501A9CDE90187CDE90346FF
:1023700003F084FA48F233131948059501A9CDE911
:102380000137CDE9034603F079FA4FF68373154818
:10239000059501A9CDE90137CDE9034603F06EFAB1
:1023A0004CF203731048059501A9CDE90137CDE939
:1023B000034603F063FA60230C48059501A9CDE9B3
:1023C0000137CDE9034603F059FA06B0BDE8F081C4
:1023D0004823002000380240001402400008024058
:1023E0000018024000100240000C024000040240AD
:1023F00030B589B000230293204B1A6C42F01002D2
:102400001A641B6C03F010030293054601A903A88C
:10241000029B04F0EFFB069B4BBB04F0DBFB184A6E
:10242000184B136040F2E733D360174BB0FBF3F364
:10243000013B53601046002313619360936105F0E4
:102440005DFA044680B90E4805F032F9044658B9E1
:10245000362003F0FBF80F2D0DD8224629463620F2
:1024600003F0C2F8094B1D60204609B030BD04F0EE
:10247000B1FB4000D3E70124F6E700BF003802407B
:102480004C2300200010004040420F008C00002030
:102490007047FEE7FEE7FEE7FEE77047014805F0FC
:1024A00045B900BF4C230020014804F03AB800BFF2
:1024B00074210020014803F013B900BF70220020EE
:1024C0000120704708B522F0BDF8162303604FF0D5
:1024D000FF3008BD08B522F0B5F816230360FEE70B
:1024E00070B50D4614460E46731B9C4201DC204617
:1024F00070BDAFF3008006F8010BF5E770B50D462F
:1025000014460E46731B9C4201DC204670BD16F833
:10251000010BAFF30080F5E74FF0FF3070474FF449
:1025200000534B6000207047012070470020704727
:10253000094A08B50346106808B908481060034402
:1025400069468B4206D922F07DF80C2303604FF0D8
:10255000FF3008BD1360FCE794230020E043012016
:10256000704710B50421044620F0C7FD204610BD79
:10257000012908B506D0022908D059B901F0B4F9EB
:10258000006808BD01F0B0F94068FAE701F0ACF965
:102590008068F6E70020F4E7004870477C63020893
:1025A0001520704713B5002451B1036801948DF8CC
:1025B000034001AA9C680DF10303A04702B010BDBF
:1025C0000846FBE7C0897047008A7047C08870479B
:1025D00080887047807A00F07F007047807AC00959
:1025E00070470020704700009FED010A704700BF50
:1025F00000000000806A7047704710B5082104464B
:1026000020F07BFD204610BD7047704700F59873A1
:102610000868496803C37047704770474160704756
:1026200070477047064BC0F84C310023C0F850315A
:1026300000F5A273C0F84801C0F84031704700BFF0
:10264000B927000801230372704770477047D0E92B
:102650000232416810B4541001EB6200D20748BF47
:102660000A595DF8044B48BFD358184703464068E1
:1026700030B19A681AB9D86800F00100704701209B
:10268000704710B50C21044620F037FD204610BDE0
:1026900010B51021044620F030FD204610BD10B5C5
:1026A0004FF4AE71044620F028FD204610BD10B551
:1026B0004021044620F021FD204610BD10B50DF04C
:1026C000CFFF0368BDE81040DB6B1847054B1B7854
:1026D00001462BB1406818B103680C315B6E184796
:1026E000704700BF97360120037A70B50546BBB925
:1026F00040680368DB69984704463CB9686803682A
:1027000005F10C011B6EBDE870401847A1886B8F66
:10271000C91A236820461B6B09B29847A469ECE7E5
:1027200070BD10B50446D0F8400158B10368DB68AD
:10273000984738B1D4F8400103689B689847002354
:10274000C4F8403110BD70B5044690F8390094F8D3
:1027500038300130C0B2984284F8390005D90123DD
:102760002372002384F8393070BDB4F93A20002177
:1027700010F019F9C30706D500284FF6FF73C8BF3C
:102780000123184400B2238AC01AA0876068036836
:10279000DB69984705462DB960680368BDE870405D
:1027A0005B691847A988A38F19442B6828461B6BBF
:1027B00009B29847AD69EEE72DE9F14FD0E9556AC6
:1027C0000746B06803681B6A9847B0F58E7F05D24C
:1027D000444B454AA321454821F0BAFC7068036880
:1027E0001B6A98470F2803D8414B3F4AA421F2E7C0
:1027F000F06803681B6A98470B2803D83D4B3A4A98
:10280000A521E8E70DF02CFFDFF8F09004300DF083
:1028100067FFD9F8000010B10368DB689847D9F862
:10282000000010B103681B689847DFF8D480D8F81F
:10283000000010B103685B699847D7F83C0110B1FC
:1028400003685B689847D8F8000010B103681B68FC
:102850009847D7F83C0110B103689B689847F06827
:10286000036800215B6A98474FF0000B224BC0F8C9
:1028700004B0044680F808B00360B06803685946A5
:102880005B6A9847054601F0F1FC70680368594699
:102890005B6A98472946064601F0C6FC331DC7F817
:1028A0003C61C9F80040C8F80050CAF800302B68F5
:1028B000C6F808A02846DB68EE63984733683046C0
:1028C0001B6898472146284610F067F82368204681
:1028D0001B69984723685B69204601B0BDE8F04F4B
:1028E000184700BF69570208F7570208CF58020877
:1028F00016590208B9590208A4650208EC360120ED
:10290000F0360120044B1B6893F85C200AB1186D67
:1029100000B99868704700BFA4360120F8B5174683
:1029200004460E460DF0AEFF124B1C60124B2360A6
:10293000124B0025C4E95135114BC4E953551868B1
:10294000036801219B68C4E94F55C4E9557698474F
:10295000284600F07DFFFFF7D5FF18F09EFCFFF73B
:10296000D1FF18F015FDFFF7CDFF18F01DFD204633
:10297000F8BD00BFF4360120506502083865020832
:10298000A4360120064BC0F84C310023C0F850316A
:1029900000F5A273C0F84801C0F84031704700BF8D
:1029A000B9270008064BC0F84C310023C0F850315D
:1029B00000F5A273C0F84801C0F84031704700BF6D
:1029C000952B0008064BC0F84C310023C0F850315D
:1029D00000F5A273C0F84801C0F84031704700BF4D
:1029E000592A00082DE9F04105460026164B46609D
:1029F000067245F80C3B044628460F460AF096F945
:102A0000124B84F838701B7884F83960A68723B994
:102A1000012323722046BDE8F0810D4B0D4FB3F921
:102A20000080E368B7F900109B6B26612846984741
:102A3000E3684146DB6B2846984728460AF0F2F8DF
:102A40003B885B426387E5E7C8650208973601204B
:102A50009E360120A03601202DE9F047D0E9556AC5
:102A60000746B06803681B6A984740F67733984278
:102A700005D8414B414AA321414821F069FB7068C8
:102A800003681B6A98470F2803D83E4B3B4AA42192
:102A9000F2E7F06803681B6A98473F2803D83A4B6F
:102AA000364AA521E8E70DF0DBFDDFF8E0900430C1
:102AB0000DF016FED9F8000010B10368DB689847E6
:102AC000D9F8000010B103681B689847DFF8C08090
:102AD000D8F8000010B103685B699847D7F83C014B
:102AE00010B103685B689847D8F8000010B103681C
:102AF0001B689847D7F83C0110B103689B6898475A
:102B0000F068036800215B6A984714210446FFF7C8
:102B100069FFB068036800215B6A9847054600F0CA
:102B200075FF7068036800215B6A9847294606466E
:102B300000F020FF331DC7F83C61C9F80040C8F819
:102B40000050CAF800302B68C6F808A02846DB6899
:102B5000EE639847336830461B68984721462846FD
:102B60000FF01BFF236820461B6998472368204607
:102B70005B69BDE8F0471847695702085C5A0208CC
:102B8000CF58020816590208B9590208EC3601203C
:102B9000F03601202DE9F047D0E9556A0746B068C4
:102BA00003681B6A9847B0F58E7F05D2414B424AB5
:102BB000A321424821F0CCFA706803681B6A984749
:102BC0000F2803D83E4B3C4AA421F2E7F068036883
:102BD0001B6A98473F2803D83A4B374AA521E8E7B4
:102BE0000DF03EFDDFF8E09004300DF079FDD9F8EE
:102BF000000010B10368DB689847D9F8000010B1F5
:102C000003681B689847DFF8C480D8F8000010B14B
:102C100003685B699847D7F83C0110B103685B68AB
:102C20009847D8F8000010B103681B689847D7F898
:102C30003C0110B103689B689847F0680368002165
:102C40005B6A984714210446FFF7CCFEB06803681E
:102C500000215B6A9847054601F008FB706803682D
:102C600000215B6A98472946064601F0DDFA331DCC
:102C7000C7F83C61C9F80040C8F80050CAF80030F5
:102C80002B68C6F808A02846DB68EE6398473368CF
:102C900030461B689847214628460FF07EFE236881
:102CA00020461B699847236820465B69BDE8F047CA
:102CB000184700BF69570208475B0208CF5802084F
:102CC00016590208B9590208EC360120F0360120E5
:102CD0007047704770477047704730B5036885B0DC
:102CE000D3F88430018104460146684698479DE840
:102CF00007003C3484E8070005B030BD30B50368F8
:102D000085B0D3F88430418104460146684698472F
:102D10009DE807003C3484E8070005B030BD002280
:102D2000028042808280C280704780F836107047EF
:102D300070B5036804461B6B1546984723682946FF
:102D400020465B6EBDE87040184700207047806CDD
:102D500070477047704770477047D0E9023230B40F
:102D60004468551004EB6200D20748BF625930BC7A
:102D700048BFD35818470346406830B19A681AB91B
:102D8000D86800F0010070470120704710B54C2151
:102D9000044620F0B2F9204610BD10B510210446BB
:102DA00020F0ABF9204610BD10B54FF44071044639
:102DB00020F0A3F9204610BD08B5FEF73DFB08BD85
:102DC000036870B55E6B124B1B6804468DB22BB95D
:102DD000104B114A6C21114821F0BAF91049828D2B
:102DE0000988914203D80F4B0B4A6D21F3E713F882
:102DF00012200D4B1B6853F8220003681B6B984789
:102E0000291A3346204609B2BDE87040184700BF72
:102E100004370120325C0208745C0208AF5C0208CF
:102E2000F8360120F65C0208FC3601209830884212
:102E300008B505D10DF014FCBDE80840FFF7B2BDA0
:102E400008BD00224FF0FF31C0E9002182607047C9
:102E500070B5036804461B6B1546984723682946DE
:102E600020465B6BBDE87040184770B504461D46B0
:102E7000BDF91060FFF7ECFF2368294620469B6BE5
:102E80009847236831462046DB6BBDE87040184701
:102E90000022C0E90122C0E90322C0E90522C0E9FD
:102EA00007224FF480728284014A0260704700BF9B
:102EB000EC65020838B5262204460D46002121F0B3
:102EC00063FB2046FFF7E4FF064B23602B88E38477
:102ED000FF23204684F8283029460AF060FD20466A
:102EE00038BD00BF7C6D0208F8B5194B018F1B88F7
:102EF0008B4206462AD9174B1B682BB9164B174A2B
:102F000017486C2121F024F913F81120154B1B6888
:102F100053F82250144B186800F0D6FC2B68074673
:102F20009B6B284698472B6804469B6C394628467D
:102F300098472B6814FB00F45B6A3946284698478B
:102F4000A4B223181BB2A6F84630F8BD0023FAE756
:102F5000F836012004370120325C0208745C020854
:102F6000AF5C0208FC3601200037012010B5262294
:102F70000446002121F008FB2046FFF789FF0A4B99
:102F800023600A4BA3624FF6FF73A3854FF47F02C1
:102F90000023C4E90C324FF0FF32C4E91023238729
:102FA000E363204610BD00BF846C02082865020858
:102FB0002DE9F04F04468DB0A04600250FF052FBDE
:102FC000E24BE56348F8403B26222946404621F083
:102FD000DBFA4046FFF75CFFDD4B236404F16C0B2A
:102FE000FF2384F866304FF6FF7604F1980A0AA9A9
:102FF0005846A56604F1E009ADF82860FFF75AFFCE
:1030000050460AF059FE48460AF056FE0AA904F551
:103010009470ADF82860FFF74DFF0AA904F5AA7077
:10302000ADF82860FFF746FF0AA904F5C070ADF8B7
:103030002860FFF73FFF04F5D6731846C54F03938A
:10304000FFF794FF04F5FC73C4F8AC711846C4F89C
:10305000F4510393FFF78AFF04F51173C4F8F87174
:103060001846C4F840520393FFF780FF04F523731A
:103070000AA918460393ADF82860FFF71BFFB64B6B
:10308000C4F88C324FF0FF370123C4E9AF73B34B60
:10309000C4F8B852C4E9BC34B14B84F8C452C4E992
:1030A000BE354FF4A0732A46404600932946F023CC
:1030B000FFF7DBFE261D4FF07F43A36641463046F7
:1030C00006F0CBFE2A4658462946FFF7C1FE584671
:1030D0000AA9ADF828500AF062FC5946304606F0BD
:1030E000BCFE5046BD222321FFF7B2FE4FF004087C
:1030F0000AAA09A950464FF0030BADF824B0ADF869
:1031000028800AF024FB05235046A4F8D030FFF7AE
:10311000EBFE04F53C73C4F8C03051463046C4E9B8
:10312000357706F09AFE4846BD222321FFF790FE30
:103130000AAA09A94846ADF824B0ADF828800AF0DB
:1031400006FB4FF00103A4F818314846FFF7CCFE08
:1031500049463046C4E9477706F07FFE0122CC217C
:1031600004F59470FFF774FE4FF00E090AA904F5F8
:103170009470ADF828900AF012FC04F59471304672
:1031800006F06BFE0122A92104F5AA70FFF760FE8C
:103190000AA904F5AA70ADF828900AF000FC04F51D
:1031A000AA71304606F059FE0122862104F5C0704E
:1031B000FFF74EFE0AA904F5C070ADF828900AF09A
:1031C000EEFB04F5C071304606F047FE1D23424673
:1031D00000930721602304F5D670FFF746FED4F86C
:1031E000AC31C4F8DC710DF11009D3F88430A4F8C7
:1031F000E05104F5D6714846984799E8070004F570
:10320000F47383E80700574B1B6804F5327A2BB937
:10321000554B564A6021564820F09AFF554B1B8863
:10322000022B03D8544B514A6121F4E7534B02213E
:10323000186800F049FB524A03460A21504610F034
:1032400052FEC4F8F4A10AA9DFF838A1ADF82C8029
:1032500004F5D6704FF02208CDF828A00AF01AFA2B
:1032600004F5D671304606F0F8FD7322294604F5C0
:10327000FC70CDF80080F023FFF7F7FDD4F8F831AB
:10328000C4F8287204F5FC714846D3F88430A4F8D9
:103290002C52984799E8070004F50D7383E807005E
:1032A00004F53773C4F840320AA904F5FC70A4F899
:1032B000DC52CDF828A0ADF82CB00AF0EBF904F5FB
:1032C000FC71304606F0C9FDF0237322294604F54F
:1032D0001170CDF80080FFF7C8FD04F51171484664
:1032E000C4F87472A4F8785209F000FF99E8070056
:1032F00004F5207383E807000AA904F51170CDF8DE
:1033000028A0ADF82C500AF0C5F904F5117130462B
:1033100006F0A3FD04F523700122D021FFF798FDEC
:103320000B2204F523700A2109F0E3FD04F5237054
:10333000012109F0F0FD304684F8B45204F5237100
:1033400006F08BFD20460DB0BDE8F08FFC6602084C
:10335000146D020854660208086C0208E46602084C
:103360002D2E000804370120325C0208345D02086B
:10337000AF5C0208F8360120F65C02080037012035
:103380007F5D020828650208406A7047806A7047BE
:1033900070478A880B8810B5D20A4C88C1699BB2E5
:1033A00051F8220043EA0443184410BD10B5044606
:1033B000BAB1107B68B1537BD27A1B0203F4E0638D
:1033C0001A43236A03EB82031A888A4202D193F9D3
:1033D000020010BD05D8013880B204330028F3D1B3
:1033E000F7E70020F5E710B52C2104461FF085FE15
:1033F000204610BD30B58BB00446BDF8605008952E
:10340000BDF85C5007959DF8505006959DF84C50BE
:1034100005959DF8485004959DF8445003959DF8F6
:10342000405002959DF83C500195BDF838500095EC
:103430000EF024FF064B2360159BE361169B23626D
:10344000199B63621A9BA36220460BB030BD00BF7C
:1034500030670208704770477047D0E9023230B4D5
:103460004468551004EB6200D20748BF625930BC73
:1034700048BFD35818470346406830B19A681AB914
:10348000D86800F0010070470120704710B5102186
:1034900004461FF032FE204610BD10B54FF48E7169
:1034A00004461FF02AFE204610BDC430884208B5ED
:1034B00005D10DF0D5F8BDE80840FFF783BA08BD87
:1034C0002DE9F34704460FF0CDF8484B23604FF445
:1034D00080736366464B23640025FF2304F16C0967
:1034E00084F8663004F198084FF6FF7601A9C4E924
:1034F0001155C4E91355C4E91555C4E91755E563D9
:10350000A5664846ADF80460FFF7D4FC01A9ADF804
:103510000460404604F1C406FFF7CCFC30460AF0D4
:10352000CBFB344BC4E94334334B04F1400A2A4605
:10353000C4E9453529465046FFF78AFC5046F0213C
:10354000FDF7C4FE50464FF4A071FDF7C1FE271DE4
:103550004FF07F43A3665146384606F07EFC2A466C
:1035600029464846FFF774FC012301A94846ADF8F7
:1035700004300AF014FA4946384606F06EFC1B2265
:1035800040461421FFF764FC142301A94046ADF81E
:1035900004300AF004FA4146384606F05EFC304634
:1035A000DF222321FFF754FC0323ADF8003004236E
:1035B0000DEB030269463046ADF804300AF0C7F857
:1035C0000623A4F8FC303046FFF78EFC4FF0FF33A3
:1035D000C4E9403304F586733846C4F8EC3031460C
:1035E00006F03BFC204602B0BDE8F087B067020859
:1035F000146D020898670208AB3400087047000099
:1036000030B5164D8FB02C68BFF35B8F14F00104FA
:1036100020D128461FF073FDE0B13F230993104BE2
:103620000893104B104911480A940122CDE9064332
:103630000423CDE903320A230093CDE90B44CDE9FD
:1036400001440594FFF7D6FE094820F09FFD284667
:103650001FF061FD05480FB030BD00BF982300206A
:1036600018860208488602087C8402089C230020F1
:10367000FD3500087047000030B5164D8FB02C683E
:10368000BFF35B8F14F0010421D128461FF037FDF2
:10369000E8B13F230993104B0893104B1049114890
:1036A0000A94CDE9064301220423CDE9033218230D
:1036B00000931B22CDE90B44CDE901440594FFF7AB
:1036C00099FE094820F062FD28461FF024FD0548B8
:1036D0000FB030BDC82300201C8602084C860208AB
:1036E0008C840208CC230020753600087047000047
:1036F00030B5164D8FB02C68BFF35B8F14F001040A
:1037000020D128461FF0FBFCE0B13F230993104B6A
:103710000893104B104911480A940122CDE9064341
:103720000423CDE9033228230093CDE90B44CDE9EE
:1037300001440594FFF75EFE094820F027FD284666
:103740001FF0E9FC05480FB030BD00BFF823002092
:10375000448602085086020808860208FC230020DE
:10376000ED36000800207047002070470EB403B506
:1037700003AB002153F8042B01930EF003F802B0C1
:103780005DF804EB03B070470CB407B504AB53F815
:10379000042B01930DF0F6FF03B05DF804EB02B0CB
:1037A00070470000436C10B5044673B3038F2BB908
:1037B000184B194AC521194820F0CAFCC38E00EBEA
:1037C00043035B8C0BB30FF02BFE238F012B03D82D
:1037D000134B144ACB21EEE7E28E531C9BB2092B0C
:1037E000194688BFA3F10A0104EB410140F63F10DE
:1037F000498C814209D10A2B04EB420228BF0023E5
:1038000004EB4303508C588451842046BDE810409B
:103810000FF009BD825D02088B5D0208365E02086A
:10382000805E02088E5E02080FF0C5BC10B586B03F
:1038300002AC84E806001A460AAB05930193099B83
:1038400000932146089B0CF080FA06B010BD0000E2
:1038500038B518BB124B13481C681349B4B1226821
:1038600022440260626822440A60A26814440F4B3A
:1038700000221A8000F038F8054600F033F80C4BAF
:103880001C600C4B1D600C4B188007E00B4B036059
:103890000B4B0B600B4B1C68002CE8D138BD00BFF4
:1038A000342400202C240020282400203024002050
:1038B00004370120FC360120F8360120708602080A
:1038C00054860208DC670208044B1B6853F8210089
:1038D000034B1B6803EB4000704700BF2824002007
:1038E0002C2400200720704700487047382400200F
:1038F00010B5FFF7C1FE044C2060FFF7F9FE6060D1
:10390000FFF77EFEA06010BD3824002010B5002413
:1039100004600C6014601C6010BD704710B54FF45B
:10392000AE7104461FF0E9FB204610BD10B50446F9
:10393000D0F8580100F0A9FC2046BDE810400CF07A
:1039400031BF000010B50446FEF7E8FF014B2360CD
:10395000204610BDE867020870470438704770477A
:1039600010B5102104461FF0C8FB204610BDA0F181
:103970000400F5E700228260024A026018324260C9
:10398000C16070473C68020810B50D4C206818B142
:1039900004F0F8F8002323600A4B01221A600A4A57
:1039A00000231370094A1370094A1370094A1370EF
:1039B000094A938003239385084BD36010BD00BF51
:1039C000482400201C000020552400204E24002004
:1039D0004D24002044240020082900206400C80051
:1039E00010B5034B03600446FFF7B5F9204610BD40
:1039F0006468020810B50446FFF7F2FF204640F65F
:103A000078311FF07AFB204610BD00002DE9F04F01
:103A100005468DB0FFF7CCFA05F5407A774B2B6061
:103A20004FF6FF7769465046ADF80070FFF742FA4F
:103A300005F54B79DFF8CCB105F2DC784C46002671
:103A400020466946ADF80070FFF734FA0123C4F848
:103A500000B0E6622786678684F8343084F83560E3
:103A600084F8366084F8376084F838603C34444524
:103A7000E6D105F6941B26464FF6FF773046694699
:103A80002C36ADF80070FFF715FA5E45F6D1D84632
:103A900005F64C374FF6FF764046694608F12C088C
:103AA000ADF80060FFF706FAB845F5D16946404623
:103AB000ADF80060524EFFF7FDF9684600F0DCFCFF
:103AC000BDF80430B380BDF91C30039AB383089B62
:103AD000F2603362049A099B32617362059A0A9B11
:103AE00072612F1D069AB3626846BDF82C30B3850B
:103AF000B26100F0D3FC384605F1980106F024FAD3
:103B0000384605F5FC7106F01FFA384605F1E0016C
:103B100006F01AFA384605F5117106F015FA38461E
:103B200005F16C0106F010FA002269464046ADF836
:103B3000002009F034FF002211464046FFF788F9C3
:103B4000002285F8712B3846414606F086F911238C
:103B500069465046ADF8003009F021FFB6F90E2055
:103B6000B6F90C105046FFF773F93846514606F087
:103B700074F9062704F5DC76212240F24111304623
:103B8000FFF766F9D4F8B83169461B6EADF80070DE
:103B9000304698472046212240F24111FFF758F95C
:103BA000236802221B6EADF80020204669462C34A3
:103BB00098475C45DED100240326B4FBF6F303EB03
:103BC0004303E31A012B13D0022B14D0092208213E
:103BD000484609F08EF901344846142109F09BF952
:103BE000142C09F13C09E8D128460DB0BDE8F08F4E
:103BF0000B220A21ECE70D220C21E9E76468020898
:103C000008290020086C02082DE9F041051D00F587
:103C1000D67804464146284604F5C07706F094F964
:103C20004146284606F019F93946284604F5AA7691
:103C300006F08AF93946284606F00FF9314628463B
:103C400006F082F904F594743146284606F005F929
:103C50002146284606F078F92146284606F0FDF868
:103C600040460DF0B7FE38460DF0B4FE30460DF07C
:103C7000B1FE2046BDE8F0410DF0ACBE2DE9F04F9D
:103C80004A4E8FB00446306804F0E3F80546002D34
:103C900040F082809DF81280454DB8F1010F2BD184
:103CA000DFF8249199F80030002B4DD1261D04F146
:103CB00098073946304606F0D0F804F5FC7AAB8810
:103CC0003C4A0A2104F5377010F00DF95146304690
:103CD00006F0C3F838460DF07DFE50460DF07AFE32
:103CE00030460DF077FE344B89F8008083F8008071
:103CF000324B186803F046FF9DF81230022B23D197
:103D0000DFF8C48098F80030F3B9261D04F1E0070D
:103D10003946304604F5117906F09FF84946304699
:103D200006F09BF838460DF055FE48460DF052FE61
:103D300030460DF04FFE204A0123137088F8003002
:103D40001E4B186803F01EFF1D4F4FF00008386827
:103D50008DF8138004F07DF804F54076002843D0F8
:103D60004FF0FF33386842460DF1130104F041F87B
:103D70009DF81330522B29D1B5F92810114800F0C5
:103D80000DFC1223304605A9ADF8143009F007FEEA
:103D9000386804F060F827E0002330681A460DF117
:103DA000120104F026F8013D71E700BFBC2000209D
:103DB00008290020605F02084D24002048240020CC
:103DC000C820002010290020442400204E2B40F061
:103DD0005481C148414600F0E1FB112305A930465A
:103DE000ADF8143009F0DBFDBC4FDFF82C833868E8
:103DF00004F02FF8A8B14FF0FF33386800220DF11E
:103E0000130103F0F6FF9DF81330552B40F03D8170
:103E1000B148B5F9281000F0C3FBD8F8000004F051
:103E20001AF8D8F8000004F014F8B0B14FF0FF33DE
:103E3000D8F8000000220DF1130103F0DAFF9DF81D
:103E40001330442B40F02981A96AA348494209B2A2
:103E500000F0A6FB386803F0FEFF3046B5F90E20EF
:103E6000B5F90C109E4FFDF73AFA04F2DC7904F62E
:103E7000941B4E4604F10408B7F91030022B00F0F1
:103E80001481042B00F02281012B07D13368B7F98C
:103E900006209B6DB7F90410304698472C365E45D6
:103EA00007F11C07E8D18F4F5E4604F64C3A04F147
:103EB0000408B7F91030022B00F03081042B00F019
:103EC0003E81012B07D13368B7F906209B6DB7F906
:103ED0000410304698472C36564507F11C07E8D1A8
:103EE00004F5966304F54B7A03937F4ECDF804A056
:103EF000231DA0460293B6F91030022B00F0258155
:103F0000042B00F03D81012B08D1D8F82C33B6F9F1
:103F100006209B6DB6F9041001989847019B3C332D
:103F20000193039B08F13C08984506F12006E2D175
:103F30006E4AB5F92C3011788B4204F1040616D084
:103F4000DBB21370502284F8502184F87C2184F86D
:103F5000A821002B00F01F81FF22012B84F85021A3
:103F600005D0022B84F87C2118BF84F8A821AB88E7
:103F70005F4A0A2104F532700FF0B5FF30460DF0AC
:103F800029FD94F80C31002B74D05A4D286818B1D3
:103F900003F0F8FD00232B60574B02221A60574AAA
:103FA00000231370564A1370564A1370564A137002
:103FB000012384F8713B04F64C300DF00BFD6420B6
:103FC00003F0F8FD2046FFF71FFE00F033FD04F27A
:103FD000DC77514630460AF13C0A05F0B5FFBA4598
:103FE000F7D14946304605F0AFFF09F5DC713046A0
:103FF00009F12C0905F0A8FFD945F2D104F1E00838
:1040000004F511774146304605F09EFF39463046AB
:1040100005F09AFF40460DF0DDFC38460DF0DAFC65
:1040200030460DF0D7FC04F5C0700DF0D3FC04F55C
:10403000AA700DF0CFFC04F594700DF0CBFC04F5E4
:10404000D6700DF0C7FC0024304B8DF812402022B2
:10405000214606A81C6020F097FA2D4B05934FF4DB
:1040600080421823CDE90A232A4805AA214603F0F5
:1040700045FD28600FB0BDE8F08FA96A1648494297
:1040800009B200F08BFA10237CE64E2B7FF4C9AE08
:104090001148002100F084FAC3E64E2B7FF4DDAE18
:1040A0000D48002100F07CFAD7E63368B7F9062006
:1040B0009B6DB7F90410304698473146404605F0ED
:1040C000CCFE0121384600F0ADF9E7E63146404626
:1040D00005F03AFF0321F5E710290020C420002055
:1040E000F0270020D82600205824002014000020AB
:1040F000605F0208482400201C0000205524002096
:104100004E2400204D2400204424002020000020C4
:10411000635F020865470008C02000203368B7F9D4
:1041200006209B6DB7F9041030469847314640464B
:1041300005F093FE0121384600F074F9CBE63146D4
:10414000404605F001FF0321F5E7D8F82C33B6F916
:1041500006209B6DB6F9041001989847D8F82C33C7
:1041600001985B6E1F4601231A460021B847DDE91E
:10417000011005F072FE0121304600F053F9CDE642
:10418000D8F82C3301989B6E9847DDE9011005F0B3
:10419000DBFE0321F0E730460DF01CFCE7E600BF34
:1041A00010B5134C8AB0FEF7D7FD206803F0EAFC87
:1041B000104B186803F04FFE2022002102A820F0C7
:1041C000E3F90D4B01934FF480421823CDE9062308
:1041D000002101AA094803F091FC094A206000234C
:1041E0001370084A1370084A13700AB010BD00BF5C
:1041F00048240020BC200020635F020865470008B7
:104200004E2400204D240020442400207047043810
:104210007047704710B5102104461EF06EFF20460F
:1042200010BDA0F10400F5E700228260024A02609E
:1042300018324260C16070479868020870470000F9
:1042400010B5034B03600446FFF705F9204610BD87
:10425000C068020810B50446FFF7F2FF20464FF48D
:104260008E711EF04AFF204610BD000010B50446B6
:10427000FFF726F9014B2360204610BDC0680208F5
:10428000FFF7EAB8002202607047704710B5034B91
:104290000360044600F0B1F8204610BDF46802083F
:1042A00010B50446FFF7F2FF20461C211EF025FF43
:1042B000204610BD10B5044600F0AAF8064B236056
:1042C0004FF4C873A3614FF018110023C4E902131F
:1042D000024B2361204610BDF468020803009001E0
:1042E000B0F9083010B5B0F904405B429C420BDBDA
:1042F000F02C09DCB0F90A30B0F906205B429A4292
:1043000002DBB2F5A07F05DD0423038283694382CB
:10431000002010BD438A591A09B200294182F7DCF6
:1043200083891C44C38984801A448369C280438280
:104330000120EEE710B5034B0360044600F05DF882
:10434000204610BD0869020810B50446FFF7F2FFC9
:10435000204620211EF0D1FE204610BD10B5044697
:1043600000F056F8084B23604FF4167246F2A8137B
:10437000C4E906234FF020110022C4E90212034AC7
:104380002261A382204610BD08690208030058027A
:10439000B0F90830B0F904205B429A4210B508DB4E
:1043A000F02A06DCB0F90A30B0F906405B429C42C4
:1043B00007DA04230382C36983828369438200206E
:1043C00010BD438A591A09B200294182F7DC83895A
:1043D0001A44C38982801C448369C48043820120BB
:1043E000EEE7838A591A09B20029D8BFC3698182CE
:1043F000DABF838201200020704770470020704799
:1044000010B5182104461EF078FE204610BD0000AD
:10441000034A0260032202824FF02012826070473A
:104420001C690208018270478180C28070478181C7
:10443000C2817047B0F90420B0F9083010B5B1F965
:1044400004401344A34215DDB1F9083023449A42D5
:1044500010DAB0F90630B0F90A20B1F906401A4472
:10446000A24207DDB1F90A2022449342ACBF0020EA
:10447000012010BD0020FCE710B5054B03600023B0
:1044800004468380083000F033F8204610BD00BF9A
:1044900030690208838819448180704710B5044B45
:1044A000044640F8083B00F00FF8204610BD00BF5E
:1044B0003069020810B50446FFF7F0FF20463021AE
:1044C0001EF01BFE204610BD10B5034B03600446D2
:1044D000FFF793FF204610BD4069020810B504465F
:1044E000FFF7F2FF204628211EF007FE204610BDF0
:1044F00010B50446FFF78CFF03210A480A4B2162DE
:10450000A1844FF01C11C4E9010142F21072236032
:1045100000214FF4C873C4E90632E160A2826382CD
:10452000204610BD6800040140690208438A591AF8
:1045300009B2002941821FDC82888389C1891A441B
:10454000C38812B20B441BB281698280002AC380E7
:10455000418207DA00228280002B07DA0023C38021
:1045600001207047D02AF7DDD022F4E7B3F5907F21
:10457000F6DD4FF49073F2E700207047838A591AF2
:1045800009B20029D8BFC3698182DABF83820120C2
:1045900000207047838C5B1A838470478181704749
:1045A000C18170472DE9F743244E254C33681B1A0F
:1045B0000546336014274FF00008B4F91030032B80
:1045C0000AD029462046FFF7E3FE013F04F120040C
:1045D000F3D103B0BDE8F0833368002BF5DC194854
:1045E000CDF8048001A902F067FC08B1CDF8048081
:1045F000019B03F00302DB0502F1FF334BBF4FF6D3
:10460000E071F0214FF001094FF6FF79022B9DBFB9
:10461000013202EB8202D2002A222046FFF704FF79
:10462000002249462046FFF702FF02212046FFF7FD
:10463000F9FE42F210733360C7E700BF200000208C
:1046400058240020642100202DE9F8430146064645
:104650001348144CDFF85080DFF85090FFF78EFFBE
:1046600004F58C770546B4F91030032B08D0314699
:104670002046FFF735FE1C34BC42F4D1BDE8F88378
:1046800065B1B8F80020B9F80010103A204692B28F
:10469000FFF7CAFE02212046FFF7C4FE0025EAE725
:1046A00010290020F0270020502400205224002050
:1046B0002DE9F843274B284E1A68284B1B68022B1C
:1046C00008BF01320C2AA8BF0C2207464FF0000990
:1046D0004FF01C0895B2B6F91030012B10D13946B5
:1046E0003046FFF77EFE58B11D4A00231446B2F94A
:1046F000101003291BD001330A2B02F11C02F6D142
:1047000009F10109B9F1140F06F12006E3D1144CA7
:104710000A25B4F91030012B03D139462046FFF7A2
:10472000DFFD013D04F11C04F3D1BDE8F883F288FC
:10473000B18808FB03441032204692B2FFF774FEA2
:1047400020462A460021FFF772FE02212046FFF78D
:1047500069FED5E718000020582400201C00002026
:10476000D82600202DE9F04FA24CDFF8C0A200258A
:1047700085B025708AF800509F4B4FF6CE72EF1827
:1047800011463846FFF750FE9C4B4FF6CE72EE189E
:1047900011463046FFF748FE4FF6FB7200213846BF
:1047A000FFF745FE052200213046FFF740FE0321BA
:1047B0003846FFF737FE1C3503213046FFF732FE3F
:1047C000B5F58C7FD8D18E4F00263D464FF6CE7280
:1047D00011462846FFF728FE013628460321FFF739
:1047E00021FE142E05F12005F0D1864D4FF0000971
:1047F00085484FF4005101F025F9012809F101091C
:1048000008D1824A13680B2B04DC0133C8201360E3
:1048100003F0D0F923784BB19AF80030002BE7D0A1
:104820007B4B01221A7005B0BDE8F08FB9F1010F82
:10483000D4BF18469946774BAA89774E1A80774B92
:10484000EA891A80C8BF01203070FFF7ABFE3178CB
:104850007348FFF76BFE3078FFF7F6FE3078FFF70E
:1048600027FF3E464FF01408B6F910B0BBF1010F18
:104870007FD16B493046FFF7DDFD002879D06848CD
:104880005946FFF787FE04213046FFF7CBFD644809
:104890004FF482726821FFF7C7FD3E464FF0000BD0
:1048A000B6F91020012A2AD1DFF84C810A22B8F982
:1048B00010300093012B63D1414630460192FFF73F
:1048C000B9FD019A00285BD004213046FFF7AAFD0C
:1048D00004214046FFF7A6FD05212846FFF7DAFD33
:1048E000009A49484FF4005101F0B2F8322003F029
:1048F00061F9454800224FF4005101F0A9F80BF18D
:10490000010BBBF1140F06F12006C9D13B4E4FF04D
:104910000A08B6F910B0BBF1010F36D14049304654
:10492000FFF788FD88B33E485946FFF733FE042160
:104930003046FFF777FD3A484FF482726821FFF75F
:1049400073FDB5F92C30002B25DC01252570354C85
:104950009AF80030002B7FF463AF20688DF80F5079
:104960001A460DF10F0103F013FA322003F022F979
:10497000EEE7B8F1010806F120067FF475AF8CE789
:10498000013A08F11C0892D1B9E7B8F1010806F123
:104990001C06BED1D5E7234B234E18683368012B84
:1049A0001ED1AA881D2A1BD9DFF88480237088F8BD
:1049B000003002238DF80F3000231A460DF10F014D
:1049C00003F0E6F9237813B198F8003023B90223F5
:1049D0003360002323700BE70A2003F0EBF8F1E7C4
:1049E00030238DF80F3000231A460DF10F0103F02C
:1049F000CFF9FDE64E240020F0270020D826002025
:104A00005824002008290020001802401800002027
:104A100054240020522400204C2400205024002044
:104A200010290020BC2000201C0000204D24002064
:104A30005524002070B5214C00254FF6CE7211464A
:104A40002046FFF7F1FC013520460321FFF7EAFC81
:104A5000142D04F12004F0D1194E0024A5194FF6AD
:104A6000CE7211462846FFF7DFFC2846154D03217C
:104A7000FFF7D8FC25444FF6CE7211462846FFF7C3
:104A8000D3FC1C3403212846FFF7CCFCB4F58C7F03
:104A9000E4D10D4C0D4BE360002104F10800FFF759
:104AA0007DFD002104F10800FFF77AFD084A00238C
:104AB0001360084A1370084A137070BD5824002010
:104AC000F0270020D8260020082900206400C80014
:104AD000200000204E2400204D24002038B50F482F
:104AE0000F4DFFF7C9FC002428191C34FFF7E2FB27
:104AF000B4F58C7FF8D10B4D002428191C34FFF736
:104B0000D9FBB4F58C7FF8D1074D00242819203447
:104B1000FFF724FCB4F5207FF8D138BD0829002028
:104B2000F0270020D82600205824002070B5114D11
:104B30001424013C04D305EB4410FFF7FBFBF8E71A
:104B40000D4D0A241C26013C04D306FB0450FFF73C
:104B50009DFBF8E7094D0A241C26013C04D306FB03
:104B60000450FFF793FBF8E7BDE870400448FFF7F7
:104B700095BC00BF58240020D8260020F027002034
:104B800008290020F02070474FF4A07070472920BA
:104B9000FDF73AB92820FDF737B908B5FDF708F950
:104BA000CA20FDF731F9C320FDF712F90820FDF7FF
:104BB0000FF95020FDF70CF9CF20FDF725F9002063
:104BC000FDF706F9C120FDF703F93020FDF700F9E4
:104BD000ED20FDF719F96420FDF7FAF80320FDF741
:104BE000F7F81220FDF7F4F88120FDF7F1F8E8203E
:104BF000FDF70AF98520FDF7EBF80020FDF7E8F84E
:104C00007820FDF7E5F8CB20FDF7FEF83920FDF719
:104C1000DFF82C20FDF7DCF80020FDF7D9F8342070
:104C2000FDF7D6F80220FDF7D3F8F720FDF7ECF8F2
:104C30002020FDF7CDF8EA20FDF7E6F80020FDF78B
:104C4000C7F80020FDF7C4F8B120FDF7DDF800201B
:104C5000FDF7BEF81B20FDF7BBF8B620FDF7D4F832
:104C60000A20FDF7B5F8A220FDF7B2F8C020FDF745
:104C7000CBF81020FDF7ACF8C120FDF7C5F81020E7
:104C8000FDF7A6F8C520FDF7BFF84520FDF7A0F811
:104C90001520FDF79DF8C720FDF7B6F89020FDF729
:104CA00097F83620FDF7B0F8C820FDF791F8F2200C
:104CB000FDF7AAF80020FDF78BF8B020FDF7A4F867
:104CC000C220FDF785F8B620FDF79EF80A20FDF713
:104CD0007FF8A720FDF77CF82720FDF779F804205E
:104CE000FDF776F82A20FDF78FF80020FDF770F821
:104CF0000020FDF76DF80020FDF76AF8EF20FDF7C2
:104D000067F82B20FDF780F80020FDF761F8002000
:104D1000FDF75EF80120FDF75BF83F20FDF758F83E
:104D2000F620FDF771F80120FDF752F80020FDF79D
:104D30004FF80620FDF74CF82C20FDF765F8C82049
:104D4000FDF7AEF82620FDF75FF80120FDF740F8EB
:104D5000E020FDF759F80F20FDF73AF82920FDF77C
:104D600037F82420FDF734F80C20FDF731F80E2039
:104D7000FDF72EF80920FDF72BF84E20FDF728F857
:104D80007820FDF725F83C20FDF722F80920FDF7F3
:104D90001FF81320FDF71CF80520FDF719F8172060
:104DA000FDF716F81120FDF713F80020FDF710F8B5
:104DB000E120FDF729F80020FDF70AF81620FDF79D
:104DC00007F81B20FDF704F80420FDF701F8112077
:104DD000FCF7FEFF0720FCF7FBFF3120FCF7F8FF94
:104DE0003320FCF7F5FF4220FCF7F2FF0520FCF72B
:104DF000EFFF0C20FCF7ECFF0A20FCF7E9FF28206E
:104E0000FCF7E6FF2F20FCF7E3FF0F20FCF7E0FFA5
:104E10001120FCF7F9FFC820FDF742F82920FCF724
:104E2000F3FFBDE808402C20FCF7EEBF08B5FCF707
:104E3000BFFF0321D320FDF703F880B208BD10B5F2
:104E4000C4B2022203212046FCF76AFF0A20FCF7C5
:104E5000ADFF204600220321FCF762FFBDE81040B1
:104E60000220FCF7A3BF38B50446E4B2FCF756FFB6
:104E700000212046FCF76AFF012105462046FCF789
:104E800065FF40EA052080B238BD10B5C4B24021AC
:104E90002046FCF75BFF030607D54C212046FCF7B4
:104EA00055FF003818BF012010BD01224B212046BC
:104EB000FCF736FF204600224B21FCF731FF002093
:104EC000F2E773B50423C4B20E461546D7210DEBA5
:104ED00003022046FCF754FF019B1BBA1A0DC3F3D3
:104EE0000B23328020462B8001224B21FCF718FF38
:104EF00000224B212046FCF713FF02B070BD0000DA
:104F000010B50A4A1378984204460DD05178884269
:104F10000AD00BB141B90123D454FCF7FFFE20465F
:104F2000BDE81040FFF78BBF10BD00BF382900203F
:104F300010B5C4B209212046FCF708FF40F0010279
:104F4000D2B220460921BDE81040FCF7E9BE10B5F9
:104F5000C4B209212046FCF7F9FE092100F0FE0247
:104F60002046BDE81040FCF7DBBE38B5C4B20D46A4
:104F700020460A21FCF7EAFE40EA0502D2B22046AA
:104F80000A21BDE83840FCF7CBBE10B50446FCF75B
:104F9000C6FE20461F21FFF7E8FF2046BDE810406F
:104FA000FFF7C6BF38B5C4B20D4620460A21FCF74C
:104FB000CDFE20EA0502D2B220460A21BDE83840E3
:104FC000FCF7AEBE10B50446FFF7C1FF20461F2117
:104FD000BDE81040FFF7E6BF10B5C0B20C460B218C
:104FE000FCF7B4FE204010BD1F21FFF7F5BF0A46B5
:104FF000C0B20B21FCF794BE1F21FFF7F8BF38B5F4
:10500000C4B20D4620461721FCF7A0FE20EA050297
:10501000D2B220461721BDE83840FCF781BE70B5FA
:10502000C4B2064604212046FCF790FE042100F09D
:10503000FB0205462046FCF773FE3046F021FFF7E1
:10504000DEFF05F0F80220460421FCF769FE492244
:1050500020212046FCF764FE0220FCF7A7FE204634
:1050600001222121FCF75CFE20469A224121FCF717
:1050700057FE204601224A21FCF752FE204601221B
:105080004B21FCF74DFE204600224B21FCF748FE49
:10509000204601225621FCF743FE204601225821DA
:1050A000FCF73EFE204601224021FCF739FE204657
:1050B000FF220B21FCF734FEBDE870400220FCF714
:1050C00075BE0000054BD3F8882042F47002C3F887
:1050D00088204FF000629A60704700BF00ED00E04A
:1050E00008B50B4B1A6842F400721A601A6842F451
:1050F00080621A601A6842F480721A60032000F01D
:1051000061FA0020FDF774F9FCF7D8FE002008BD15
:10511000003C0240034A044B11681B780B441360A7
:10512000704700BF3C29002088000020014B186810
:10513000704700BF3C29002038B50446FFF7F6FF52
:10514000631C1CBF054B1B78054618BFE418FFF70E
:10515000EDFF431BA342FAD338BD00BF88000020F7
:1051600038B50446002800F09B80056C25B9FCF793
:10517000C5FE656484F83C50236CDB0600F18E802C
:10518000236C23F4885323F0020343F002032364C7
:10519000444B5A6822F440325A605A6861680A43A4
:1051A0005A60236821695A6822F480725A605A68EA
:1051B00042EA01225A605A68A16822F040725A609D
:1051C0005A680A435A609A68E16822F400629A6059
:1051D0009A680A439A603449A26A8A4252D099680E
:1051E00021F07061996099680A439A609A68E16A4F
:1051F00022F040529A609A680A439A609A6822F0B4
:1052000002029A609A68217E42EA41029A6094F80A
:105210002020002A3ED05A68616A42F400625A6037
:105220005A6822F460425A605A68013942EA4132AF
:105230005A60DA6AE16922F47002DA62DA6A0139E4
:1052400042EA0152DA629A6822F400729A609A681D
:1052500094F8301042EA41229A609A68616922F417
:1052600080629A609A68002042EA81229A606064B3
:10527000236C23F0030343F001032364002384F829
:105280003C3038BD9A6822F070629A609A6822F0C9
:105290004052B2E75A6822F40062C9E70120EDE704
:1052A0000120EEE7002301400100000F82B000233F
:1052B000019390F83C30012B69D0012380F83C30F9
:1052C00003689A68D2070BD59A68D1071AD4036C81
:1052D00043F010030364436C43F0010343644CE068
:1052E0009A682C4942F001029A602B4A1268B2FB7C
:1052F000F1F202EB42020192019A002AE4D0019AF3
:10530000013AF8E7026C22F4E06222F0010242F472
:10531000807202645A68520541BF026C22F4405206
:1053200042F480520264026C12F480521CBF426C40
:1053300022F006024264002280F83C206FF0220234
:105340001A60164A516811F01F0F15491CD18B4283
:1053500007D001F580718B420CD1526812F01F0FFB
:105360000BD19A6812F0405F07D19A6842F08042F0
:105370009A6002E00B498B4202D0002002B07047D5
:10538000526812F0100FEBE78B42F6D1E9E70220EA
:10539000F4E700BF40420F008400002000230140DA
:1053A000002001400022014090F83C30012B14D035
:1053B00003689A6822F001029A609B68DB0707D4B1
:1053C000036C23F4885323F0010343F001030364C7
:1053D000002380F83C30184670470220704703686D
:1053E0009A68520570B504460D460BD59B68DE05DC
:1053F00008D5036C43F020030364002380F83C309D
:10540000012070BDFFF792FE064623681A689107D7
:105410000CD56FF012021A60226C42F40072226402
:105420009A6812F0405F17D00020EAE7681CEDD0C0
:1054300065B923681B6813F00203E6D1226C84F877
:105440003C3042F0040222640320DAE7FFF76EFEEC
:10545000801BA842EDD8D8E7227E002AE4D1DA6A80
:1054600012F4700F02D09B685A05DDD4236C23F42C
:1054700080732364236CDB04D6D4236C43F00103D4
:105480002364D1E70368D86C70470000F7B50023A8
:10549000019390F83C30012B054600F086800123F3
:1054A00080F83C3008682B688E68092884B233D9AC
:1054B00004EB4402DF681E3A4FF0070C0CFA02FCC2
:1054C00027EA0C07DF60DF6806FA02F23A43DA6087
:1054D0004968062901EB81022DD8596B053A1F2630
:1054E000964021EA06015963596B04FA02F20A4315
:1054F0005A632F4A93420AD1122837D12D4B5A684A
:1055000022F400025A605A6842F480025A60002075
:1055100085F83C0003B0F0BD1A6900EB400C07278A
:1055200007FA0CF722EA07021A611A6906FA0CF662
:1055300016431E61CCE70C294FF01F010BD81E6BE0
:10554000233A914026EA01011963196B04FA02F229
:105550000A431A63CDE7DE6A413A914026EA010127
:10556000D962D96A94400C43DC62C2E7124B98427C
:1055700001D01128CBD10F4B5A6822F480025A6017
:105580005A6842F400025A600B4B9842BFD10B4B51
:105590000B4A1B68B3FBF2F30A2253430193019BAE
:1055A000002BB4D0019B013BF8E70220B2E700BF1B
:1055B0000020014000230140120000108400002060
:1055C00040420F000749CA6822F4E0620302120455
:1055D00003F4E063120C134343F0BF6343F400335E
:1055E000CB60704700ED00E0164B30B5DC68C4F3CB
:1055F0000224C4F10703251D042B28BF0423062D14
:105600004FF0FF358CBF033C002405FA03F321EA79
:105610000303A54022EA0502A340002843EA02034F
:10562000ACBF00F16040084A4FEA0313B8BF00F076
:105630000F00DBB2AABF00F56140135480F80033BD
:1056400030BD00BF00ED00E014ED00E0002807DBF6
:10565000044A4109012300F01F00834042F8213031
:10566000704700BF00E100E010B5044650B1437937
:1056700003F0FF0213B90271FCF790FC0123637180
:10568000002010BD0120FCE710B5044620B390F8BF
:10569000393003F0FF021BB980F83820FCF796FC84
:1056A000022384F83930236861681A6822F4403292
:1056B0000A431A605A6BA16822F007020A435A6330
:1056C0001A6CE1686FF30D020A431A64002001238B
:1056D000E06384F8393010BD0120FCE77047704763
:1056E000036870B55E681D68F207044614D5E905C5
:1056F00012D51A6822F480721A60C26B42F001025D
:10570000C26301229A60042380F83930002380F8B4
:105710003830436903B19847B20616D5AB0414D5A7
:1057200023681A6822F400521A6020229A60E36B00
:1057300043F00203E363042384F83930002384F840
:10574000383063690BB120469847300716D52905D4
:1057500014D523681A6822F400621A6008229A603D
:10576000E36B43F00403E363042384F8393000233C
:1057700084F8383063690BB12046984772070BD51F
:105780006B0509D523681A6822F480621A60042226
:105790009A602046FFF7A2FFB00714D5A90512D5DD
:1057A00023681A6822F400721A6002229A60E36B7E
:1057B000E363012384F83930002384F83830236907
:1057C0000BB120469847F20613D5EB0411D5236898
:1057D0001A6822F480521A6010229A60E36BE36325
:1057E000012384F83930002384F838302046FFF74D
:1057F00076FF70BDF0B590F83820012A03464FF0CF
:1058000002002BD0012283F8382083F8390003EB03
:105810000112D2E90740556A174E44EA0040093C9C
:10582000012C9CBF05F07F4210434FEA01171A6814
:1058300088BF40EA056091B9516A31400143516225
:10584000012C9969916103D8596A21F07F419162D5
:105850000122002083F8392083F83800F0BDD16997
:1058600031400143D161D919012C896911619CBF73
:1058700025F07F451562EBE7F0FFFC002DE9F74FBF
:10588000DFF8BC916C4A00230D6801249C4004EAB7
:105890000506AC4340F0B7804D68032705F00304CC
:1058A0004FEA430807FA08FC671E012F6FEA0C0C49
:1058B00034D8876807EA0C0ECF6807FA08F747EA7A
:1058C0000E078760476827EA060EC5F300179F405A
:1058D00047EA0E074760C76807EA0C0E8F6807FAA9
:1058E00008F747EA0E07022CC76019D14FEAD30A1E
:1058F00000EB8A0A03F0070BDAF820704FEA8B0BF3
:105900004FF00F0E0EFA0BFE27EA0E0E0F6907FA84
:105910000BF747EA0E07CAF8207001E0032CDAD132
:10592000076804FA08F407EA0C073C4315F4403F03
:10593000046068D000240194D9F8444044F48044C1
:10594000C9F84440D9F8444023F0030707F18047E1
:1059500004F4804407F59C37019403F0030C019C88
:10596000D7F808E04FEA8C0C0F2404FA0CF42EEA66
:10597000040E324CA0424DD004F58064A0424BD0BE
:1059800004F58064A04249D004F58064A04247D069
:1059900004F58064A04245D004F58064A04243D061
:1059A00004F58064A04241D004F58064A0423FD059
:1059B00004F58064A0423DD004F58064A04214BF89
:1059C0000A24092404FA0CF444EA0E04BC60946826
:1059D000F74315F4801F0CBF3C4034439460D468F7
:1059E00015F4001F0CBF3C403443D460546815F4D8
:1059F000003F0CBF3C40344354601468ED0354BF77
:105A00003C40344314600133102B7FF43DAF03B0AE
:105A1000BDE8F08F0024D5E70124D3E70224D1E7C5
:105A20000324CFE70424CDE70524CBE70624C9E708
:105A30000724C7E70824C5E7003C014000000240F6
:105A40000038024000690840003818BF0120704744
:105A50000AB1816170470904FBE7436901EA030267
:105A600021EA030141EA02418161704701684B6903
:105A700013F480634FF0000210D06FF480634B6129
:105A80002023026380F83D3080F83E20036C80F8CC
:105A90003C2043F00403036401207047184670471C
:105AA0002DE9F84606460F4691461D464FEA114A33
:105AB0003368BAF1010F39D15C6927EA0404A4B252
:105AC000B4FA84F46409A14501D0002024E06A1CE2
:105AD000EFD0FFF72BFB089BC01AA84201D8002D7E
